{
	"data": {
		"bytecode": {
			"linkReferences": {},
			"object": "60806040525f805560018055600280553480156019575f80fd5b506101d6806100275f395ff3fe608060405234801561000f575f80fd5b506004361061004a575f3560e01c8063335d00c21461004e57806342b148aa146100585780634b73383f14610076578063c5d7802e14610094575b5f80fd5b6100566100b2565b005b6100606100ec565b60405161006d9190610127565b60405180910390f35b61007e6100f5565b60405161008b9190610127565b60405180910390f35b61009c6100fd565b6040516100a99190610127565b60405180910390f35b6002546001545f546100c4919061016d565b6100ce919061016d565b506100d7610103565b506100e0610107565b506100e96100f5565b50565b5f61012c905090565b5f60c8905090565b60025481565b5f90565b5f6064905090565b5f819050919050565b6101218161010f565b82525050565b5f60208201905061013a5f830184610118565b92915050565b7f4e487b71000000000000000000000000000000000000000000000000000000005f52601160045260245ffd5b5f6101778261010f565b91506101828361010f565b925082820190508082111561019a57610199610140565b5b9291505056fea2646970667358221220a957f74c1fbfa2aab4f5af6ccf287ebaf1e2e5356e53323ef9cb8b2f42aad71d64736f6c634300081a0033",
			"opcodes": "PUSH1 0x80 PUSH1 0x40 MSTORE PUSH0 DUP1 SSTORE PUSH1 0x1 DUP1 SSTORE PUSH1 0x2 DUP1 SSTORE CALLVALUE DUP1 ISZERO PUSH1 0x19 JUMPI PUSH0 DUP1 REVERT JUMPDEST POP PUSH2 0x1D6 DUP1 PUSH2 0x27 PUSH0 CODECOPY PUSH0 RETURN INVALID PUSH1 0x80 PUSH1 0x40 MSTORE CALLVALUE DUP1 ISZERO PUSH2 0xF JUMPI PUSH0 DUP1 REVERT JUMPDEST POP PUSH1 0x4 CALLDATASIZE LT PUSH2 0x4A JUMPI PUSH0 CALLDATALOAD PUSH1 0xE0 SHR DUP1 PUSH4 0x335D00C2 EQ PUSH2 0x4E JUMPI DUP1 PUSH4 0x42B148AA EQ PUSH2 0x58 JUMPI DUP1 PUSH4 0x4B73383F EQ PUSH2 0x76 JUMPI DUP1 PUSH4 0xC5D7802E EQ PUSH2 0x94 JUMPI JUMPDEST PUSH0 DUP1 REVERT JUMPDEST PUSH2 0x56 PUSH2 0xB2 JUMP JUMPDEST STOP JUMPDEST PUSH2 0x60 PUSH2 0xEC JUMP JUMPDEST PUSH1 0x40 MLOAD PUSH2 0x6D SWAP2 SWAP1 PUSH2 0x127 JUMP JUMPDEST PUSH1 0x40 MLOAD DUP1 SWAP2 SUB SWAP1 RETURN JUMPDEST PUSH2 0x7E PUSH2 0xF5 JUMP JUMPDEST PUSH1 0x40 MLOAD PUSH2 0x8B SWAP2 SWAP1 PUSH2 0x127 JUMP JUMPDEST PUSH1 0x40 MLOAD DUP1 SWAP2 SUB SWAP1 RETURN JUMPDEST PUSH2 0x9C PUSH2 0xFD JUMP JUMPDEST PUSH1 0x40 MLOAD PUSH2 0xA9 SWAP2 SWAP1 PUSH2 0x127 JUMP JUMPDEST PUSH1 0x40 MLOAD DUP1 SWAP2 SUB SWAP1 RETURN JUMPDEST PUSH1 0x2 SLOAD PUSH1 0x1 SLOAD PUSH0 SLOAD PUSH2 0xC4 SWAP2 SWAP1 PUSH2 0x16D JUMP JUMPDEST PUSH2 0xCE SWAP2 SWAP1 PUSH2 0x16D JUMP JUMPDEST POP PUSH2 0xD7 PUSH2 0x103 JUMP JUMPDEST POP PUSH2 0xE0 PUSH2 0x107 JUMP JUMPDEST POP PUSH2 0xE9 PUSH2 0xF5 JUMP JUMPDEST POP JUMP JUMPDEST PUSH0 PUSH2 0x12C SWAP1 POP SWAP1 JUMP JUMPDEST PUSH0 PUSH1 0xC8 SWAP1 POP SWAP1 JUMP JUMPDEST PUSH1 0x2 SLOAD DUP2 JUMP JUMPDEST PUSH0 SWAP1 JUMP JUMPDEST PUSH0 PUSH1 0x64 SWAP1 POP SWAP1 JUMP JUMPDEST PUSH0 DUP2 SWAP1 POP SWAP2 SWAP1 POP JUMP JUMPDEST PUSH2 0x121 DUP2 PUSH2 0x10F JUMP JUMPDEST DUP3 MSTORE POP POP JUMP JUMPDEST PUSH0 PUSH1 0x20 DUP3 ADD SWAP1 POP PUSH2 0x13A PUSH0 DUP4 ADD DUP5 PUSH2 0x118 JUMP JUMPDEST SWAP3 SWAP2 POP POP JUMP JUMPDEST PUSH32 0x4E487B7100000000000000000000000000000000000000000000000000000000 PUSH0 MSTORE PUSH1 0x11 PUSH1 0x4 MSTORE PUSH1 0x24 PUSH0 REVERT JUMPDEST PUSH0 PUSH2 0x177 DUP3 PUSH2 0x10F JUMP JUMPDEST SWAP2 POP PUSH2 0x182 DUP4 PUSH2 0x10F JUMP JUMPDEST SWAP3 POP DUP3 DUP3 ADD SWAP1 POP DUP1 DUP3 GT ISZERO PUSH2 0x19A JUMPI PUSH2 0x199 PUSH2 0x140 JUMP JUMPDEST JUMPDEST SWAP3 SWAP2 POP POP JUMP INVALID LOG2 PUSH5 0x6970667358 0x22 SLT KECCAK256 0xA9 JUMPI 0xF7 0x4C 0x1F 0xBF LOG2 0xAA 0xB4 CREATE2 0xAF PUSH13 0xCF287EBAF1E2E5356E53323EF9 0xCB DUP12 0x2F TIMESTAMP 0xAA 0xD7 SAR PUSH5 0x736F6C6343 STOP ADDMOD BYTE STOP CALLER "
		},
		"gasEstimates": {
			"creation": {
				"codeDepositCost": "94000",
				"executionCost": "49356",
				"totalCost": "143356"
			},
			"external": {
				"examples()": "infinite",
				"externalFunc()": "332",
				"publicFunc()": "354",
				"z()": "2469"
			},
			"internal": {
				"internalFunc()": "22",
				"privateFunc()": "14"
			}
		},
		"methodIdentifiers": {
			"examples()": "335d00c2",
			"externalFunc()": "42b148aa",
			"publicFunc()": "4b73383f",
			"z()": "c5d7802e"
		}
	},
	"abi": [
		{
			"inputs": [],
			"name": "examples",
			"outputs": [],
			"stateMutability": "view",
			"type": "function"
		},
		{
			"inputs": [],
			"name": "externalFunc",
			"outputs": [
				{
					"internalType": "uint256",
					"name": "",
					"type": "uint256"
				}
			],
			"stateMutability": "pure",
			"type": "function"
		},
		{
			"inputs": [],
			"name": "publicFunc",
			"outputs": [
				{
					"internalType": "uint256",
					"name": "",
					"type": "uint256"
				}
			],
			"stateMutability": "pure",
			"type": "function"
		},
		{
			"inputs": [],
			"name": "z",
			"outputs": [
				{
					"internalType": "uint256",
					"name": "",
					"type": "uint256"
				}
			],
			"stateMutability": "view",
			"type": "function"
		}
	]
}