{
	"3w/042Call.sol": {
		"TestCall": {
			"abi": [
				{
					"anonymous": false,
					"inputs": [
						{
							"indexed": false,
							"internalType": "address",
							"name": "caller",
							"type": "address"
						},
						{
							"indexed": false,
							"internalType": "uint256",
							"name": "amount",
							"type": "uint256"
						},
						{
							"indexed": false,
							"internalType": "string",
							"name": "message",
							"type": "string"
						}
					],
					"name": "Log",
					"type": "event"
				},
				{
					"stateMutability": "payable",
					"type": "fallback"
				},
				{
					"inputs": [
						{
							"internalType": "string",
							"name": "_message",
							"type": "string"
						},
						{
							"internalType": "uint256",
							"name": "_x",
							"type": "uint256"
						}
					],
					"name": "foo",
					"outputs": [
						{
							"internalType": "bool",
							"name": "",
							"type": "bool"
						},
						{
							"internalType": "uint256",
							"name": "",
							"type": "uint256"
						}
					],
					"stateMutability": "payable",
					"type": "function"
				},
				{
					"inputs": [],
					"name": "message",
					"outputs": [
						{
							"internalType": "string",
							"name": "",
							"type": "string"
						}
					],
					"stateMutability": "view",
					"type": "function"
				},
				{
					"inputs": [],
					"name": "x",
					"outputs": [
						{
							"internalType": "uint256",
							"name": "",
							"type": "uint256"
						}
					],
					"stateMutability": "view",
					"type": "function"
				},
				{
					"stateMutability": "payable",
					"type": "receive"
				}
			],
			"devdoc": {
				"kind": "dev",
				"methods": {},
				"version": 1
			},
			"evm": {
				"assembly": "    /* \"3w/042Call.sol\":57:491  contract TestCall{... */\n  mstore(0x40, 0x80)\n  callvalue\n  dup1\n  iszero\n  tag_1\n  jumpi\n  0x00\n  dup1\n  revert\ntag_1:\n  pop\n  dataSize(sub_0)\n  dup1\n  dataOffset(sub_0)\n  0x00\n  codecopy\n  0x00\n  return\nstop\n\nsub_0: assembly {\n        /* \"3w/042Call.sol\":57:491  contract TestCall{... */\n      mstore(0x40, 0x80)\n      jumpi(tag_1, lt(calldatasize, 0x04))\n      shr(0xe0, calldataload(0x00))\n      dup1\n      0x0c55699c\n      eq\n      tag_3\n      jumpi\n      dup1\n      0x24ccab8f\n      eq\n      tag_4\n      jumpi\n      dup1\n      0xe21f37ce\n      eq\n      tag_5\n      jumpi\n      jump(tag_2)\n    tag_1:\n      jumpi(tag_2, calldatasize)\n      stop\n    tag_2:\n        /* \"3w/042Call.sol\":266:314  Log(msg.sender,msg.value, \"fallback was called\") */\n      0x4e3358e5bdb38f499a83fbcd33d16343569f3b6fe53021022dede6364017b4a8\n        /* \"3w/042Call.sol\":270:280  msg.sender */\n      caller\n        /* \"3w/042Call.sol\":281:290  msg.value */\n      callvalue\n        /* \"3w/042Call.sol\":266:314  Log(msg.sender,msg.value, \"fallback was called\") */\n      mload(0x40)\n      tag_10\n      swap3\n      swap2\n      swap1\n      tag_11\n      jump\t// in\n    tag_10:\n      mload(0x40)\n      dup1\n      swap2\n      sub\n      swap1\n      log1\n        /* \"3w/042Call.sol\":57:491  contract TestCall{... */\n      stop\n        /* \"3w/042Call.sol\":107:120  uint public x */\n    tag_3:\n      callvalue\n      dup1\n      iszero\n      tag_12\n      jumpi\n      0x00\n      dup1\n      revert\n    tag_12:\n      pop\n      tag_13\n      tag_14\n      jump\t// in\n    tag_13:\n      mload(0x40)\n      tag_15\n      swap2\n      swap1\n      tag_16\n      jump\t// in\n    tag_15:\n      mload(0x40)\n      dup1\n      swap2\n      sub\n      swap1\n      return\n        /* \"3w/042Call.sol\":327:488  function foo(string memory _message, uint256 _x) public payable returns(bool,uint){... */\n    tag_4:\n      tag_17\n      0x04\n      dup1\n      calldatasize\n      sub\n      dup2\n      add\n      swap1\n      tag_18\n      swap2\n      swap1\n      tag_19\n      jump\t// in\n    tag_18:\n      tag_20\n      jump\t// in\n    tag_17:\n      mload(0x40)\n      tag_21\n      swap3\n      swap2\n      swap1\n      tag_22\n      jump\t// in\n    tag_21:\n      mload(0x40)\n      dup1\n      swap2\n      sub\n      swap1\n      return\n        /* \"3w/042Call.sol\":80:101  string public message */\n    tag_5:\n      callvalue\n      dup1\n      iszero\n      tag_23\n      jumpi\n      0x00\n      dup1\n      revert\n    tag_23:\n      pop\n      tag_24\n      tag_25\n      jump\t// in\n    tag_24:\n      mload(0x40)\n      tag_26\n      swap2\n      swap1\n      tag_27\n      jump\t// in\n    tag_26:\n      mload(0x40)\n      dup1\n      swap2\n      sub\n      swap1\n      return\n        /* \"3w/042Call.sol\":107:120  uint public x */\n    tag_14:\n      sload(0x01)\n      dup2\n      jump\t// out\n        /* \"3w/042Call.sol\":327:488  function foo(string memory _message, uint256 _x) public payable returns(bool,uint){... */\n    tag_20:\n        /* \"3w/042Call.sol\":399:403  bool */\n      0x00\n        /* \"3w/042Call.sol\":404:408  uint */\n      dup1\n        /* \"3w/042Call.sol\":429:437  _message */\n      dup4\n        /* \"3w/042Call.sol\":419:426  message */\n      0x00\n        /* \"3w/042Call.sol\":419:437  message = _message */\n      swap1\n      dup2\n      tag_29\n      swap2\n      swap1\n      tag_30\n      jump\t// in\n    tag_29:\n      pop\n        /* \"3w/042Call.sol\":450:452  _x */\n      dup3\n        /* \"3w/042Call.sol\":447:448  x */\n      0x01\n        /* \"3w/042Call.sol\":447:452  x= _x */\n      dup2\n      swap1\n      sstore\n      pop\n        /* \"3w/042Call.sol\":470:474  true */\n      0x01\n        /* \"3w/042Call.sol\":476:480  9999 */\n      0x270f\n        /* \"3w/042Call.sol\":462:481  return (true, 9999) */\n      swap2\n      pop\n      swap2\n      pop\n        /* \"3w/042Call.sol\":327:488  function foo(string memory _message, uint256 _x) public payable returns(bool,uint){... */\n      swap3\n      pop\n      swap3\n      swap1\n      pop\n      jump\t// out\n        /* \"3w/042Call.sol\":80:101  string public message */\n    tag_25:\n      0x00\n      dup1\n      sload\n      tag_31\n      swap1\n      tag_32\n      jump\t// in\n    tag_31:\n      dup1\n      0x1f\n      add\n      0x20\n      dup1\n      swap2\n      div\n      mul\n      0x20\n      add\n      mload(0x40)\n      swap1\n      dup2\n      add\n      0x40\n      mstore\n      dup1\n      swap3\n      swap2\n      swap1\n      dup2\n      dup2\n      mstore\n      0x20\n      add\n      dup3\n      dup1\n      sload\n      tag_33\n      swap1\n      tag_32\n      jump\t// in\n    tag_33:\n      dup1\n      iszero\n      tag_34\n      jumpi\n      dup1\n      0x1f\n      lt\n      tag_35\n      jumpi\n      0x0100\n      dup1\n      dup4\n      sload\n      div\n      mul\n      dup4\n      mstore\n      swap2\n      0x20\n      add\n      swap2\n      jump(tag_34)\n    tag_35:\n      dup3\n      add\n      swap2\n      swap1\n      0x00\n      mstore\n      keccak256(0x00, 0x20)\n      swap1\n    tag_36:\n      dup2\n      sload\n      dup2\n      mstore\n      swap1\n      0x01\n      add\n      swap1\n      0x20\n      add\n      dup1\n      dup4\n      gt\n      tag_36\n      jumpi\n      dup3\n      swap1\n      sub\n      0x1f\n      and\n      dup3\n      add\n      swap2\n    tag_34:\n      pop\n      pop\n      pop\n      pop\n      pop\n      dup2\n      jump\t// out\n        /* \"#utility.yul\":7:133   */\n    tag_37:\n        /* \"#utility.yul\":44:51   */\n      0x00\n        /* \"#utility.yul\":84:126   */\n      0xffffffffffffffffffffffffffffffffffffffff\n        /* \"#utility.yul\":77:82   */\n      dup3\n        /* \"#utility.yul\":73:127   */\n      and\n        /* \"#utility.yul\":62:127   */\n      swap1\n      pop\n        /* \"#utility.yul\":7:133   */\n      swap2\n      swap1\n      pop\n      jump\t// out\n        /* \"#utility.yul\":139:235   */\n    tag_38:\n        /* \"#utility.yul\":176:183   */\n      0x00\n        /* \"#utility.yul\":205:229   */\n      tag_84\n        /* \"#utility.yul\":223:228   */\n      dup3\n        /* \"#utility.yul\":205:229   */\n      tag_37\n      jump\t// in\n    tag_84:\n        /* \"#utility.yul\":194:229   */\n      swap1\n      pop\n        /* \"#utility.yul\":139:235   */\n      swap2\n      swap1\n      pop\n      jump\t// out\n        /* \"#utility.yul\":241:359   */\n    tag_39:\n        /* \"#utility.yul\":328:352   */\n      tag_86\n        /* \"#utility.yul\":346:351   */\n      dup2\n        /* \"#utility.yul\":328:352   */\n      tag_38\n      jump\t// in\n    tag_86:\n        /* \"#utility.yul\":323:326   */\n      dup3\n        /* \"#utility.yul\":316:353   */\n      mstore\n        /* \"#utility.yul\":241:359   */\n      pop\n      pop\n      jump\t// out\n        /* \"#utility.yul\":365:442   */\n    tag_40:\n        /* \"#utility.yul\":402:409   */\n      0x00\n        /* \"#utility.yul\":431:436   */\n      dup2\n        /* \"#utility.yul\":420:436   */\n      swap1\n      pop\n        /* \"#utility.yul\":365:442   */\n      swap2\n      swap1\n      pop\n      jump\t// out\n        /* \"#utility.yul\":448:566   */\n    tag_41:\n        /* \"#utility.yul\":535:559   */\n      tag_89\n        /* \"#utility.yul\":553:558   */\n      dup2\n        /* \"#utility.yul\":535:559   */\n      tag_40\n      jump\t// in\n    tag_89:\n        /* \"#utility.yul\":530:533   */\n      dup3\n        /* \"#utility.yul\":523:560   */\n      mstore\n        /* \"#utility.yul\":448:566   */\n      pop\n      pop\n      jump\t// out\n        /* \"#utility.yul\":572:741   */\n    tag_42:\n        /* \"#utility.yul\":656:667   */\n      0x00\n        /* \"#utility.yul\":690:696   */\n      dup3\n        /* \"#utility.yul\":685:688   */\n      dup3\n        /* \"#utility.yul\":678:697   */\n      mstore\n        /* \"#utility.yul\":730:734   */\n      0x20\n        /* \"#utility.yul\":725:728   */\n      dup3\n        /* \"#utility.yul\":721:735   */\n      add\n        /* \"#utility.yul\":706:735   */\n      swap1\n      pop\n        /* \"#utility.yul\":572:741   */\n      swap3\n      swap2\n      pop\n      pop\n      jump\t// out\n        /* \"#utility.yul\":747:916   */\n    tag_43:\n        /* \"#utility.yul\":887:908   */\n      0x66616c6c6261636b207761732063616c6c656400000000000000000000000000\n        /* \"#utility.yul\":883:884   */\n      0x00\n        /* \"#utility.yul\":875:881   */\n      dup3\n        /* \"#utility.yul\":871:885   */\n      add\n        /* \"#utility.yul\":864:909   */\n      mstore\n        /* \"#utility.yul\":747:916   */\n      pop\n      jump\t// out\n        /* \"#utility.yul\":922:1288   */\n    tag_44:\n        /* \"#utility.yul\":1064:1067   */\n      0x00\n        /* \"#utility.yul\":1085:1152   */\n      tag_93\n        /* \"#utility.yul\":1149:1151   */\n      0x13\n        /* \"#utility.yul\":1144:1147   */\n      dup4\n        /* \"#utility.yul\":1085:1152   */\n      tag_42\n      jump\t// in\n    tag_93:\n        /* \"#utility.yul\":1078:1152   */\n      swap2\n      pop\n        /* \"#utility.yul\":1161:1254   */\n      tag_94\n        /* \"#utility.yul\":1250:1253   */\n      dup3\n        /* \"#utility.yul\":1161:1254   */\n      tag_43\n      jump\t// in\n    tag_94:\n        /* \"#utility.yul\":1279:1281   */\n      0x20\n        /* \"#utility.yul\":1274:1277   */\n      dup3\n        /* \"#utility.yul\":1270:1282   */\n      add\n        /* \"#utility.yul\":1263:1282   */\n      swap1\n      pop\n        /* \"#utility.yul\":922:1288   */\n      swap2\n      swap1\n      pop\n      jump\t// out\n        /* \"#utility.yul\":1294:1933   */\n    tag_11:\n        /* \"#utility.yul\":1516:1520   */\n      0x00\n        /* \"#utility.yul\":1554:1556   */\n      0x60\n        /* \"#utility.yul\":1543:1552   */\n      dup3\n        /* \"#utility.yul\":1539:1557   */\n      add\n        /* \"#utility.yul\":1531:1557   */\n      swap1\n      pop\n        /* \"#utility.yul\":1567:1638   */\n      tag_96\n        /* \"#utility.yul\":1635:1636   */\n      0x00\n        /* \"#utility.yul\":1624:1633   */\n      dup4\n        /* \"#utility.yul\":1620:1637   */\n      add\n        /* \"#utility.yul\":1611:1617   */\n      dup6\n        /* \"#utility.yul\":1567:1638   */\n      tag_39\n      jump\t// in\n    tag_96:\n        /* \"#utility.yul\":1648:1720   */\n      tag_97\n        /* \"#utility.yul\":1716:1718   */\n      0x20\n        /* \"#utility.yul\":1705:1714   */\n      dup4\n        /* \"#utility.yul\":1701:1719   */\n      add\n        /* \"#utility.yul\":1692:1698   */\n      dup5\n        /* \"#utility.yul\":1648:1720   */\n      tag_41\n      jump\t// in\n    tag_97:\n        /* \"#utility.yul\":1767:1776   */\n      dup2\n        /* \"#utility.yul\":1761:1765   */\n      dup2\n        /* \"#utility.yul\":1757:1777   */\n      sub\n        /* \"#utility.yul\":1752:1754   */\n      0x40\n        /* \"#utility.yul\":1741:1750   */\n      dup4\n        /* \"#utility.yul\":1737:1755   */\n      add\n        /* \"#utility.yul\":1730:1778   */\n      mstore\n        /* \"#utility.yul\":1795:1926   */\n      tag_98\n        /* \"#utility.yul\":1921:1925   */\n      dup2\n        /* \"#utility.yul\":1795:1926   */\n      tag_44\n      jump\t// in\n    tag_98:\n        /* \"#utility.yul\":1787:1926   */\n      swap1\n      pop\n        /* \"#utility.yul\":1294:1933   */\n      swap4\n      swap3\n      pop\n      pop\n      pop\n      jump\t// out\n        /* \"#utility.yul\":1939:2161   */\n    tag_16:\n        /* \"#utility.yul\":2032:2036   */\n      0x00\n        /* \"#utility.yul\":2070:2072   */\n      0x20\n        /* \"#utility.yul\":2059:2068   */\n      dup3\n        /* \"#utility.yul\":2055:2073   */\n      add\n        /* \"#utility.yul\":2047:2073   */\n      swap1\n      pop\n        /* \"#utility.yul\":2083:2154   */\n      tag_100\n        /* \"#utility.yul\":2151:2152   */\n      0x00\n        /* \"#utility.yul\":2140:2149   */\n      dup4\n        /* \"#utility.yul\":2136:2153   */\n      add\n        /* \"#utility.yul\":2127:2133   */\n      dup5\n        /* \"#utility.yul\":2083:2154   */\n      tag_41\n      jump\t// in\n    tag_100:\n        /* \"#utility.yul\":1939:2161   */\n      swap3\n      swap2\n      pop\n      pop\n      jump\t// out\n        /* \"#utility.yul\":2167:2242   */\n    tag_45:\n        /* \"#utility.yul\":2200:2206   */\n      0x00\n        /* \"#utility.yul\":2233:2235   */\n      0x40\n        /* \"#utility.yul\":2227:2236   */\n      mload\n        /* \"#utility.yul\":2217:2236   */\n      swap1\n      pop\n        /* \"#utility.yul\":2167:2242   */\n      swap1\n      jump\t// out\n        /* \"#utility.yul\":2248:2365   */\n    tag_46:\n        /* \"#utility.yul\":2357:2358   */\n      0x00\n        /* \"#utility.yul\":2354:2355   */\n      dup1\n        /* \"#utility.yul\":2347:2359   */\n      revert\n        /* \"#utility.yul\":2371:2488   */\n    tag_47:\n        /* \"#utility.yul\":2480:2481   */\n      0x00\n        /* \"#utility.yul\":2477:2478   */\n      dup1\n        /* \"#utility.yul\":2470:2482   */\n      revert\n        /* \"#utility.yul\":2494:2611   */\n    tag_48:\n        /* \"#utility.yul\":2603:2604   */\n      0x00\n        /* \"#utility.yul\":2600:2601   */\n      dup1\n        /* \"#utility.yul\":2593:2605   */\n      revert\n        /* \"#utility.yul\":2617:2734   */\n    tag_49:\n        /* \"#utility.yul\":2726:2727   */\n      0x00\n        /* \"#utility.yul\":2723:2724   */\n      dup1\n        /* \"#utility.yul\":2716:2728   */\n      revert\n        /* \"#utility.yul\":2740:2842   */\n    tag_50:\n        /* \"#utility.yul\":2781:2787   */\n      0x00\n        /* \"#utility.yul\":2832:2834   */\n      0x1f\n        /* \"#utility.yul\":2828:2835   */\n      not\n        /* \"#utility.yul\":2823:2825   */\n      0x1f\n        /* \"#utility.yul\":2816:2821   */\n      dup4\n        /* \"#utility.yul\":2812:2826   */\n      add\n        /* \"#utility.yul\":2808:2836   */\n      and\n        /* \"#utility.yul\":2798:2836   */\n      swap1\n      pop\n        /* \"#utility.yul\":2740:2842   */\n      swap2\n      swap1\n      pop\n      jump\t// out\n        /* \"#utility.yul\":2848:3028   */\n    tag_51:\n        /* \"#utility.yul\":2896:2973   */\n      0x4e487b7100000000000000000000000000000000000000000000000000000000\n        /* \"#utility.yul\":2893:2894   */\n      0x00\n        /* \"#utility.yul\":2886:2974   */\n      mstore\n        /* \"#utility.yul\":2993:2997   */\n      0x41\n        /* \"#utility.yul\":2990:2991   */\n      0x04\n        /* \"#utility.yul\":2983:2998   */\n      mstore\n        /* \"#utility.yul\":3017:3021   */\n      0x24\n        /* \"#utility.yul\":3014:3015   */\n      0x00\n        /* \"#utility.yul\":3007:3022   */\n      revert\n        /* \"#utility.yul\":3034:3315   */\n    tag_52:\n        /* \"#utility.yul\":3117:3144   */\n      tag_109\n        /* \"#utility.yul\":3139:3143   */\n      dup3\n        /* \"#utility.yul\":3117:3144   */\n      tag_50\n      jump\t// in\n    tag_109:\n        /* \"#utility.yul\":3109:3115   */\n      dup2\n        /* \"#utility.yul\":3105:3145   */\n      add\n        /* \"#utility.yul\":3247:3253   */\n      dup2\n        /* \"#utility.yul\":3235:3245   */\n      dup2\n        /* \"#utility.yul\":3232:3254   */\n      lt\n        /* \"#utility.yul\":3211:3229   */\n      0xffffffffffffffff\n        /* \"#utility.yul\":3199:3209   */\n      dup3\n        /* \"#utility.yul\":3196:3230   */\n      gt\n        /* \"#utility.yul\":3193:3255   */\n      or\n        /* \"#utility.yul\":3190:3278   */\n      iszero\n      tag_110\n      jumpi\n        /* \"#utility.yul\":3258:3276   */\n      tag_111\n      tag_51\n      jump\t// in\n    tag_111:\n        /* \"#utility.yul\":3190:3278   */\n    tag_110:\n        /* \"#utility.yul\":3298:3308   */\n      dup1\n        /* \"#utility.yul\":3294:3296   */\n      0x40\n        /* \"#utility.yul\":3287:3309   */\n      mstore\n        /* \"#utility.yul\":3077:3315   */\n      pop\n        /* \"#utility.yul\":3034:3315   */\n      pop\n      pop\n      jump\t// out\n        /* \"#utility.yul\":3321:3450   */\n    tag_53:\n        /* \"#utility.yul\":3355:3361   */\n      0x00\n        /* \"#utility.yul\":3382:3402   */\n      tag_113\n      tag_45\n      jump\t// in\n    tag_113:\n        /* \"#utility.yul\":3372:3402   */\n      swap1\n      pop\n        /* \"#utility.yul\":3411:3444   */\n      tag_114\n        /* \"#utility.yul\":3439:3443   */\n      dup3\n        /* \"#utility.yul\":3431:3437   */\n      dup3\n        /* \"#utility.yul\":3411:3444   */\n      tag_52\n      jump\t// in\n    tag_114:\n        /* \"#utility.yul\":3321:3450   */\n      swap2\n      swap1\n      pop\n      jump\t// out\n        /* \"#utility.yul\":3456:3764   */\n    tag_54:\n        /* \"#utility.yul\":3518:3522   */\n      0x00\n        /* \"#utility.yul\":3608:3626   */\n      0xffffffffffffffff\n        /* \"#utility.yul\":3600:3606   */\n      dup3\n        /* \"#utility.yul\":3597:3627   */\n      gt\n        /* \"#utility.yul\":3594:3650   */\n      iszero\n      tag_116\n      jumpi\n        /* \"#utility.yul\":3630:3648   */\n      tag_117\n      tag_51\n      jump\t// in\n    tag_117:\n        /* \"#utility.yul\":3594:3650   */\n    tag_116:\n        /* \"#utility.yul\":3668:3697   */\n      tag_118\n        /* \"#utility.yul\":3690:3696   */\n      dup3\n        /* \"#utility.yul\":3668:3697   */\n      tag_50\n      jump\t// in\n    tag_118:\n        /* \"#utility.yul\":3660:3697   */\n      swap1\n      pop\n        /* \"#utility.yul\":3752:3756   */\n      0x20\n        /* \"#utility.yul\":3746:3750   */\n      dup2\n        /* \"#utility.yul\":3742:3757   */\n      add\n        /* \"#utility.yul\":3734:3757   */\n      swap1\n      pop\n        /* \"#utility.yul\":3456:3764   */\n      swap2\n      swap1\n      pop\n      jump\t// out\n        /* \"#utility.yul\":3770:3918   */\n    tag_55:\n        /* \"#utility.yul\":3868:3874   */\n      dup3\n        /* \"#utility.yul\":3863:3866   */\n      dup2\n        /* \"#utility.yul\":3858:3861   */\n      dup4\n        /* \"#utility.yul\":3845:3875   */\n      calldatacopy\n        /* \"#utility.yul\":3909:3910   */\n      0x00\n        /* \"#utility.yul\":3900:3906   */\n      dup4\n        /* \"#utility.yul\":3895:3898   */\n      dup4\n        /* \"#utility.yul\":3891:3907   */\n      add\n        /* \"#utility.yul\":3884:3911   */\n      mstore\n        /* \"#utility.yul\":3770:3918   */\n      pop\n      pop\n      pop\n      jump\t// out\n        /* \"#utility.yul\":3924:4349   */\n    tag_56:\n        /* \"#utility.yul\":4002:4007   */\n      0x00\n        /* \"#utility.yul\":4027:4093   */\n      tag_121\n        /* \"#utility.yul\":4043:4092   */\n      tag_122\n        /* \"#utility.yul\":4085:4091   */\n      dup5\n        /* \"#utility.yul\":4043:4092   */\n      tag_54\n      jump\t// in\n    tag_122:\n        /* \"#utility.yul\":4027:4093   */\n      tag_53\n      jump\t// in\n    tag_121:\n        /* \"#utility.yul\":4018:4093   */\n      swap1\n      pop\n        /* \"#utility.yul\":4116:4122   */\n      dup3\n        /* \"#utility.yul\":4109:4114   */\n      dup2\n        /* \"#utility.yul\":4102:4123   */\n      mstore\n        /* \"#utility.yul\":4154:4158   */\n      0x20\n        /* \"#utility.yul\":4147:4152   */\n      dup2\n        /* \"#utility.yul\":4143:4159   */\n      add\n        /* \"#utility.yul\":4192:4195   */\n      dup5\n        /* \"#utility.yul\":4183:4189   */\n      dup5\n        /* \"#utility.yul\":4178:4181   */\n      dup5\n        /* \"#utility.yul\":4174:4190   */\n      add\n        /* \"#utility.yul\":4171:4196   */\n      gt\n        /* \"#utility.yul\":4168:4280   */\n      iszero\n      tag_123\n      jumpi\n        /* \"#utility.yul\":4199:4278   */\n      tag_124\n      tag_49\n      jump\t// in\n    tag_124:\n        /* \"#utility.yul\":4168:4280   */\n    tag_123:\n        /* \"#utility.yul\":4289:4343   */\n      tag_125\n        /* \"#utility.yul\":4336:4342   */\n      dup5\n        /* \"#utility.yul\":4331:4334   */\n      dup3\n        /* \"#utility.yul\":4326:4329   */\n      dup6\n        /* \"#utility.yul\":4289:4343   */\n      tag_55\n      jump\t// in\n    tag_125:\n        /* \"#utility.yul\":4008:4349   */\n      pop\n        /* \"#utility.yul\":3924:4349   */\n      swap4\n      swap3\n      pop\n      pop\n      pop\n      jump\t// out\n        /* \"#utility.yul\":4369:4709   */\n    tag_57:\n        /* \"#utility.yul\":4425:4430   */\n      0x00\n        /* \"#utility.yul\":4474:4477   */\n      dup3\n        /* \"#utility.yul\":4467:4471   */\n      0x1f\n        /* \"#utility.yul\":4459:4465   */\n      dup4\n        /* \"#utility.yul\":4455:4472   */\n      add\n        /* \"#utility.yul\":4451:4478   */\n      slt\n        /* \"#utility.yul\":4441:4563   */\n      tag_127\n      jumpi\n        /* \"#utility.yul\":4482:4561   */\n      tag_128\n      tag_48\n      jump\t// in\n    tag_128:\n        /* \"#utility.yul\":4441:4563   */\n    tag_127:\n        /* \"#utility.yul\":4599:4605   */\n      dup2\n        /* \"#utility.yul\":4586:4606   */\n      calldataload\n        /* \"#utility.yul\":4624:4703   */\n      tag_129\n        /* \"#utility.yul\":4699:4702   */\n      dup5\n        /* \"#utility.yul\":4691:4697   */\n      dup3\n        /* \"#utility.yul\":4684:4688   */\n      0x20\n        /* \"#utility.yul\":4676:4682   */\n      dup7\n        /* \"#utility.yul\":4672:4689   */\n      add\n        /* \"#utility.yul\":4624:4703   */\n      tag_56\n      jump\t// in\n    tag_129:\n        /* \"#utility.yul\":4615:4703   */\n      swap2\n      pop\n        /* \"#utility.yul\":4431:4709   */\n      pop\n        /* \"#utility.yul\":4369:4709   */\n      swap3\n      swap2\n      pop\n      pop\n      jump\t// out\n        /* \"#utility.yul\":4715:4837   */\n    tag_58:\n        /* \"#utility.yul\":4788:4812   */\n      tag_131\n        /* \"#utility.yul\":4806:4811   */\n      dup2\n        /* \"#utility.yul\":4788:4812   */\n      tag_40\n      jump\t// in\n    tag_131:\n        /* \"#utility.yul\":4781:4786   */\n      dup2\n        /* \"#utility.yul\":4778:4813   */\n      eq\n        /* \"#utility.yul\":4768:4831   */\n      tag_132\n      jumpi\n        /* \"#utility.yul\":4827:4828   */\n      0x00\n        /* \"#utility.yul\":4824:4825   */\n      dup1\n        /* \"#utility.yul\":4817:4829   */\n      revert\n        /* \"#utility.yul\":4768:4831   */\n    tag_132:\n        /* \"#utility.yul\":4715:4837   */\n      pop\n      jump\t// out\n        /* \"#utility.yul\":4843:4982   */\n    tag_59:\n        /* \"#utility.yul\":4889:4894   */\n      0x00\n        /* \"#utility.yul\":4927:4933   */\n      dup2\n        /* \"#utility.yul\":4914:4934   */\n      calldataload\n        /* \"#utility.yul\":4905:4934   */\n      swap1\n      pop\n        /* \"#utility.yul\":4943:4976   */\n      tag_134\n        /* \"#utility.yul\":4970:4975   */\n      dup2\n        /* \"#utility.yul\":4943:4976   */\n      tag_58\n      jump\t// in\n    tag_134:\n        /* \"#utility.yul\":4843:4982   */\n      swap3\n      swap2\n      pop\n      pop\n      jump\t// out\n        /* \"#utility.yul\":4988:5642   */\n    tag_19:\n        /* \"#utility.yul\":5066:5072   */\n      0x00\n        /* \"#utility.yul\":5074:5080   */\n      dup1\n        /* \"#utility.yul\":5123:5125   */\n      0x40\n        /* \"#utility.yul\":5111:5120   */\n      dup4\n        /* \"#utility.yul\":5102:5109   */\n      dup6\n        /* \"#utility.yul\":5098:5121   */\n      sub\n        /* \"#utility.yul\":5094:5126   */\n      slt\n        /* \"#utility.yul\":5091:5210   */\n      iszero\n      tag_136\n      jumpi\n        /* \"#utility.yul\":5129:5208   */\n      tag_137\n      tag_46\n      jump\t// in\n    tag_137:\n        /* \"#utility.yul\":5091:5210   */\n    tag_136:\n        /* \"#utility.yul\":5277:5278   */\n      0x00\n        /* \"#utility.yul\":5266:5275   */\n      dup4\n        /* \"#utility.yul\":5262:5279   */\n      add\n        /* \"#utility.yul\":5249:5280   */\n      calldataload\n        /* \"#utility.yul\":5307:5325   */\n      0xffffffffffffffff\n        /* \"#utility.yul\":5299:5305   */\n      dup2\n        /* \"#utility.yul\":5296:5326   */\n      gt\n        /* \"#utility.yul\":5293:5410   */\n      iszero\n      tag_138\n      jumpi\n        /* \"#utility.yul\":5329:5408   */\n      tag_139\n      tag_47\n      jump\t// in\n    tag_139:\n        /* \"#utility.yul\":5293:5410   */\n    tag_138:\n        /* \"#utility.yul\":5434:5497   */\n      tag_140\n        /* \"#utility.yul\":5489:5496   */\n      dup6\n        /* \"#utility.yul\":5480:5486   */\n      dup3\n        /* \"#utility.yul\":5469:5478   */\n      dup7\n        /* \"#utility.yul\":5465:5487   */\n      add\n        /* \"#utility.yul\":5434:5497   */\n      tag_57\n      jump\t// in\n    tag_140:\n        /* \"#utility.yul\":5424:5497   */\n      swap3\n      pop\n        /* \"#utility.yul\":5220:5507   */\n      pop\n        /* \"#utility.yul\":5546:5548   */\n      0x20\n        /* \"#utility.yul\":5572:5625   */\n      tag_141\n        /* \"#utility.yul\":5617:5624   */\n      dup6\n        /* \"#utility.yul\":5608:5614   */\n      dup3\n        /* \"#utility.yul\":5597:5606   */\n      dup7\n        /* \"#utility.yul\":5593:5615   */\n      add\n        /* \"#utility.yul\":5572:5625   */\n      tag_59\n      jump\t// in\n    tag_141:\n        /* \"#utility.yul\":5562:5625   */\n      swap2\n      pop\n        /* \"#utility.yul\":5517:5635   */\n      pop\n        /* \"#utility.yul\":4988:5642   */\n      swap3\n      pop\n      swap3\n      swap1\n      pop\n      jump\t// out\n        /* \"#utility.yul\":5648:5738   */\n    tag_60:\n        /* \"#utility.yul\":5682:5689   */\n      0x00\n        /* \"#utility.yul\":5725:5730   */\n      dup2\n        /* \"#utility.yul\":5718:5731   */\n      iszero\n        /* \"#utility.yul\":5711:5732   */\n      iszero\n        /* \"#utility.yul\":5700:5732   */\n      swap1\n      pop\n        /* \"#utility.yul\":5648:5738   */\n      swap2\n      swap1\n      pop\n      jump\t// out\n        /* \"#utility.yul\":5744:5853   */\n    tag_61:\n        /* \"#utility.yul\":5825:5846   */\n      tag_144\n        /* \"#utility.yul\":5840:5845   */\n      dup2\n        /* \"#utility.yul\":5825:5846   */\n      tag_60\n      jump\t// in\n    tag_144:\n        /* \"#utility.yul\":5820:5823   */\n      dup3\n        /* \"#utility.yul\":5813:5847   */\n      mstore\n        /* \"#utility.yul\":5744:5853   */\n      pop\n      pop\n      jump\t// out\n        /* \"#utility.yul\":5859:6179   */\n    tag_22:\n        /* \"#utility.yul\":5974:5978   */\n      0x00\n        /* \"#utility.yul\":6012:6014   */\n      0x40\n        /* \"#utility.yul\":6001:6010   */\n      dup3\n        /* \"#utility.yul\":5997:6015   */\n      add\n        /* \"#utility.yul\":5989:6015   */\n      swap1\n      pop\n        /* \"#utility.yul\":6025:6090   */\n      tag_146\n        /* \"#utility.yul\":6087:6088   */\n      0x00\n        /* \"#utility.yul\":6076:6085   */\n      dup4\n        /* \"#utility.yul\":6072:6089   */\n      add\n        /* \"#utility.yul\":6063:6069   */\n      dup6\n        /* \"#utility.yul\":6025:6090   */\n      tag_61\n      jump\t// in\n    tag_146:\n        /* \"#utility.yul\":6100:6172   */\n      tag_147\n        /* \"#utility.yul\":6168:6170   */\n      0x20\n        /* \"#utility.yul\":6157:6166   */\n      dup4\n        /* \"#utility.yul\":6153:6171   */\n      add\n        /* \"#utility.yul\":6144:6150   */\n      dup5\n        /* \"#utility.yul\":6100:6172   */\n      tag_41\n      jump\t// in\n    tag_147:\n        /* \"#utility.yul\":5859:6179   */\n      swap4\n      swap3\n      pop\n      pop\n      pop\n      jump\t// out\n        /* \"#utility.yul\":6185:6284   */\n    tag_62:\n        /* \"#utility.yul\":6237:6243   */\n      0x00\n        /* \"#utility.yul\":6271:6276   */\n      dup2\n        /* \"#utility.yul\":6265:6277   */\n      mload\n        /* \"#utility.yul\":6255:6277   */\n      swap1\n      pop\n        /* \"#utility.yul\":6185:6284   */\n      swap2\n      swap1\n      pop\n      jump\t// out\n        /* \"#utility.yul\":6290:6429   */\n    tag_63:\n        /* \"#utility.yul\":6379:6385   */\n      dup3\n        /* \"#utility.yul\":6374:6377   */\n      dup2\n        /* \"#utility.yul\":6369:6372   */\n      dup4\n        /* \"#utility.yul\":6363:6386   */\n      mcopy\n        /* \"#utility.yul\":6420:6421   */\n      0x00\n        /* \"#utility.yul\":6411:6417   */\n      dup4\n        /* \"#utility.yul\":6406:6409   */\n      dup4\n        /* \"#utility.yul\":6402:6418   */\n      add\n        /* \"#utility.yul\":6395:6422   */\n      mstore\n        /* \"#utility.yul\":6290:6429   */\n      pop\n      pop\n      pop\n      jump\t// out\n        /* \"#utility.yul\":6435:6812   */\n    tag_64:\n        /* \"#utility.yul\":6523:6526   */\n      0x00\n        /* \"#utility.yul\":6551:6590   */\n      tag_151\n        /* \"#utility.yul\":6584:6589   */\n      dup3\n        /* \"#utility.yul\":6551:6590   */\n      tag_62\n      jump\t// in\n    tag_151:\n        /* \"#utility.yul\":6606:6677   */\n      tag_152\n        /* \"#utility.yul\":6670:6676   */\n      dup2\n        /* \"#utility.yul\":6665:6668   */\n      dup6\n        /* \"#utility.yul\":6606:6677   */\n      tag_42\n      jump\t// in\n    tag_152:\n        /* \"#utility.yul\":6599:6677   */\n      swap4\n      pop\n        /* \"#utility.yul\":6686:6751   */\n      tag_153\n        /* \"#utility.yul\":6744:6750   */\n      dup2\n        /* \"#utility.yul\":6739:6742   */\n      dup6\n        /* \"#utility.yul\":6732:6736   */\n      0x20\n        /* \"#utility.yul\":6725:6730   */\n      dup7\n        /* \"#utility.yul\":6721:6737   */\n      add\n        /* \"#utility.yul\":6686:6751   */\n      tag_63\n      jump\t// in\n    tag_153:\n        /* \"#utility.yul\":6776:6805   */\n      tag_154\n        /* \"#utility.yul\":6798:6804   */\n      dup2\n        /* \"#utility.yul\":6776:6805   */\n      tag_50\n      jump\t// in\n    tag_154:\n        /* \"#utility.yul\":6771:6774   */\n      dup5\n        /* \"#utility.yul\":6767:6806   */\n      add\n        /* \"#utility.yul\":6760:6806   */\n      swap2\n      pop\n        /* \"#utility.yul\":6527:6812   */\n      pop\n        /* \"#utility.yul\":6435:6812   */\n      swap3\n      swap2\n      pop\n      pop\n      jump\t// out\n        /* \"#utility.yul\":6818:7131   */\n    tag_27:\n        /* \"#utility.yul\":6931:6935   */\n      0x00\n        /* \"#utility.yul\":6969:6971   */\n      0x20\n        /* \"#utility.yul\":6958:6967   */\n      dup3\n        /* \"#utility.yul\":6954:6972   */\n      add\n        /* \"#utility.yul\":6946:6972   */\n      swap1\n      pop\n        /* \"#utility.yul\":7018:7027   */\n      dup2\n        /* \"#utility.yul\":7012:7016   */\n      dup2\n        /* \"#utility.yul\":7008:7028   */\n      sub\n        /* \"#utility.yul\":7004:7005   */\n      0x00\n        /* \"#utility.yul\":6993:7002   */\n      dup4\n        /* \"#utility.yul\":6989:7006   */\n      add\n        /* \"#utility.yul\":6982:7029   */\n      mstore\n        /* \"#utility.yul\":7046:7124   */\n      tag_156\n        /* \"#utility.yul\":7119:7123   */\n      dup2\n        /* \"#utility.yul\":7110:7116   */\n      dup5\n        /* \"#utility.yul\":7046:7124   */\n      tag_64\n      jump\t// in\n    tag_156:\n        /* \"#utility.yul\":7038:7124   */\n      swap1\n      pop\n        /* \"#utility.yul\":6818:7131   */\n      swap3\n      swap2\n      pop\n      pop\n      jump\t// out\n        /* \"#utility.yul\":7137:7317   */\n    tag_65:\n        /* \"#utility.yul\":7185:7262   */\n      0x4e487b7100000000000000000000000000000000000000000000000000000000\n        /* \"#utility.yul\":7182:7183   */\n      0x00\n        /* \"#utility.yul\":7175:7263   */\n      mstore\n        /* \"#utility.yul\":7282:7286   */\n      0x22\n        /* \"#utility.yul\":7279:7280   */\n      0x04\n        /* \"#utility.yul\":7272:7287   */\n      mstore\n        /* \"#utility.yul\":7306:7310   */\n      0x24\n        /* \"#utility.yul\":7303:7304   */\n      0x00\n        /* \"#utility.yul\":7296:7311   */\n      revert\n        /* \"#utility.yul\":7323:7643   */\n    tag_32:\n        /* \"#utility.yul\":7367:7373   */\n      0x00\n        /* \"#utility.yul\":7404:7405   */\n      0x02\n        /* \"#utility.yul\":7398:7402   */\n      dup3\n        /* \"#utility.yul\":7394:7406   */\n      div\n        /* \"#utility.yul\":7384:7406   */\n      swap1\n      pop\n        /* \"#utility.yul\":7451:7452   */\n      0x01\n        /* \"#utility.yul\":7445:7449   */\n      dup3\n        /* \"#utility.yul\":7441:7453   */\n      and\n        /* \"#utility.yul\":7472:7490   */\n      dup1\n        /* \"#utility.yul\":7462:7543   */\n      tag_159\n      jumpi\n        /* \"#utility.yul\":7528:7532   */\n      0x7f\n        /* \"#utility.yul\":7520:7526   */\n      dup3\n        /* \"#utility.yul\":7516:7533   */\n      and\n        /* \"#utility.yul\":7506:7533   */\n      swap2\n      pop\n        /* \"#utility.yul\":7462:7543   */\n    tag_159:\n        /* \"#utility.yul\":7590:7592   */\n      0x20\n        /* \"#utility.yul\":7582:7588   */\n      dup3\n        /* \"#utility.yul\":7579:7593   */\n      lt\n        /* \"#utility.yul\":7559:7577   */\n      dup2\n        /* \"#utility.yul\":7556:7594   */\n      sub\n        /* \"#utility.yul\":7553:7637   */\n      tag_160\n      jumpi\n        /* \"#utility.yul\":7609:7627   */\n      tag_161\n      tag_65\n      jump\t// in\n    tag_161:\n        /* \"#utility.yul\":7553:7637   */\n    tag_160:\n        /* \"#utility.yul\":7374:7643   */\n      pop\n        /* \"#utility.yul\":7323:7643   */\n      swap2\n      swap1\n      pop\n      jump\t// out\n        /* \"#utility.yul\":7649:7790   */\n    tag_66:\n        /* \"#utility.yul\":7698:7702   */\n      0x00\n        /* \"#utility.yul\":7721:7724   */\n      dup2\n        /* \"#utility.yul\":7713:7724   */\n      swap1\n      pop\n        /* \"#utility.yul\":7744:7747   */\n      dup2\n        /* \"#utility.yul\":7741:7742   */\n      0x00\n        /* \"#utility.yul\":7734:7748   */\n      mstore\n        /* \"#utility.yul\":7778:7782   */\n      0x20\n        /* \"#utility.yul\":7775:7776   */\n      0x00\n        /* \"#utility.yul\":7765:7783   */\n      keccak256\n        /* \"#utility.yul\":7757:7783   */\n      swap1\n      pop\n        /* \"#utility.yul\":7649:7790   */\n      swap2\n      swap1\n      pop\n      jump\t// out\n        /* \"#utility.yul\":7796:7889   */\n    tag_67:\n        /* \"#utility.yul\":7833:7839   */\n      0x00\n        /* \"#utility.yul\":7880:7882   */\n      0x20\n        /* \"#utility.yul\":7875:7877   */\n      0x1f\n        /* \"#utility.yul\":7868:7873   */\n      dup4\n        /* \"#utility.yul\":7864:7878   */\n      add\n        /* \"#utility.yul\":7860:7883   */\n      div\n        /* \"#utility.yul\":7850:7883   */\n      swap1\n      pop\n        /* \"#utility.yul\":7796:7889   */\n      swap2\n      swap1\n      pop\n      jump\t// out\n        /* \"#utility.yul\":7895:8002   */\n    tag_68:\n        /* \"#utility.yul\":7939:7947   */\n      0x00\n        /* \"#utility.yul\":7989:7994   */\n      dup3\n        /* \"#utility.yul\":7983:7987   */\n      dup3\n        /* \"#utility.yul\":7979:7995   */\n      shl\n        /* \"#utility.yul\":7958:7995   */\n      swap1\n      pop\n        /* \"#utility.yul\":7895:8002   */\n      swap3\n      swap2\n      pop\n      pop\n      jump\t// out\n        /* \"#utility.yul\":8008:8401   */\n    tag_69:\n        /* \"#utility.yul\":8077:8083   */\n      0x00\n        /* \"#utility.yul\":8127:8128   */\n      0x08\n        /* \"#utility.yul\":8115:8125   */\n      dup4\n        /* \"#utility.yul\":8111:8129   */\n      mul\n        /* \"#utility.yul\":8150:8247   */\n      tag_166\n        /* \"#utility.yul\":8180:8246   */\n      0xffffffffffffffffffffffffffffffffffffffffffffffffffffffffffffffff\n        /* \"#utility.yul\":8169:8178   */\n      dup3\n        /* \"#utility.yul\":8150:8247   */\n      tag_68\n      jump\t// in\n    tag_166:\n        /* \"#utility.yul\":8268:8307   */\n      tag_167\n        /* \"#utility.yul\":8298:8306   */\n      dup7\n        /* \"#utility.yul\":8287:8296   */\n      dup4\n        /* \"#utility.yul\":8268:8307   */\n      tag_68\n      jump\t// in\n    tag_167:\n        /* \"#utility.yul\":8256:8307   */\n      swap6\n      pop\n        /* \"#utility.yul\":8340:8344   */\n      dup1\n        /* \"#utility.yul\":8336:8345   */\n      not\n        /* \"#utility.yul\":8329:8334   */\n      dup5\n        /* \"#utility.yul\":8325:8346   */\n      and\n        /* \"#utility.yul\":8316:8346   */\n      swap4\n      pop\n        /* \"#utility.yul\":8389:8393   */\n      dup1\n        /* \"#utility.yul\":8379:8387   */\n      dup7\n        /* \"#utility.yul\":8375:8394   */\n      and\n        /* \"#utility.yul\":8368:8373   */\n      dup5\n        /* \"#utility.yul\":8365:8395   */\n      or\n        /* \"#utility.yul\":8355:8395   */\n      swap3\n      pop\n        /* \"#utility.yul\":8084:8401   */\n      pop\n      pop\n        /* \"#utility.yul\":8008:8401   */\n      swap4\n      swap3\n      pop\n      pop\n      pop\n      jump\t// out\n        /* \"#utility.yul\":8407:8467   */\n    tag_70:\n        /* \"#utility.yul\":8435:8438   */\n      0x00\n        /* \"#utility.yul\":8456:8461   */\n      dup2\n        /* \"#utility.yul\":8449:8461   */\n      swap1\n      pop\n        /* \"#utility.yul\":8407:8467   */\n      swap2\n      swap1\n      pop\n      jump\t// out\n        /* \"#utility.yul\":8473:8615   */\n    tag_71:\n        /* \"#utility.yul\":8523:8532   */\n      0x00\n        /* \"#utility.yul\":8556:8609   */\n      tag_170\n        /* \"#utility.yul\":8574:8608   */\n      tag_171\n        /* \"#utility.yul\":8583:8607   */\n      tag_172\n        /* \"#utility.yul\":8601:8606   */\n      dup5\n        /* \"#utility.yul\":8583:8607   */\n      tag_40\n      jump\t// in\n    tag_172:\n        /* \"#utility.yul\":8574:8608   */\n      tag_70\n      jump\t// in\n    tag_171:\n        /* \"#utility.yul\":8556:8609   */\n      tag_40\n      jump\t// in\n    tag_170:\n        /* \"#utility.yul\":8543:8609   */\n      swap1\n      pop\n        /* \"#utility.yul\":8473:8615   */\n      swap2\n      swap1\n      pop\n      jump\t// out\n        /* \"#utility.yul\":8621:8696   */\n    tag_72:\n        /* \"#utility.yul\":8664:8667   */\n      0x00\n        /* \"#utility.yul\":8685:8690   */\n      dup2\n        /* \"#utility.yul\":8678:8690   */\n      swap1\n      pop\n        /* \"#utility.yul\":8621:8696   */\n      swap2\n      swap1\n      pop\n      jump\t// out\n        /* \"#utility.yul\":8702:8971   */\n    tag_73:\n        /* \"#utility.yul\":8812:8851   */\n      tag_175\n        /* \"#utility.yul\":8843:8850   */\n      dup4\n        /* \"#utility.yul\":8812:8851   */\n      tag_71\n      jump\t// in\n    tag_175:\n        /* \"#utility.yul\":8873:8964   */\n      tag_176\n        /* \"#utility.yul\":8922:8963   */\n      tag_177\n        /* \"#utility.yul\":8946:8962   */\n      dup3\n        /* \"#utility.yul\":8922:8963   */\n      tag_72\n      jump\t// in\n    tag_177:\n        /* \"#utility.yul\":8914:8920   */\n      dup5\n        /* \"#utility.yul\":8907:8911   */\n      dup5\n        /* \"#utility.yul\":8901:8912   */\n      sload\n        /* \"#utility.yul\":8873:8964   */\n      tag_69\n      jump\t// in\n    tag_176:\n        /* \"#utility.yul\":8867:8871   */\n      dup3\n        /* \"#utility.yul\":8860:8965   */\n      sstore\n        /* \"#utility.yul\":8778:8971   */\n      pop\n        /* \"#utility.yul\":8702:8971   */\n      pop\n      pop\n      pop\n      jump\t// out\n        /* \"#utility.yul\":8977:9050   */\n    tag_74:\n        /* \"#utility.yul\":9022:9025   */\n      0x00\n        /* \"#utility.yul\":8977:9050   */\n      swap1\n      jump\t// out\n        /* \"#utility.yul\":9056:9245   */\n    tag_75:\n        /* \"#utility.yul\":9133:9165   */\n      tag_180\n      tag_74\n      jump\t// in\n    tag_180:\n        /* \"#utility.yul\":9174:9239   */\n      tag_181\n        /* \"#utility.yul\":9232:9238   */\n      dup2\n        /* \"#utility.yul\":9224:9230   */\n      dup5\n        /* \"#utility.yul\":9218:9222   */\n      dup5\n        /* \"#utility.yul\":9174:9239   */\n      tag_73\n      jump\t// in\n    tag_181:\n        /* \"#utility.yul\":9109:9245   */\n      pop\n        /* \"#utility.yul\":9056:9245   */\n      pop\n      pop\n      jump\t// out\n        /* \"#utility.yul\":9251:9437   */\n    tag_76:\n        /* \"#utility.yul\":9311:9431   */\n    tag_183:\n        /* \"#utility.yul\":9328:9331   */\n      dup2\n        /* \"#utility.yul\":9321:9326   */\n      dup2\n        /* \"#utility.yul\":9318:9332   */\n      lt\n        /* \"#utility.yul\":9311:9431   */\n      iszero\n      tag_185\n      jumpi\n        /* \"#utility.yul\":9382:9421   */\n      tag_186\n        /* \"#utility.yul\":9419:9420   */\n      0x00\n        /* \"#utility.yul\":9412:9417   */\n      dup3\n        /* \"#utility.yul\":9382:9421   */\n      tag_75\n      jump\t// in\n    tag_186:\n        /* \"#utility.yul\":9355:9356   */\n      0x01\n        /* \"#utility.yul\":9348:9353   */\n      dup2\n        /* \"#utility.yul\":9344:9357   */\n      add\n        /* \"#utility.yul\":9335:9357   */\n      swap1\n      pop\n        /* \"#utility.yul\":9311:9431   */\n      jump(tag_183)\n    tag_185:\n        /* \"#utility.yul\":9251:9437   */\n      pop\n      pop\n      jump\t// out\n        /* \"#utility.yul\":9443:9986   */\n    tag_77:\n        /* \"#utility.yul\":9544:9546   */\n      0x1f\n        /* \"#utility.yul\":9539:9542   */\n      dup3\n        /* \"#utility.yul\":9536:9547   */\n      gt\n        /* \"#utility.yul\":9533:9979   */\n      iszero\n      tag_188\n      jumpi\n        /* \"#utility.yul\":9578:9616   */\n      tag_189\n        /* \"#utility.yul\":9610:9615   */\n      dup2\n        /* \"#utility.yul\":9578:9616   */\n      tag_66\n      jump\t// in\n    tag_189:\n        /* \"#utility.yul\":9662:9691   */\n      tag_190\n        /* \"#utility.yul\":9680:9690   */\n      dup5\n        /* \"#utility.yul\":9662:9691   */\n      tag_67\n      jump\t// in\n    tag_190:\n        /* \"#utility.yul\":9652:9660   */\n      dup2\n        /* \"#utility.yul\":9648:9692   */\n      add\n        /* \"#utility.yul\":9845:9847   */\n      0x20\n        /* \"#utility.yul\":9833:9843   */\n      dup6\n        /* \"#utility.yul\":9830:9848   */\n      lt\n        /* \"#utility.yul\":9827:9876   */\n      iszero\n      tag_191\n      jumpi\n        /* \"#utility.yul\":9866:9874   */\n      dup2\n        /* \"#utility.yul\":9851:9874   */\n      swap1\n      pop\n        /* \"#utility.yul\":9827:9876   */\n    tag_191:\n        /* \"#utility.yul\":9889:9969   */\n      tag_192\n        /* \"#utility.yul\":9945:9967   */\n      tag_193\n        /* \"#utility.yul\":9963:9966   */\n      dup6\n        /* \"#utility.yul\":9945:9967   */\n      tag_67\n      jump\t// in\n    tag_193:\n        /* \"#utility.yul\":9935:9943   */\n      dup4\n        /* \"#utility.yul\":9931:9968   */\n      add\n        /* \"#utility.yul\":9918:9929   */\n      dup3\n        /* \"#utility.yul\":9889:9969   */\n      tag_76\n      jump\t// in\n    tag_192:\n        /* \"#utility.yul\":9548:9979   */\n      pop\n      pop\n        /* \"#utility.yul\":9533:9979   */\n    tag_188:\n        /* \"#utility.yul\":9443:9986   */\n      pop\n      pop\n      pop\n      jump\t// out\n        /* \"#utility.yul\":9992:10109   */\n    tag_78:\n        /* \"#utility.yul\":10046:10054   */\n      0x00\n        /* \"#utility.yul\":10096:10101   */\n      dup3\n        /* \"#utility.yul\":10090:10094   */\n      dup3\n        /* \"#utility.yul\":10086:10102   */\n      shr\n        /* \"#utility.yul\":10065:10102   */\n      swap1\n      pop\n        /* \"#utility.yul\":9992:10109   */\n      swap3\n      swap2\n      pop\n      pop\n      jump\t// out\n        /* \"#utility.yul\":10115:10284   */\n    tag_79:\n        /* \"#utility.yul\":10159:10165   */\n      0x00\n        /* \"#utility.yul\":10192:10243   */\n      tag_196\n        /* \"#utility.yul\":10240:10241   */\n      0x00\n        /* \"#utility.yul\":10236:10242   */\n      not\n        /* \"#utility.yul\":10228:10233   */\n      dup5\n        /* \"#utility.yul\":10225:10226   */\n      0x08\n        /* \"#utility.yul\":10221:10234   */\n      mul\n        /* \"#utility.yul\":10192:10243   */\n      tag_78\n      jump\t// in\n    tag_196:\n        /* \"#utility.yul\":10188:10244   */\n      not\n        /* \"#utility.yul\":10273:10277   */\n      dup1\n        /* \"#utility.yul\":10267:10271   */\n      dup4\n        /* \"#utility.yul\":10263:10278   */\n      and\n        /* \"#utility.yul\":10253:10278   */\n      swap2\n      pop\n        /* \"#utility.yul\":10166:10284   */\n      pop\n        /* \"#utility.yul\":10115:10284   */\n      swap3\n      swap2\n      pop\n      pop\n      jump\t// out\n        /* \"#utility.yul\":10289:10584   */\n    tag_80:\n        /* \"#utility.yul\":10365:10369   */\n      0x00\n        /* \"#utility.yul\":10511:10540   */\n      tag_198\n        /* \"#utility.yul\":10536:10539   */\n      dup4\n        /* \"#utility.yul\":10530:10534   */\n      dup4\n        /* \"#utility.yul\":10511:10540   */\n      tag_79\n      jump\t// in\n    tag_198:\n        /* \"#utility.yul\":10503:10540   */\n      swap2\n      pop\n        /* \"#utility.yul\":10573:10576   */\n      dup3\n        /* \"#utility.yul\":10570:10571   */\n      0x02\n        /* \"#utility.yul\":10566:10577   */\n      mul\n        /* \"#utility.yul\":10560:10564   */\n      dup3\n        /* \"#utility.yul\":10557:10578   */\n      or\n        /* \"#utility.yul\":10549:10578   */\n      swap1\n      pop\n        /* \"#utility.yul\":10289:10584   */\n      swap3\n      swap2\n      pop\n      pop\n      jump\t// out\n        /* \"#utility.yul\":10589:11984   */\n    tag_30:\n        /* \"#utility.yul\":10706:10743   */\n      tag_200\n        /* \"#utility.yul\":10739:10742   */\n      dup3\n        /* \"#utility.yul\":10706:10743   */\n      tag_62\n      jump\t// in\n    tag_200:\n        /* \"#utility.yul\":10808:10826   */\n      0xffffffffffffffff\n        /* \"#utility.yul\":10800:10806   */\n      dup2\n        /* \"#utility.yul\":10797:10827   */\n      gt\n        /* \"#utility.yul\":10794:10850   */\n      iszero\n      tag_201\n      jumpi\n        /* \"#utility.yul\":10830:10848   */\n      tag_202\n      tag_51\n      jump\t// in\n    tag_202:\n        /* \"#utility.yul\":10794:10850   */\n    tag_201:\n        /* \"#utility.yul\":10874:10912   */\n      tag_203\n        /* \"#utility.yul\":10906:10910   */\n      dup3\n        /* \"#utility.yul\":10900:10911   */\n      sload\n        /* \"#utility.yul\":10874:10912   */\n      tag_32\n      jump\t// in\n    tag_203:\n        /* \"#utility.yul\":10959:11026   */\n      tag_204\n        /* \"#utility.yul\":11019:11025   */\n      dup3\n        /* \"#utility.yul\":11011:11017   */\n      dup3\n        /* \"#utility.yul\":11005:11009   */\n      dup6\n        /* \"#utility.yul\":10959:11026   */\n      tag_77\n      jump\t// in\n    tag_204:\n        /* \"#utility.yul\":11053:11054   */\n      0x00\n        /* \"#utility.yul\":11077:11081   */\n      0x20\n        /* \"#utility.yul\":11064:11081   */\n      swap1\n      pop\n        /* \"#utility.yul\":11109:11111   */\n      0x1f\n        /* \"#utility.yul\":11101:11107   */\n      dup4\n        /* \"#utility.yul\":11098:11112   */\n      gt\n        /* \"#utility.yul\":11126:11127   */\n      0x01\n        /* \"#utility.yul\":11121:11739   */\n      dup2\n      eq\n      tag_206\n      jumpi\n        /* \"#utility.yul\":11783:11784   */\n      0x00\n        /* \"#utility.yul\":11800:11806   */\n      dup5\n        /* \"#utility.yul\":11797:11874   */\n      iszero\n      tag_207\n      jumpi\n        /* \"#utility.yul\":11849:11858   */\n      dup3\n        /* \"#utility.yul\":11844:11847   */\n      dup8\n        /* \"#utility.yul\":11840:11859   */\n      add\n        /* \"#utility.yul\":11834:11860   */\n      mload\n        /* \"#utility.yul\":11825:11860   */\n      swap1\n      pop\n        /* \"#utility.yul\":11797:11874   */\n    tag_207:\n        /* \"#utility.yul\":11900:11967   */\n      tag_208\n        /* \"#utility.yul\":11960:11966   */\n      dup6\n        /* \"#utility.yul\":11953:11958   */\n      dup3\n        /* \"#utility.yul\":11900:11967   */\n      tag_80\n      jump\t// in\n    tag_208:\n        /* \"#utility.yul\":11894:11898   */\n      dup7\n        /* \"#utility.yul\":11887:11968   */\n      sstore\n        /* \"#utility.yul\":11756:11978   */\n      pop\n        /* \"#utility.yul\":11091:11978   */\n      jump(tag_205)\n        /* \"#utility.yul\":11121:11739   */\n    tag_206:\n        /* \"#utility.yul\":11173:11177   */\n      0x1f\n        /* \"#utility.yul\":11169:11178   */\n      not\n        /* \"#utility.yul\":11161:11167   */\n      dup5\n        /* \"#utility.yul\":11157:11179   */\n      and\n        /* \"#utility.yul\":11207:11244   */\n      tag_209\n        /* \"#utility.yul\":11239:11243   */\n      dup7\n        /* \"#utility.yul\":11207:11244   */\n      tag_66\n      jump\t// in\n    tag_209:\n        /* \"#utility.yul\":11266:11267   */\n      0x00\n        /* \"#utility.yul\":11280:11488   */\n    tag_210:\n        /* \"#utility.yul\":11294:11301   */\n      dup3\n        /* \"#utility.yul\":11291:11292   */\n      dup2\n        /* \"#utility.yul\":11288:11302   */\n      lt\n        /* \"#utility.yul\":11280:11488   */\n      iszero\n      tag_212\n      jumpi\n        /* \"#utility.yul\":11373:11382   */\n      dup5\n        /* \"#utility.yul\":11368:11371   */\n      dup10\n        /* \"#utility.yul\":11364:11383   */\n      add\n        /* \"#utility.yul\":11358:11384   */\n      mload\n        /* \"#utility.yul\":11350:11356   */\n      dup3\n        /* \"#utility.yul\":11343:11385   */\n      sstore\n        /* \"#utility.yul\":11424:11425   */\n      0x01\n        /* \"#utility.yul\":11416:11422   */\n      dup3\n        /* \"#utility.yul\":11412:11426   */\n      add\n        /* \"#utility.yul\":11402:11426   */\n      swap2\n      pop\n        /* \"#utility.yul\":11471:11473   */\n      0x20\n        /* \"#utility.yul\":11460:11469   */\n      dup6\n        /* \"#utility.yul\":11456:11474   */\n      add\n        /* \"#utility.yul\":11443:11474   */\n      swap5\n      pop\n        /* \"#utility.yul\":11317:11321   */\n      0x20\n        /* \"#utility.yul\":11314:11315   */\n      dup2\n        /* \"#utility.yul\":11310:11322   */\n      add\n        /* \"#utility.yul\":11305:11322   */\n      swap1\n      pop\n        /* \"#utility.yul\":11280:11488   */\n      jump(tag_210)\n    tag_212:\n        /* \"#utility.yul\":11516:11522   */\n      dup7\n        /* \"#utility.yul\":11507:11514   */\n      dup4\n        /* \"#utility.yul\":11504:11523   */\n      lt\n        /* \"#utility.yul\":11501:11680   */\n      iszero\n      tag_213\n      jumpi\n        /* \"#utility.yul\":11574:11583   */\n      dup5\n        /* \"#utility.yul\":11569:11572   */\n      dup10\n        /* \"#utility.yul\":11565:11584   */\n      add\n        /* \"#utility.yul\":11559:11585   */\n      mload\n        /* \"#utility.yul\":11617:11665   */\n      tag_214\n        /* \"#utility.yul\":11659:11663   */\n      0x1f\n        /* \"#utility.yul\":11651:11657   */\n      dup10\n        /* \"#utility.yul\":11647:11664   */\n      and\n        /* \"#utility.yul\":11636:11645   */\n      dup3\n        /* \"#utility.yul\":11617:11665   */\n      tag_79\n      jump\t// in\n    tag_214:\n        /* \"#utility.yul\":11609:11615   */\n      dup4\n        /* \"#utility.yul\":11602:11666   */\n      sstore\n        /* \"#utility.yul\":11524:11680   */\n      pop\n        /* \"#utility.yul\":11501:11680   */\n    tag_213:\n        /* \"#utility.yul\":11726:11727   */\n      0x01\n        /* \"#utility.yul\":11722:11723   */\n      0x02\n        /* \"#utility.yul\":11714:11720   */\n      dup9\n        /* \"#utility.yul\":11710:11724   */\n      mul\n        /* \"#utility.yul\":11706:11728   */\n      add\n        /* \"#utility.yul\":11700:11704   */\n      dup9\n        /* \"#utility.yul\":11693:11729   */\n      sstore\n        /* \"#utility.yul\":11128:11739   */\n      pop\n      pop\n      pop\n        /* \"#utility.yul\":11091:11978   */\n    tag_205:\n      pop\n        /* \"#utility.yul\":10681:11984   */\n      pop\n      pop\n      pop\n        /* \"#utility.yul\":10589:11984   */\n      pop\n      pop\n      jump\t// out\n\n    auxdata: 0xa26469706673582212202ea7db23cf990c891c26b8168b6eacecd8e32ebfead7a43e45688468f5b0b83564736f6c634300081a0033\n}\n",
				"bytecode": {
					"linkReferences": {},
					"object": "6080604052348015600e575f80fd5b5061083c8061001c5f395ff3fe608060405260043610610037575f3560e01c80630c55699c1461007957806324ccab8f146100a3578063e21f37ce146100d45761003e565b3661003e57005b7f4e3358e5bdb38f499a83fbcd33d16343569f3b6fe53021022dede6364017b4a8333460405161006f929190610268565b60405180910390a1005b348015610084575f80fd5b5061008d6100fe565b60405161009a91906102a2565b60405180910390f35b6100bd60048036038101906100b89190610432565b610104565b6040516100cb9291906104a6565b60405180910390f35b3480156100df575f80fd5b506100e861012c565b6040516100f5919061051d565b60405180910390f35b60015481565b5f80835f90816101149190610737565b5082600181905550600161270f915091509250929050565b5f80546101389061056a565b80601f01602080910402602001604051908101604052809291908181526020018280546101649061056a565b80156101af5780601f10610186576101008083540402835291602001916101af565b820191905f5260205f20905b81548152906001019060200180831161019257829003601f168201915b505050505081565b5f73ffffffffffffffffffffffffffffffffffffffff82169050919050565b5f6101e0826101b7565b9050919050565b6101f0816101d6565b82525050565b5f819050919050565b610208816101f6565b82525050565b5f82825260208201905092915050565b7f66616c6c6261636b207761732063616c6c6564000000000000000000000000005f82015250565b5f61025260138361020e565b915061025d8261021e565b602082019050919050565b5f60608201905061027b5f8301856101e7565b61028860208301846101ff565b818103604083015261029981610246565b90509392505050565b5f6020820190506102b55f8301846101ff565b92915050565b5f604051905090565b5f80fd5b5f80fd5b5f80fd5b5f80fd5b5f601f19601f8301169050919050565b7f4e487b71000000000000000000000000000000000000000000000000000000005f52604160045260245ffd5b61031a826102d4565b810181811067ffffffffffffffff82111715610339576103386102e4565b5b80604052505050565b5f61034b6102bb565b90506103578282610311565b919050565b5f67ffffffffffffffff821115610376576103756102e4565b5b61037f826102d4565b9050602081019050919050565b828183375f83830152505050565b5f6103ac6103a78461035c565b610342565b9050828152602081018484840111156103c8576103c76102d0565b5b6103d384828561038c565b509392505050565b5f82601f8301126103ef576103ee6102cc565b5b81356103ff84826020860161039a565b91505092915050565b610411816101f6565b811461041b575f80fd5b50565b5f8135905061042c81610408565b92915050565b5f8060408385031215610448576104476102c4565b5b5f83013567ffffffffffffffff811115610465576104646102c8565b5b610471858286016103db565b92505060206104828582860161041e565b9150509250929050565b5f8115159050919050565b6104a08161048c565b82525050565b5f6040820190506104b95f830185610497565b6104c660208301846101ff565b9392505050565b5f81519050919050565b8281835e5f83830152505050565b5f6104ef826104cd565b6104f9818561020e565b93506105098185602086016104d7565b610512816102d4565b840191505092915050565b5f6020820190508181035f83015261053581846104e5565b905092915050565b7f4e487b71000000000000000000000000000000000000000000000000000000005f52602260045260245ffd5b5f600282049050600182168061058157607f821691505b6020821081036105945761059361053d565b5b50919050565b5f819050815f5260205f209050919050565b5f6020601f8301049050919050565b5f82821b905092915050565b5f600883026105f67fffffffffffffffffffffffffffffffffffffffffffffffffffffffffffffffff826105bb565b61060086836105bb565b95508019841693508086168417925050509392505050565b5f819050919050565b5f61063b610636610631846101f6565b610618565b6101f6565b9050919050565b5f819050919050565b61065483610621565b61066861066082610642565b8484546105c7565b825550505050565b5f90565b61067c610670565b61068781848461064b565b505050565b5b818110156106aa5761069f5f82610674565b60018101905061068d565b5050565b601f8211156106ef576106c08161059a565b6106c9846105ac565b810160208510156106d8578190505b6106ec6106e4856105ac565b83018261068c565b50505b505050565b5f82821c905092915050565b5f61070f5f19846008026106f4565b1980831691505092915050565b5f6107278383610700565b9150826002028217905092915050565b610740826104cd565b67ffffffffffffffff811115610759576107586102e4565b5b610763825461056a565b61076e8282856106ae565b5f60209050601f83116001811461079f575f841561078d578287015190505b610797858261071c565b8655506107fe565b601f1984166107ad8661059a565b5f5b828110156107d4578489015182556001820191506020850194506020810190506107af565b868310156107f157848901516107ed601f891682610700565b8355505b6001600288020188555050505b50505050505056fea26469706673582212202ea7db23cf990c891c26b8168b6eacecd8e32ebfead7a43e45688468f5b0b83564736f6c634300081a0033",
					"opcodes": "PUSH1 0x80 PUSH1 0x40 MSTORE CALLVALUE DUP1 ISZERO PUSH1 0xE JUMPI PUSH0 DUP1 REVERT JUMPDEST POP PUSH2 0x83C DUP1 PUSH2 0x1C PUSH0 CODECOPY PUSH0 RETURN INVALID PUSH1 0x80 PUSH1 0x40 MSTORE PUSH1 0x4 CALLDATASIZE LT PUSH2 0x37 JUMPI PUSH0 CALLDATALOAD PUSH1 0xE0 SHR DUP1 PUSH4 0xC55699C EQ PUSH2 0x79 JUMPI DUP1 PUSH4 0x24CCAB8F EQ PUSH2 0xA3 JUMPI DUP1 PUSH4 0xE21F37CE EQ PUSH2 0xD4 JUMPI PUSH2 0x3E JUMP JUMPDEST CALLDATASIZE PUSH2 0x3E JUMPI STOP JUMPDEST PUSH32 0x4E3358E5BDB38F499A83FBCD33D16343569F3B6FE53021022DEDE6364017B4A8 CALLER CALLVALUE PUSH1 0x40 MLOAD PUSH2 0x6F SWAP3 SWAP2 SWAP1 PUSH2 0x268 JUMP JUMPDEST PUSH1 0x40 MLOAD DUP1 SWAP2 SUB SWAP1 LOG1 STOP JUMPDEST CALLVALUE DUP1 ISZERO PUSH2 0x84 JUMPI PUSH0 DUP1 REVERT JUMPDEST POP PUSH2 0x8D PUSH2 0xFE JUMP JUMPDEST PUSH1 0x40 MLOAD PUSH2 0x9A SWAP2 SWAP1 PUSH2 0x2A2 JUMP JUMPDEST PUSH1 0x40 MLOAD DUP1 SWAP2 SUB SWAP1 RETURN JUMPDEST PUSH2 0xBD PUSH1 0x4 DUP1 CALLDATASIZE SUB DUP2 ADD SWAP1 PUSH2 0xB8 SWAP2 SWAP1 PUSH2 0x432 JUMP JUMPDEST PUSH2 0x104 JUMP JUMPDEST PUSH1 0x40 MLOAD PUSH2 0xCB SWAP3 SWAP2 SWAP1 PUSH2 0x4A6 JUMP JUMPDEST PUSH1 0x40 MLOAD DUP1 SWAP2 SUB SWAP1 RETURN JUMPDEST CALLVALUE DUP1 ISZERO PUSH2 0xDF JUMPI PUSH0 DUP1 REVERT JUMPDEST POP PUSH2 0xE8 PUSH2 0x12C JUMP JUMPDEST PUSH1 0x40 MLOAD PUSH2 0xF5 SWAP2 SWAP1 PUSH2 0x51D JUMP JUMPDEST PUSH1 0x40 MLOAD DUP1 SWAP2 SUB SWAP1 RETURN JUMPDEST PUSH1 0x1 SLOAD DUP2 JUMP JUMPDEST PUSH0 DUP1 DUP4 PUSH0 SWAP1 DUP2 PUSH2 0x114 SWAP2 SWAP1 PUSH2 0x737 JUMP JUMPDEST POP DUP3 PUSH1 0x1 DUP2 SWAP1 SSTORE POP PUSH1 0x1 PUSH2 0x270F SWAP2 POP SWAP2 POP SWAP3 POP SWAP3 SWAP1 POP JUMP JUMPDEST PUSH0 DUP1 SLOAD PUSH2 0x138 SWAP1 PUSH2 0x56A JUMP JUMPDEST DUP1 PUSH1 0x1F ADD PUSH1 0x20 DUP1 SWAP2 DIV MUL PUSH1 0x20 ADD PUSH1 0x40 MLOAD SWAP1 DUP2 ADD PUSH1 0x40 MSTORE DUP1 SWAP3 SWAP2 SWAP1 DUP2 DUP2 MSTORE PUSH1 0x20 ADD DUP3 DUP1 SLOAD PUSH2 0x164 SWAP1 PUSH2 0x56A JUMP JUMPDEST DUP1 ISZERO PUSH2 0x1AF JUMPI DUP1 PUSH1 0x1F LT PUSH2 0x186 JUMPI PUSH2 0x100 DUP1 DUP4 SLOAD DIV MUL DUP4 MSTORE SWAP2 PUSH1 0x20 ADD SWAP2 PUSH2 0x1AF JUMP JUMPDEST DUP3 ADD SWAP2 SWAP1 PUSH0 MSTORE PUSH1 0x20 PUSH0 KECCAK256 SWAP1 JUMPDEST DUP2 SLOAD DUP2 MSTORE SWAP1 PUSH1 0x1 ADD SWAP1 PUSH1 0x20 ADD DUP1 DUP4 GT PUSH2 0x192 JUMPI DUP3 SWAP1 SUB PUSH1 0x1F AND DUP3 ADD SWAP2 JUMPDEST POP POP POP POP POP DUP2 JUMP JUMPDEST PUSH0 PUSH20 0xFFFFFFFFFFFFFFFFFFFFFFFFFFFFFFFFFFFFFFFF DUP3 AND SWAP1 POP SWAP2 SWAP1 POP JUMP JUMPDEST PUSH0 PUSH2 0x1E0 DUP3 PUSH2 0x1B7 JUMP JUMPDEST SWAP1 POP SWAP2 SWAP1 POP JUMP JUMPDEST PUSH2 0x1F0 DUP2 PUSH2 0x1D6 JUMP JUMPDEST DUP3 MSTORE POP POP JUMP JUMPDEST PUSH0 DUP2 SWAP1 POP SWAP2 SWAP1 POP JUMP JUMPDEST PUSH2 0x208 DUP2 PUSH2 0x1F6 JUMP JUMPDEST DUP3 MSTORE POP POP JUMP JUMPDEST PUSH0 DUP3 DUP3 MSTORE PUSH1 0x20 DUP3 ADD SWAP1 POP SWAP3 SWAP2 POP POP JUMP JUMPDEST PUSH32 0x66616C6C6261636B207761732063616C6C656400000000000000000000000000 PUSH0 DUP3 ADD MSTORE POP JUMP JUMPDEST PUSH0 PUSH2 0x252 PUSH1 0x13 DUP4 PUSH2 0x20E JUMP JUMPDEST SWAP2 POP PUSH2 0x25D DUP3 PUSH2 0x21E JUMP JUMPDEST PUSH1 0x20 DUP3 ADD SWAP1 POP SWAP2 SWAP1 POP JUMP JUMPDEST PUSH0 PUSH1 0x60 DUP3 ADD SWAP1 POP PUSH2 0x27B PUSH0 DUP4 ADD DUP6 PUSH2 0x1E7 JUMP JUMPDEST PUSH2 0x288 PUSH1 0x20 DUP4 ADD DUP5 PUSH2 0x1FF JUMP JUMPDEST DUP2 DUP2 SUB PUSH1 0x40 DUP4 ADD MSTORE PUSH2 0x299 DUP2 PUSH2 0x246 JUMP JUMPDEST SWAP1 POP SWAP4 SWAP3 POP POP POP JUMP JUMPDEST PUSH0 PUSH1 0x20 DUP3 ADD SWAP1 POP PUSH2 0x2B5 PUSH0 DUP4 ADD DUP5 PUSH2 0x1FF JUMP JUMPDEST SWAP3 SWAP2 POP POP JUMP JUMPDEST PUSH0 PUSH1 0x40 MLOAD SWAP1 POP SWAP1 JUMP JUMPDEST PUSH0 DUP1 REVERT JUMPDEST PUSH0 DUP1 REVERT JUMPDEST PUSH0 DUP1 REVERT JUMPDEST PUSH0 DUP1 REVERT JUMPDEST PUSH0 PUSH1 0x1F NOT PUSH1 0x1F DUP4 ADD AND SWAP1 POP SWAP2 SWAP1 POP JUMP JUMPDEST PUSH32 0x4E487B7100000000000000000000000000000000000000000000000000000000 PUSH0 MSTORE PUSH1 0x41 PUSH1 0x4 MSTORE PUSH1 0x24 PUSH0 REVERT JUMPDEST PUSH2 0x31A DUP3 PUSH2 0x2D4 JUMP JUMPDEST DUP2 ADD DUP2 DUP2 LT PUSH8 0xFFFFFFFFFFFFFFFF DUP3 GT OR ISZERO PUSH2 0x339 JUMPI PUSH2 0x338 PUSH2 0x2E4 JUMP JUMPDEST JUMPDEST DUP1 PUSH1 0x40 MSTORE POP POP POP JUMP JUMPDEST PUSH0 PUSH2 0x34B PUSH2 0x2BB JUMP JUMPDEST SWAP1 POP PUSH2 0x357 DUP3 DUP3 PUSH2 0x311 JUMP JUMPDEST SWAP2 SWAP1 POP JUMP JUMPDEST PUSH0 PUSH8 0xFFFFFFFFFFFFFFFF DUP3 GT ISZERO PUSH2 0x376 JUMPI PUSH2 0x375 PUSH2 0x2E4 JUMP JUMPDEST JUMPDEST PUSH2 0x37F DUP3 PUSH2 0x2D4 JUMP JUMPDEST SWAP1 POP PUSH1 0x20 DUP2 ADD SWAP1 POP SWAP2 SWAP1 POP JUMP JUMPDEST DUP3 DUP2 DUP4 CALLDATACOPY PUSH0 DUP4 DUP4 ADD MSTORE POP POP POP JUMP JUMPDEST PUSH0 PUSH2 0x3AC PUSH2 0x3A7 DUP5 PUSH2 0x35C JUMP JUMPDEST PUSH2 0x342 JUMP JUMPDEST SWAP1 POP DUP3 DUP2 MSTORE PUSH1 0x20 DUP2 ADD DUP5 DUP5 DUP5 ADD GT ISZERO PUSH2 0x3C8 JUMPI PUSH2 0x3C7 PUSH2 0x2D0 JUMP JUMPDEST JUMPDEST PUSH2 0x3D3 DUP5 DUP3 DUP6 PUSH2 0x38C JUMP JUMPDEST POP SWAP4 SWAP3 POP POP POP JUMP JUMPDEST PUSH0 DUP3 PUSH1 0x1F DUP4 ADD SLT PUSH2 0x3EF JUMPI PUSH2 0x3EE PUSH2 0x2CC JUMP JUMPDEST JUMPDEST DUP2 CALLDATALOAD PUSH2 0x3FF DUP5 DUP3 PUSH1 0x20 DUP7 ADD PUSH2 0x39A JUMP JUMPDEST SWAP2 POP POP SWAP3 SWAP2 POP POP JUMP JUMPDEST PUSH2 0x411 DUP2 PUSH2 0x1F6 JUMP JUMPDEST DUP2 EQ PUSH2 0x41B JUMPI PUSH0 DUP1 REVERT JUMPDEST POP JUMP JUMPDEST PUSH0 DUP2 CALLDATALOAD SWAP1 POP PUSH2 0x42C DUP2 PUSH2 0x408 JUMP JUMPDEST SWAP3 SWAP2 POP POP JUMP JUMPDEST PUSH0 DUP1 PUSH1 0x40 DUP4 DUP6 SUB SLT ISZERO PUSH2 0x448 JUMPI PUSH2 0x447 PUSH2 0x2C4 JUMP JUMPDEST JUMPDEST PUSH0 DUP4 ADD CALLDATALOAD PUSH8 0xFFFFFFFFFFFFFFFF DUP2 GT ISZERO PUSH2 0x465 JUMPI PUSH2 0x464 PUSH2 0x2C8 JUMP JUMPDEST JUMPDEST PUSH2 0x471 DUP6 DUP3 DUP7 ADD PUSH2 0x3DB JUMP JUMPDEST SWAP3 POP POP PUSH1 0x20 PUSH2 0x482 DUP6 DUP3 DUP7 ADD PUSH2 0x41E JUMP JUMPDEST SWAP2 POP POP SWAP3 POP SWAP3 SWAP1 POP JUMP JUMPDEST PUSH0 DUP2 ISZERO ISZERO SWAP1 POP SWAP2 SWAP1 POP JUMP JUMPDEST PUSH2 0x4A0 DUP2 PUSH2 0x48C JUMP JUMPDEST DUP3 MSTORE POP POP JUMP JUMPDEST PUSH0 PUSH1 0x40 DUP3 ADD SWAP1 POP PUSH2 0x4B9 PUSH0 DUP4 ADD DUP6 PUSH2 0x497 JUMP JUMPDEST PUSH2 0x4C6 PUSH1 0x20 DUP4 ADD DUP5 PUSH2 0x1FF JUMP JUMPDEST SWAP4 SWAP3 POP POP POP JUMP JUMPDEST PUSH0 DUP2 MLOAD SWAP1 POP SWAP2 SWAP1 POP JUMP JUMPDEST DUP3 DUP2 DUP4 MCOPY PUSH0 DUP4 DUP4 ADD MSTORE POP POP POP JUMP JUMPDEST PUSH0 PUSH2 0x4EF DUP3 PUSH2 0x4CD JUMP JUMPDEST PUSH2 0x4F9 DUP2 DUP6 PUSH2 0x20E JUMP JUMPDEST SWAP4 POP PUSH2 0x509 DUP2 DUP6 PUSH1 0x20 DUP7 ADD PUSH2 0x4D7 JUMP JUMPDEST PUSH2 0x512 DUP2 PUSH2 0x2D4 JUMP JUMPDEST DUP5 ADD SWAP2 POP POP SWAP3 SWAP2 POP POP JUMP JUMPDEST PUSH0 PUSH1 0x20 DUP3 ADD SWAP1 POP DUP2 DUP2 SUB PUSH0 DUP4 ADD MSTORE PUSH2 0x535 DUP2 DUP5 PUSH2 0x4E5 JUMP JUMPDEST SWAP1 POP SWAP3 SWAP2 POP POP JUMP JUMPDEST PUSH32 0x4E487B7100000000000000000000000000000000000000000000000000000000 PUSH0 MSTORE PUSH1 0x22 PUSH1 0x4 MSTORE PUSH1 0x24 PUSH0 REVERT JUMPDEST PUSH0 PUSH1 0x2 DUP3 DIV SWAP1 POP PUSH1 0x1 DUP3 AND DUP1 PUSH2 0x581 JUMPI PUSH1 0x7F DUP3 AND SWAP2 POP JUMPDEST PUSH1 0x20 DUP3 LT DUP2 SUB PUSH2 0x594 JUMPI PUSH2 0x593 PUSH2 0x53D JUMP JUMPDEST JUMPDEST POP SWAP2 SWAP1 POP JUMP JUMPDEST PUSH0 DUP2 SWAP1 POP DUP2 PUSH0 MSTORE PUSH1 0x20 PUSH0 KECCAK256 SWAP1 POP SWAP2 SWAP1 POP JUMP JUMPDEST PUSH0 PUSH1 0x20 PUSH1 0x1F DUP4 ADD DIV SWAP1 POP SWAP2 SWAP1 POP JUMP JUMPDEST PUSH0 DUP3 DUP3 SHL SWAP1 POP SWAP3 SWAP2 POP POP JUMP JUMPDEST PUSH0 PUSH1 0x8 DUP4 MUL PUSH2 0x5F6 PUSH32 0xFFFFFFFFFFFFFFFFFFFFFFFFFFFFFFFFFFFFFFFFFFFFFFFFFFFFFFFFFFFFFFFF DUP3 PUSH2 0x5BB JUMP JUMPDEST PUSH2 0x600 DUP7 DUP4 PUSH2 0x5BB JUMP JUMPDEST SWAP6 POP DUP1 NOT DUP5 AND SWAP4 POP DUP1 DUP7 AND DUP5 OR SWAP3 POP POP POP SWAP4 SWAP3 POP POP POP JUMP JUMPDEST PUSH0 DUP2 SWAP1 POP SWAP2 SWAP1 POP JUMP JUMPDEST PUSH0 PUSH2 0x63B PUSH2 0x636 PUSH2 0x631 DUP5 PUSH2 0x1F6 JUMP JUMPDEST PUSH2 0x618 JUMP JUMPDEST PUSH2 0x1F6 JUMP JUMPDEST SWAP1 POP SWAP2 SWAP1 POP JUMP JUMPDEST PUSH0 DUP2 SWAP1 POP SWAP2 SWAP1 POP JUMP JUMPDEST PUSH2 0x654 DUP4 PUSH2 0x621 JUMP JUMPDEST PUSH2 0x668 PUSH2 0x660 DUP3 PUSH2 0x642 JUMP JUMPDEST DUP5 DUP5 SLOAD PUSH2 0x5C7 JUMP JUMPDEST DUP3 SSTORE POP POP POP POP JUMP JUMPDEST PUSH0 SWAP1 JUMP JUMPDEST PUSH2 0x67C PUSH2 0x670 JUMP JUMPDEST PUSH2 0x687 DUP2 DUP5 DUP5 PUSH2 0x64B JUMP JUMPDEST POP POP POP JUMP JUMPDEST JUMPDEST DUP2 DUP2 LT ISZERO PUSH2 0x6AA JUMPI PUSH2 0x69F PUSH0 DUP3 PUSH2 0x674 JUMP JUMPDEST PUSH1 0x1 DUP2 ADD SWAP1 POP PUSH2 0x68D JUMP JUMPDEST POP POP JUMP JUMPDEST PUSH1 0x1F DUP3 GT ISZERO PUSH2 0x6EF JUMPI PUSH2 0x6C0 DUP2 PUSH2 0x59A JUMP JUMPDEST PUSH2 0x6C9 DUP5 PUSH2 0x5AC JUMP JUMPDEST DUP2 ADD PUSH1 0x20 DUP6 LT ISZERO PUSH2 0x6D8 JUMPI DUP2 SWAP1 POP JUMPDEST PUSH2 0x6EC PUSH2 0x6E4 DUP6 PUSH2 0x5AC JUMP JUMPDEST DUP4 ADD DUP3 PUSH2 0x68C JUMP JUMPDEST POP POP JUMPDEST POP POP POP JUMP JUMPDEST PUSH0 DUP3 DUP3 SHR SWAP1 POP SWAP3 SWAP2 POP POP JUMP JUMPDEST PUSH0 PUSH2 0x70F PUSH0 NOT DUP5 PUSH1 0x8 MUL PUSH2 0x6F4 JUMP JUMPDEST NOT DUP1 DUP4 AND SWAP2 POP POP SWAP3 SWAP2 POP POP JUMP JUMPDEST PUSH0 PUSH2 0x727 DUP4 DUP4 PUSH2 0x700 JUMP JUMPDEST SWAP2 POP DUP3 PUSH1 0x2 MUL DUP3 OR SWAP1 POP SWAP3 SWAP2 POP POP JUMP JUMPDEST PUSH2 0x740 DUP3 PUSH2 0x4CD JUMP JUMPDEST PUSH8 0xFFFFFFFFFFFFFFFF DUP2 GT ISZERO PUSH2 0x759 JUMPI PUSH2 0x758 PUSH2 0x2E4 JUMP JUMPDEST JUMPDEST PUSH2 0x763 DUP3 SLOAD PUSH2 0x56A JUMP JUMPDEST PUSH2 0x76E DUP3 DUP3 DUP6 PUSH2 0x6AE JUMP JUMPDEST PUSH0 PUSH1 0x20 SWAP1 POP PUSH1 0x1F DUP4 GT PUSH1 0x1 DUP2 EQ PUSH2 0x79F JUMPI PUSH0 DUP5 ISZERO PUSH2 0x78D JUMPI DUP3 DUP8 ADD MLOAD SWAP1 POP JUMPDEST PUSH2 0x797 DUP6 DUP3 PUSH2 0x71C JUMP JUMPDEST DUP7 SSTORE POP PUSH2 0x7FE JUMP JUMPDEST PUSH1 0x1F NOT DUP5 AND PUSH2 0x7AD DUP7 PUSH2 0x59A JUMP JUMPDEST PUSH0 JUMPDEST DUP3 DUP2 LT ISZERO PUSH2 0x7D4 JUMPI DUP5 DUP10 ADD MLOAD DUP3 SSTORE PUSH1 0x1 DUP3 ADD SWAP2 POP PUSH1 0x20 DUP6 ADD SWAP5 POP PUSH1 0x20 DUP2 ADD SWAP1 POP PUSH2 0x7AF JUMP JUMPDEST DUP7 DUP4 LT ISZERO PUSH2 0x7F1 JUMPI DUP5 DUP10 ADD MLOAD PUSH2 0x7ED PUSH1 0x1F DUP10 AND DUP3 PUSH2 0x700 JUMP JUMPDEST DUP4 SSTORE POP JUMPDEST PUSH1 0x1 PUSH1 0x2 DUP9 MUL ADD DUP9 SSTORE POP POP POP JUMPDEST POP POP POP POP POP POP JUMP INVALID LOG2 PUSH5 0x6970667358 0x22 SLT KECCAK256 0x2E 0xA7 0xDB 0x23 0xCF SWAP10 0xC DUP10 SHR 0x26 0xB8 AND DUP12 PUSH15 0xACECD8E32EBFEAD7A43E45688468F5 0xB0 0xB8 CALLDATALOAD PUSH5 0x736F6C6343 STOP ADDMOD BYTE STOP CALLER "
				},
				"gasEstimates": {
					"creation": {
						"codeDepositCost": "421600",
						"executionCost": "453",
						"totalCost": "422053"
					},
					"external": {
						"": "2687",
						"foo(string,uint256)": "infinite",
						"message()": "infinite",
						"x()": "2403"
					}
				},
				"methodIdentifiers": {
					"foo(string,uint256)": "24ccab8f",
					"message()": "e21f37ce",
					"x()": "0c55699c"
				}
			},
			"storageLayout": {
				"storage": [
					{
						"astId": 3,
						"contract": "3w/042Call.sol:TestCall",
						"label": "message",
						"offset": 0,
						"slot": "0",
						"type": "t_string_storage"
					},
					{
						"astId": 5,
						"contract": "3w/042Call.sol:TestCall",
						"label": "x",
						"offset": 0,
						"slot": "1",
						"type": "t_uint256"
					}
				],
				"types": {
					"t_string_storage": {
						"encoding": "bytes",
						"label": "string",
						"numberOfBytes": "32"
					},
					"t_uint256": {
						"encoding": "inplace",
						"label": "uint256",
						"numberOfBytes": "32"
					}
				}
			},
			"userdoc": {
				"kind": "user",
				"methods": {},
				"version": 1
			}
		}
	}
}