{
	"3w/040CallOtherContracts.sol": {
		"caller": {
			"abi": [
				{
					"inputs": [
						{
							"internalType": "contract TestContract",
							"name": "_test",
							"type": "address"
						},
						{
							"internalType": "uint256",
							"name": "_x",
							"type": "uint256"
						}
					],
					"name": "setX",
					"outputs": [],
					"stateMutability": "nonpayable",
					"type": "function"
				},
				{
					"inputs": [
						{
							"internalType": "contract TestContract",
							"name": "_test",
							"type": "address"
						},
						{
							"internalType": "uint256",
							"name": "_x",
							"type": "uint256"
						}
					],
					"name": "setXandSendEther",
					"outputs": [],
					"stateMutability": "payable",
					"type": "function"
				}
			],
			"devdoc": {
				"kind": "dev",
				"methods": {},
				"version": 1
			},
			"evm": {
				"assembly": "    /* \"3w/040CallOtherContracts.sol\":57:299  contract caller{... */\n  mstore(0x40, 0x80)\n  callvalue\n  dup1\n  iszero\n  tag_1\n  jumpi\n  0x00\n  dup1\n  revert\ntag_1:\n  pop\n  dataSize(sub_0)\n  dup1\n  dataOffset(sub_0)\n  0x00\n  codecopy\n  0x00\n  return\nstop\n\nsub_0: assembly {\n        /* \"3w/040CallOtherContracts.sol\":57:299  contract caller{... */\n      mstore(0x40, 0x80)\n      jumpi(tag_1, lt(calldatasize, 0x04))\n      shr(0xe0, calldataload(0x00))\n      dup1\n      0x4a2ad99f\n      eq\n      tag_2\n      jumpi\n      dup1\n      0xd44abc42\n      eq\n      tag_3\n      jumpi\n    tag_1:\n      0x00\n      dup1\n      revert\n        /* \"3w/040CallOtherContracts.sol\":78:160  function setX(TestContract _test,uint _x) external {... */\n    tag_2:\n      callvalue\n      dup1\n      iszero\n      tag_4\n      jumpi\n      0x00\n      dup1\n      revert\n    tag_4:\n      pop\n      tag_5\n      0x04\n      dup1\n      calldatasize\n      sub\n      dup2\n      add\n      swap1\n      tag_6\n      swap2\n      swap1\n      tag_7\n      jump\t// in\n    tag_6:\n      tag_8\n      jump\t// in\n    tag_5:\n      stop\n        /* \"3w/040CallOtherContracts.sol\":166:297  function setXandSendEther(TestContract _test,uint _x) external payable{... */\n    tag_3:\n      tag_9\n      0x04\n      dup1\n      calldatasize\n      sub\n      dup2\n      add\n      swap1\n      tag_10\n      swap2\n      swap1\n      tag_7\n      jump\t// in\n    tag_10:\n      tag_11\n      jump\t// in\n    tag_9:\n      stop\n        /* \"3w/040CallOtherContracts.sol\":78:160  function setX(TestContract _test,uint _x) external {... */\n    tag_8:\n        /* \"3w/040CallOtherContracts.sol\":139:144  _test */\n      dup2\n        /* \"3w/040CallOtherContracts.sol\":139:149  _test.setX */\n      0xffffffffffffffffffffffffffffffffffffffff\n      and\n      0x4018d9aa\n        /* \"3w/040CallOtherContracts.sol\":150:152  _x */\n      dup3\n        /* \"3w/040CallOtherContracts.sol\":139:153  _test.setX(_x) */\n      mload(0x40)\n      dup3\n      0xffffffff\n      and\n      0xe0\n      shl\n      dup2\n      mstore\n      0x04\n      add\n      tag_13\n      swap2\n      swap1\n      tag_14\n      jump\t// in\n    tag_13:\n      0x20\n      mload(0x40)\n      dup1\n      dup4\n      sub\n      dup2\n      0x00\n      dup8\n      gas\n      call\n      iszero\n      dup1\n      iszero\n      tag_16\n      jumpi\n      returndatasize\n      0x00\n      dup1\n      returndatacopy\n      revert(0x00, returndatasize)\n    tag_16:\n      pop\n      pop\n      pop\n      pop\n      mload(0x40)\n      returndatasize\n      not(0x1f)\n      0x1f\n      dup3\n      add\n      and\n      dup3\n      add\n      dup1\n      0x40\n      mstore\n      pop\n      dup2\n      add\n      swap1\n      tag_17\n      swap2\n      swap1\n      tag_18\n      jump\t// in\n    tag_17:\n      pop\n        /* \"3w/040CallOtherContracts.sol\":78:160  function setX(TestContract _test,uint _x) external {... */\n      pop\n      pop\n      jump\t// out\n        /* \"3w/040CallOtherContracts.sol\":166:297  function setXandSendEther(TestContract _test,uint _x) external payable{... */\n    tag_11:\n        /* \"3w/040CallOtherContracts.sol\":246:251  _test */\n      dup2\n        /* \"3w/040CallOtherContracts.sol\":246:268  _test.setXandSendEther */\n      0xffffffffffffffffffffffffffffffffffffffff\n      and\n      0xcdc23076\n        /* \"3w/040CallOtherContracts.sol\":276:285  msg.value */\n      callvalue\n        /* \"3w/040CallOtherContracts.sol\":287:289  _x */\n      dup4\n        /* \"3w/040CallOtherContracts.sol\":246:290  _test.setXandSendEther{value: msg.value}(_x) */\n      mload(0x40)\n      dup4\n      0xffffffff\n      and\n      0xe0\n      shl\n      dup2\n      mstore\n      0x04\n      add\n      tag_20\n      swap2\n      swap1\n      tag_14\n      jump\t// in\n    tag_20:\n      0x00\n      mload(0x40)\n      dup1\n      dup4\n      sub\n      dup2\n      dup6\n      dup9\n      dup1\n      extcodesize\n      iszero\n      dup1\n      iszero\n      tag_21\n      jumpi\n      0x00\n      dup1\n      revert\n    tag_21:\n      pop\n      gas\n      call\n      iszero\n      dup1\n      iszero\n      tag_23\n      jumpi\n      returndatasize\n      0x00\n      dup1\n      returndatacopy\n      revert(0x00, returndatasize)\n    tag_23:\n      pop\n      pop\n      pop\n      pop\n      pop\n        /* \"3w/040CallOtherContracts.sol\":166:297  function setXandSendEther(TestContract _test,uint _x) external payable{... */\n      pop\n      pop\n      jump\t// out\n        /* \"#utility.yul\":88:205   */\n    tag_25:\n        /* \"#utility.yul\":197:198   */\n      0x00\n        /* \"#utility.yul\":194:195   */\n      dup1\n        /* \"#utility.yul\":187:199   */\n      revert\n        /* \"#utility.yul\":334:460   */\n    tag_27:\n        /* \"#utility.yul\":371:378   */\n      0x00\n        /* \"#utility.yul\":411:453   */\n      0xffffffffffffffffffffffffffffffffffffffff\n        /* \"#utility.yul\":404:409   */\n      dup3\n        /* \"#utility.yul\":400:454   */\n      and\n        /* \"#utility.yul\":389:454   */\n      swap1\n      pop\n        /* \"#utility.yul\":334:460   */\n      swap2\n      swap1\n      pop\n      jump\t// out\n        /* \"#utility.yul\":466:562   */\n    tag_28:\n        /* \"#utility.yul\":503:510   */\n      0x00\n        /* \"#utility.yul\":532:556   */\n      tag_43\n        /* \"#utility.yul\":550:555   */\n      dup3\n        /* \"#utility.yul\":532:556   */\n      tag_27\n      jump\t// in\n    tag_43:\n        /* \"#utility.yul\":521:556   */\n      swap1\n      pop\n        /* \"#utility.yul\":466:562   */\n      swap2\n      swap1\n      pop\n      jump\t// out\n        /* \"#utility.yul\":568:683   */\n    tag_29:\n        /* \"#utility.yul\":624:631   */\n      0x00\n        /* \"#utility.yul\":653:677   */\n      tag_45\n        /* \"#utility.yul\":671:676   */\n      dup3\n        /* \"#utility.yul\":653:677   */\n      tag_28\n      jump\t// in\n    tag_45:\n        /* \"#utility.yul\":642:677   */\n      swap1\n      pop\n        /* \"#utility.yul\":568:683   */\n      swap2\n      swap1\n      pop\n      jump\t// out\n        /* \"#utility.yul\":689:849   */\n    tag_30:\n        /* \"#utility.yul\":781:824   */\n      tag_47\n        /* \"#utility.yul\":818:823   */\n      dup2\n        /* \"#utility.yul\":781:824   */\n      tag_29\n      jump\t// in\n    tag_47:\n        /* \"#utility.yul\":774:779   */\n      dup2\n        /* \"#utility.yul\":771:825   */\n      eq\n        /* \"#utility.yul\":761:843   */\n      tag_48\n      jumpi\n        /* \"#utility.yul\":839:840   */\n      0x00\n        /* \"#utility.yul\":836:837   */\n      dup1\n        /* \"#utility.yul\":829:841   */\n      revert\n        /* \"#utility.yul\":761:843   */\n    tag_48:\n        /* \"#utility.yul\":689:849   */\n      pop\n      jump\t// out\n        /* \"#utility.yul\":855:1032   */\n    tag_31:\n        /* \"#utility.yul\":920:925   */\n      0x00\n        /* \"#utility.yul\":958:964   */\n      dup2\n        /* \"#utility.yul\":945:965   */\n      calldataload\n        /* \"#utility.yul\":936:965   */\n      swap1\n      pop\n        /* \"#utility.yul\":974:1026   */\n      tag_50\n        /* \"#utility.yul\":1020:1025   */\n      dup2\n        /* \"#utility.yul\":974:1026   */\n      tag_30\n      jump\t// in\n    tag_50:\n        /* \"#utility.yul\":855:1032   */\n      swap3\n      swap2\n      pop\n      pop\n      jump\t// out\n        /* \"#utility.yul\":1038:1115   */\n    tag_32:\n        /* \"#utility.yul\":1075:1082   */\n      0x00\n        /* \"#utility.yul\":1104:1109   */\n      dup2\n        /* \"#utility.yul\":1093:1109   */\n      swap1\n      pop\n        /* \"#utility.yul\":1038:1115   */\n      swap2\n      swap1\n      pop\n      jump\t// out\n        /* \"#utility.yul\":1121:1243   */\n    tag_33:\n        /* \"#utility.yul\":1194:1218   */\n      tag_53\n        /* \"#utility.yul\":1212:1217   */\n      dup2\n        /* \"#utility.yul\":1194:1218   */\n      tag_32\n      jump\t// in\n    tag_53:\n        /* \"#utility.yul\":1187:1192   */\n      dup2\n        /* \"#utility.yul\":1184:1219   */\n      eq\n        /* \"#utility.yul\":1174:1237   */\n      tag_54\n      jumpi\n        /* \"#utility.yul\":1233:1234   */\n      0x00\n        /* \"#utility.yul\":1230:1231   */\n      dup1\n        /* \"#utility.yul\":1223:1235   */\n      revert\n        /* \"#utility.yul\":1174:1237   */\n    tag_54:\n        /* \"#utility.yul\":1121:1243   */\n      pop\n      jump\t// out\n        /* \"#utility.yul\":1249:1388   */\n    tag_34:\n        /* \"#utility.yul\":1295:1300   */\n      0x00\n        /* \"#utility.yul\":1333:1339   */\n      dup2\n        /* \"#utility.yul\":1320:1340   */\n      calldataload\n        /* \"#utility.yul\":1311:1340   */\n      swap1\n      pop\n        /* \"#utility.yul\":1349:1382   */\n      tag_56\n        /* \"#utility.yul\":1376:1381   */\n      dup2\n        /* \"#utility.yul\":1349:1382   */\n      tag_33\n      jump\t// in\n    tag_56:\n        /* \"#utility.yul\":1249:1388   */\n      swap3\n      swap2\n      pop\n      pop\n      jump\t// out\n        /* \"#utility.yul\":1394:1906   */\n    tag_7:\n        /* \"#utility.yul\":1481:1487   */\n      0x00\n        /* \"#utility.yul\":1489:1495   */\n      dup1\n        /* \"#utility.yul\":1538:1540   */\n      0x40\n        /* \"#utility.yul\":1526:1535   */\n      dup4\n        /* \"#utility.yul\":1517:1524   */\n      dup6\n        /* \"#utility.yul\":1513:1536   */\n      sub\n        /* \"#utility.yul\":1509:1541   */\n      slt\n        /* \"#utility.yul\":1506:1625   */\n      iszero\n      tag_58\n      jumpi\n        /* \"#utility.yul\":1544:1623   */\n      tag_59\n      tag_25\n      jump\t// in\n    tag_59:\n        /* \"#utility.yul\":1506:1625   */\n    tag_58:\n        /* \"#utility.yul\":1664:1665   */\n      0x00\n        /* \"#utility.yul\":1689:1761   */\n      tag_60\n        /* \"#utility.yul\":1753:1760   */\n      dup6\n        /* \"#utility.yul\":1744:1750   */\n      dup3\n        /* \"#utility.yul\":1733:1742   */\n      dup7\n        /* \"#utility.yul\":1729:1751   */\n      add\n        /* \"#utility.yul\":1689:1761   */\n      tag_31\n      jump\t// in\n    tag_60:\n        /* \"#utility.yul\":1679:1761   */\n      swap3\n      pop\n        /* \"#utility.yul\":1635:1771   */\n      pop\n        /* \"#utility.yul\":1810:1812   */\n      0x20\n        /* \"#utility.yul\":1836:1889   */\n      tag_61\n        /* \"#utility.yul\":1881:1888   */\n      dup6\n        /* \"#utility.yul\":1872:1878   */\n      dup3\n        /* \"#utility.yul\":1861:1870   */\n      dup7\n        /* \"#utility.yul\":1857:1879   */\n      add\n        /* \"#utility.yul\":1836:1889   */\n      tag_34\n      jump\t// in\n    tag_61:\n        /* \"#utility.yul\":1826:1889   */\n      swap2\n      pop\n        /* \"#utility.yul\":1781:1899   */\n      pop\n        /* \"#utility.yul\":1394:1906   */\n      swap3\n      pop\n      swap3\n      swap1\n      pop\n      jump\t// out\n        /* \"#utility.yul\":1912:2030   */\n    tag_35:\n        /* \"#utility.yul\":1999:2023   */\n      tag_63\n        /* \"#utility.yul\":2017:2022   */\n      dup2\n        /* \"#utility.yul\":1999:2023   */\n      tag_32\n      jump\t// in\n    tag_63:\n        /* \"#utility.yul\":1994:1997   */\n      dup3\n        /* \"#utility.yul\":1987:2024   */\n      mstore\n        /* \"#utility.yul\":1912:2030   */\n      pop\n      pop\n      jump\t// out\n        /* \"#utility.yul\":2036:2258   */\n    tag_14:\n        /* \"#utility.yul\":2129:2133   */\n      0x00\n        /* \"#utility.yul\":2167:2169   */\n      0x20\n        /* \"#utility.yul\":2156:2165   */\n      dup3\n        /* \"#utility.yul\":2152:2170   */\n      add\n        /* \"#utility.yul\":2144:2170   */\n      swap1\n      pop\n        /* \"#utility.yul\":2180:2251   */\n      tag_65\n        /* \"#utility.yul\":2248:2249   */\n      0x00\n        /* \"#utility.yul\":2237:2246   */\n      dup4\n        /* \"#utility.yul\":2233:2250   */\n      add\n        /* \"#utility.yul\":2224:2230   */\n      dup5\n        /* \"#utility.yul\":2180:2251   */\n      tag_35\n      jump\t// in\n    tag_65:\n        /* \"#utility.yul\":2036:2258   */\n      swap3\n      swap2\n      pop\n      pop\n      jump\t// out\n        /* \"#utility.yul\":2264:2407   */\n    tag_36:\n        /* \"#utility.yul\":2321:2326   */\n      0x00\n        /* \"#utility.yul\":2352:2358   */\n      dup2\n        /* \"#utility.yul\":2346:2359   */\n      mload\n        /* \"#utility.yul\":2337:2359   */\n      swap1\n      pop\n        /* \"#utility.yul\":2368:2401   */\n      tag_67\n        /* \"#utility.yul\":2395:2400   */\n      dup2\n        /* \"#utility.yul\":2368:2401   */\n      tag_33\n      jump\t// in\n    tag_67:\n        /* \"#utility.yul\":2264:2407   */\n      swap3\n      swap2\n      pop\n      pop\n      jump\t// out\n        /* \"#utility.yul\":2413:2764   */\n    tag_18:\n        /* \"#utility.yul\":2483:2489   */\n      0x00\n        /* \"#utility.yul\":2532:2534   */\n      0x20\n        /* \"#utility.yul\":2520:2529   */\n      dup3\n        /* \"#utility.yul\":2511:2518   */\n      dup5\n        /* \"#utility.yul\":2507:2530   */\n      sub\n        /* \"#utility.yul\":2503:2535   */\n      slt\n        /* \"#utility.yul\":2500:2619   */\n      iszero\n      tag_69\n      jumpi\n        /* \"#utility.yul\":2538:2617   */\n      tag_70\n      tag_25\n      jump\t// in\n    tag_70:\n        /* \"#utility.yul\":2500:2619   */\n    tag_69:\n        /* \"#utility.yul\":2658:2659   */\n      0x00\n        /* \"#utility.yul\":2683:2747   */\n      tag_71\n        /* \"#utility.yul\":2739:2746   */\n      dup5\n        /* \"#utility.yul\":2730:2736   */\n      dup3\n        /* \"#utility.yul\":2719:2728   */\n      dup6\n        /* \"#utility.yul\":2715:2737   */\n      add\n        /* \"#utility.yul\":2683:2747   */\n      tag_36\n      jump\t// in\n    tag_71:\n        /* \"#utility.yul\":2673:2747   */\n      swap2\n      pop\n        /* \"#utility.yul\":2629:2757   */\n      pop\n        /* \"#utility.yul\":2413:2764   */\n      swap3\n      swap2\n      pop\n      pop\n      jump\t// out\n\n    auxdata: 0xa2646970667358221220d7f62c5a4139ea8886212448505cc8fc45e0266799cfb1d3bc02e3f75314fd5764736f6c634300081a0033\n}\n",
				"bytecode": {
					"linkReferences": {},
					"object": "6080604052348015600e575f80fd5b506102d78061001c5f395ff3fe608060405260043610610028575f3560e01c80634a2ad99f1461002c578063d44abc4214610054575b5f80fd5b348015610037575f80fd5b50610052600480360381019061004d91906101fc565b610070565b005b61006e600480360381019061006991906101fc565b6100ee565b005b8173ffffffffffffffffffffffffffffffffffffffff16634018d9aa826040518263ffffffff1660e01b81526004016100a99190610249565b6020604051808303815f875af11580156100c5573d5f803e3d5ffd5b505050506040513d601f19601f820116820180604052508101906100e99190610276565b505050565b8173ffffffffffffffffffffffffffffffffffffffff1663cdc2307634836040518363ffffffff1660e01b81526004016101289190610249565b5f604051808303818588803b15801561013f575f80fd5b505af1158015610151573d5f803e3d5ffd5b50505050505050565b5f80fd5b5f73ffffffffffffffffffffffffffffffffffffffff82169050919050565b5f6101878261015e565b9050919050565b5f6101988261017d565b9050919050565b6101a88161018e565b81146101b2575f80fd5b50565b5f813590506101c38161019f565b92915050565b5f819050919050565b6101db816101c9565b81146101e5575f80fd5b50565b5f813590506101f6816101d2565b92915050565b5f80604083850312156102125761021161015a565b5b5f61021f858286016101b5565b9250506020610230858286016101e8565b9150509250929050565b610243816101c9565b82525050565b5f60208201905061025c5f83018461023a565b92915050565b5f81519050610270816101d2565b92915050565b5f6020828403121561028b5761028a61015a565b5b5f61029884828501610262565b9150509291505056fea2646970667358221220d7f62c5a4139ea8886212448505cc8fc45e0266799cfb1d3bc02e3f75314fd5764736f6c634300081a0033",
					"opcodes": "PUSH1 0x80 PUSH1 0x40 MSTORE CALLVALUE DUP1 ISZERO PUSH1 0xE JUMPI PUSH0 DUP1 REVERT JUMPDEST POP PUSH2 0x2D7 DUP1 PUSH2 0x1C PUSH0 CODECOPY PUSH0 RETURN INVALID PUSH1 0x80 PUSH1 0x40 MSTORE PUSH1 0x4 CALLDATASIZE LT PUSH2 0x28 JUMPI PUSH0 CALLDATALOAD PUSH1 0xE0 SHR DUP1 PUSH4 0x4A2AD99F EQ PUSH2 0x2C JUMPI DUP1 PUSH4 0xD44ABC42 EQ PUSH2 0x54 JUMPI JUMPDEST PUSH0 DUP1 REVERT JUMPDEST CALLVALUE DUP1 ISZERO PUSH2 0x37 JUMPI PUSH0 DUP1 REVERT JUMPDEST POP PUSH2 0x52 PUSH1 0x4 DUP1 CALLDATASIZE SUB DUP2 ADD SWAP1 PUSH2 0x4D SWAP2 SWAP1 PUSH2 0x1FC JUMP JUMPDEST PUSH2 0x70 JUMP JUMPDEST STOP JUMPDEST PUSH2 0x6E PUSH1 0x4 DUP1 CALLDATASIZE SUB DUP2 ADD SWAP1 PUSH2 0x69 SWAP2 SWAP1 PUSH2 0x1FC JUMP JUMPDEST PUSH2 0xEE JUMP JUMPDEST STOP JUMPDEST DUP2 PUSH20 0xFFFFFFFFFFFFFFFFFFFFFFFFFFFFFFFFFFFFFFFF AND PUSH4 0x4018D9AA DUP3 PUSH1 0x40 MLOAD DUP3 PUSH4 0xFFFFFFFF AND PUSH1 0xE0 SHL DUP2 MSTORE PUSH1 0x4 ADD PUSH2 0xA9 SWAP2 SWAP1 PUSH2 0x249 JUMP JUMPDEST PUSH1 0x20 PUSH1 0x40 MLOAD DUP1 DUP4 SUB DUP2 PUSH0 DUP8 GAS CALL ISZERO DUP1 ISZERO PUSH2 0xC5 JUMPI RETURNDATASIZE PUSH0 DUP1 RETURNDATACOPY RETURNDATASIZE PUSH0 REVERT JUMPDEST POP POP POP POP PUSH1 0x40 MLOAD RETURNDATASIZE PUSH1 0x1F NOT PUSH1 0x1F DUP3 ADD AND DUP3 ADD DUP1 PUSH1 0x40 MSTORE POP DUP2 ADD SWAP1 PUSH2 0xE9 SWAP2 SWAP1 PUSH2 0x276 JUMP JUMPDEST POP POP POP JUMP JUMPDEST DUP2 PUSH20 0xFFFFFFFFFFFFFFFFFFFFFFFFFFFFFFFFFFFFFFFF AND PUSH4 0xCDC23076 CALLVALUE DUP4 PUSH1 0x40 MLOAD DUP4 PUSH4 0xFFFFFFFF AND PUSH1 0xE0 SHL DUP2 MSTORE PUSH1 0x4 ADD PUSH2 0x128 SWAP2 SWAP1 PUSH2 0x249 JUMP JUMPDEST PUSH0 PUSH1 0x40 MLOAD DUP1 DUP4 SUB DUP2 DUP6 DUP9 DUP1 EXTCODESIZE ISZERO DUP1 ISZERO PUSH2 0x13F JUMPI PUSH0 DUP1 REVERT JUMPDEST POP GAS CALL ISZERO DUP1 ISZERO PUSH2 0x151 JUMPI RETURNDATASIZE PUSH0 DUP1 RETURNDATACOPY RETURNDATASIZE PUSH0 REVERT JUMPDEST POP POP POP POP POP POP POP JUMP JUMPDEST PUSH0 DUP1 REVERT JUMPDEST PUSH0 PUSH20 0xFFFFFFFFFFFFFFFFFFFFFFFFFFFFFFFFFFFFFFFF DUP3 AND SWAP1 POP SWAP2 SWAP1 POP JUMP JUMPDEST PUSH0 PUSH2 0x187 DUP3 PUSH2 0x15E JUMP JUMPDEST SWAP1 POP SWAP2 SWAP1 POP JUMP JUMPDEST PUSH0 PUSH2 0x198 DUP3 PUSH2 0x17D JUMP JUMPDEST SWAP1 POP SWAP2 SWAP1 POP JUMP JUMPDEST PUSH2 0x1A8 DUP2 PUSH2 0x18E JUMP JUMPDEST DUP2 EQ PUSH2 0x1B2 JUMPI PUSH0 DUP1 REVERT JUMPDEST POP JUMP JUMPDEST PUSH0 DUP2 CALLDATALOAD SWAP1 POP PUSH2 0x1C3 DUP2 PUSH2 0x19F JUMP JUMPDEST SWAP3 SWAP2 POP POP JUMP JUMPDEST PUSH0 DUP2 SWAP1 POP SWAP2 SWAP1 POP JUMP JUMPDEST PUSH2 0x1DB DUP2 PUSH2 0x1C9 JUMP JUMPDEST DUP2 EQ PUSH2 0x1E5 JUMPI PUSH0 DUP1 REVERT JUMPDEST POP JUMP JUMPDEST PUSH0 DUP2 CALLDATALOAD SWAP1 POP PUSH2 0x1F6 DUP2 PUSH2 0x1D2 JUMP JUMPDEST SWAP3 SWAP2 POP POP JUMP JUMPDEST PUSH0 DUP1 PUSH1 0x40 DUP4 DUP6 SUB SLT ISZERO PUSH2 0x212 JUMPI PUSH2 0x211 PUSH2 0x15A JUMP JUMPDEST JUMPDEST PUSH0 PUSH2 0x21F DUP6 DUP3 DUP7 ADD PUSH2 0x1B5 JUMP JUMPDEST SWAP3 POP POP PUSH1 0x20 PUSH2 0x230 DUP6 DUP3 DUP7 ADD PUSH2 0x1E8 JUMP JUMPDEST SWAP2 POP POP SWAP3 POP SWAP3 SWAP1 POP JUMP JUMPDEST PUSH2 0x243 DUP2 PUSH2 0x1C9 JUMP JUMPDEST DUP3 MSTORE POP POP JUMP JUMPDEST PUSH0 PUSH1 0x20 DUP3 ADD SWAP1 POP PUSH2 0x25C PUSH0 DUP4 ADD DUP5 PUSH2 0x23A JUMP JUMPDEST SWAP3 SWAP2 POP POP JUMP JUMPDEST PUSH0 DUP2 MLOAD SWAP1 POP PUSH2 0x270 DUP2 PUSH2 0x1D2 JUMP JUMPDEST SWAP3 SWAP2 POP POP JUMP JUMPDEST PUSH0 PUSH1 0x20 DUP3 DUP5 SUB SLT ISZERO PUSH2 0x28B JUMPI PUSH2 0x28A PUSH2 0x15A JUMP JUMPDEST JUMPDEST PUSH0 PUSH2 0x298 DUP5 DUP3 DUP6 ADD PUSH2 0x262 JUMP JUMPDEST SWAP2 POP POP SWAP3 SWAP2 POP POP JUMP INVALID LOG2 PUSH5 0x6970667358 0x22 SLT KECCAK256 0xD7 0xF6 0x2C GAS COINBASE CODECOPY 0xEA DUP9 DUP7 0x21 0x24 BASEFEE POP TLOAD 0xC8 0xFC GASLIMIT 0xE0 0x26 PUSH8 0x99CFB1D3BC02E3F7 MSTORE8 EQ REVERT JUMPI PUSH5 0x736F6C6343 STOP ADDMOD BYTE STOP CALLER "
				},
				"gasEstimates": {
					"creation": {
						"codeDepositCost": "145400",
						"executionCost": "188",
						"totalCost": "145588"
					},
					"external": {
						"setX(address,uint256)": "infinite",
						"setXandSendEther(address,uint256)": "infinite"
					}
				},
				"methodIdentifiers": {
					"setX(address,uint256)": "4a2ad99f",
					"setXandSendEther(address,uint256)": "d44abc42"
				}
			},
			"storageLayout": {
				"storage": [],
				"types": null
			},
			"userdoc": {
				"kind": "user",
				"methods": {},
				"version": 1
			}
		}
	}
}