{
	"3w/034Visibility.sol": {
		"Child": {
			"abi": [
				{
					"inputs": [],
					"name": "example2",
					"outputs": [],
					"stateMutability": "view",
					"type": "function"
				},
				{
					"inputs": [],
					"name": "examples",
					"outputs": [],
					"stateMutability": "view",
					"type": "function"
				},
				{
					"inputs": [],
					"name": "externalFunc",
					"outputs": [
						{
							"internalType": "uint256",
							"name": "",
							"type": "uint256"
						}
					],
					"stateMutability": "pure",
					"type": "function"
				},
				{
					"inputs": [],
					"name": "publicFunc",
					"outputs": [
						{
							"internalType": "uint256",
							"name": "",
							"type": "uint256"
						}
					],
					"stateMutability": "pure",
					"type": "function"
				},
				{
					"inputs": [],
					"name": "z",
					"outputs": [
						{
							"internalType": "uint256",
							"name": "",
							"type": "uint256"
						}
					],
					"stateMutability": "view",
					"type": "function"
				}
			],
			"devdoc": {
				"kind": "dev",
				"methods": {},
				"version": 1
			},
			"evm": {
				"assembly": "    /* \"3w/034Visibility.sol\":802:1097  contract Child is Base {... */\n  mstore(0x40, 0x80)\n    /* \"3w/034Visibility.sol\":284:285  0 */\n  0x00\n    /* \"3w/034Visibility.sol\":267:285  uint private x = 0 */\n  dup1\n  sstore\n    /* \"3w/034Visibility.sol\":309:310  1 */\n  0x01\n    /* \"3w/034Visibility.sol\":291:310  uint internal y = 1 */\n  dup1\n  sstore\n    /* \"3w/034Visibility.sol\":332:333  2 */\n  0x02\n    /* \"3w/034Visibility.sol\":316:333  uint public z = 2 */\n  dup1\n  sstore\n    /* \"3w/034Visibility.sol\":802:1097  contract Child is Base {... */\n  callvalue\n  dup1\n  iszero\n  tag_1\n  jumpi\n  0x00\n  dup1\n  revert\ntag_1:\n  pop\n  dataSize(sub_0)\n  dup1\n  dataOffset(sub_0)\n  0x00\n  codecopy\n  0x00\n  return\nstop\n\nsub_0: assembly {\n        /* \"3w/034Visibility.sol\":802:1097  contract Child is Base {... */\n      mstore(0x40, 0x80)\n      callvalue\n      dup1\n      iszero\n      tag_1\n      jumpi\n      0x00\n      dup1\n      revert\n    tag_1:\n      pop\n      jumpi(tag_2, lt(calldatasize, 0x04))\n      shr(0xe0, calldataload(0x00))\n      dup1\n      0x335d00c2\n      eq\n      tag_3\n      jumpi\n      dup1\n      0x42b148aa\n      eq\n      tag_4\n      jumpi\n      dup1\n      0x4b73383f\n      eq\n      tag_5\n      jumpi\n      dup1\n      0xa54998a7\n      eq\n      tag_6\n      jumpi\n      dup1\n      0xc5d7802e\n      eq\n      tag_7\n      jumpi\n    tag_2:\n      0x00\n      dup1\n      revert\n        /* \"3w/034Visibility.sol\":672:799  function examples() external view{... */\n    tag_3:\n      tag_8\n      tag_9\n      jump\t// in\n    tag_8:\n      stop\n        /* \"3w/034Visibility.sol\":587:666  function externalFunc() external pure returns (uint){... */\n    tag_4:\n      tag_10\n      tag_11\n      jump\t// in\n    tag_10:\n      mload(0x40)\n      tag_12\n      swap2\n      swap1\n      tag_13\n      jump\t// in\n    tag_12:\n      mload(0x40)\n      dup1\n      swap2\n      sub\n      swap1\n      return\n        /* \"3w/034Visibility.sol\":507:582  function publicFunc() public pure returns(uint) {... */\n    tag_5:\n      tag_14\n      tag_15\n      jump\t// in\n    tag_14:\n      mload(0x40)\n      tag_16\n      swap2\n      swap1\n      tag_13\n      jump\t// in\n    tag_16:\n      mload(0x40)\n      dup1\n      swap2\n      sub\n      swap1\n      return\n        /* \"3w/034Visibility.sol\":832:1094  function example2() external view{... */\n    tag_6:\n      tag_17\n      tag_18\n      jump\t// in\n    tag_17:\n      stop\n        /* \"3w/034Visibility.sol\":316:333  uint public z = 2 */\n    tag_7:\n      tag_19\n      tag_20\n      jump\t// in\n    tag_19:\n      mload(0x40)\n      tag_21\n      swap2\n      swap1\n      tag_13\n      jump\t// in\n    tag_21:\n      mload(0x40)\n      dup1\n      swap2\n      sub\n      swap1\n      return\n        /* \"3w/034Visibility.sol\":672:799  function examples() external view{... */\n    tag_9:\n        /* \"3w/034Visibility.sol\":722:723  z */\n      sload(0x02)\n        /* \"3w/034Visibility.sol\":719:720  y */\n      sload(0x01)\n        /* \"3w/034Visibility.sol\":715:716  x */\n      sload(0x00)\n        /* \"3w/034Visibility.sol\":715:720  x + y */\n      tag_23\n      swap2\n      swap1\n      tag_24\n      jump\t// in\n    tag_23:\n        /* \"3w/034Visibility.sol\":715:723  x + y+ z */\n      tag_25\n      swap2\n      swap1\n      tag_24\n      jump\t// in\n    tag_25:\n      pop\n        /* \"3w/034Visibility.sol\":733:746  privateFunc() */\n      tag_26\n        /* \"3w/034Visibility.sol\":733:744  privateFunc */\n      tag_27\n        /* \"3w/034Visibility.sol\":733:746  privateFunc() */\n      jump\t// in\n    tag_26:\n      pop\n        /* \"3w/034Visibility.sol\":756:770  internalFunc() */\n      tag_28\n        /* \"3w/034Visibility.sol\":756:768  internalFunc */\n      tag_29\n        /* \"3w/034Visibility.sol\":756:770  internalFunc() */\n      jump\t// in\n    tag_28:\n      pop\n        /* \"3w/034Visibility.sol\":780:792  publicFunc() */\n      tag_30\n        /* \"3w/034Visibility.sol\":780:790  publicFunc */\n      tag_15\n        /* \"3w/034Visibility.sol\":780:792  publicFunc() */\n      jump\t// in\n    tag_30:\n      pop\n        /* \"3w/034Visibility.sol\":672:799  function examples() external view{... */\n      jump\t// out\n        /* \"3w/034Visibility.sol\":587:666  function externalFunc() external pure returns (uint){... */\n    tag_11:\n        /* \"3w/034Visibility.sol\":634:638  uint */\n      0x00\n        /* \"3w/034Visibility.sol\":656:659  300 */\n      0x012c\n        /* \"3w/034Visibility.sol\":649:659  return 300 */\n      swap1\n      pop\n        /* \"3w/034Visibility.sol\":587:666  function externalFunc() external pure returns (uint){... */\n      swap1\n      jump\t// out\n        /* \"3w/034Visibility.sol\":507:582  function publicFunc() public pure returns(uint) {... */\n    tag_15:\n        /* \"3w/034Visibility.sol\":549:553  uint */\n      0x00\n        /* \"3w/034Visibility.sol\":572:575  200 */\n      0xc8\n        /* \"3w/034Visibility.sol\":565:575  return 200 */\n      swap1\n      pop\n        /* \"3w/034Visibility.sol\":507:582  function publicFunc() public pure returns(uint) {... */\n      swap1\n      jump\t// out\n        /* \"3w/034Visibility.sol\":832:1094  function example2() external view{... */\n    tag_18:\n        /* \"3w/034Visibility.sol\":880:881  z */\n      sload(0x02)\n        /* \"3w/034Visibility.sol\":875:876  y */\n      sload(0x01)\n        /* \"3w/034Visibility.sol\":875:881  y  + z */\n      tag_34\n      swap2\n      swap1\n      tag_24\n      jump\t// in\n    tag_34:\n      pop\n        /* \"3w/034Visibility.sol\":891:905  internalFunc() */\n      tag_35\n        /* \"3w/034Visibility.sol\":891:903  internalFunc */\n      tag_29\n        /* \"3w/034Visibility.sol\":891:905  internalFunc() */\n      jump\t// in\n    tag_35:\n      pop\n        /* \"3w/034Visibility.sol\":915:927  publicFunc() */\n      tag_36\n        /* \"3w/034Visibility.sol\":915:925  publicFunc */\n      tag_15\n        /* \"3w/034Visibility.sol\":915:927  publicFunc() */\n      jump\t// in\n    tag_36:\n      pop\n        /* \"3w/034Visibility.sol\":832:1094  function example2() external view{... */\n      jump\t// out\n        /* \"3w/034Visibility.sol\":316:333  uint public z = 2 */\n    tag_20:\n      sload(0x02)\n      dup2\n      jump\t// out\n        /* \"3w/034Visibility.sol\":340:415  function privateFunc() private pure returns (uint){... */\n    tag_27:\n        /* \"3w/034Visibility.sol\":385:389  uint */\n      0x00\n        /* \"3w/034Visibility.sol\":340:415  function privateFunc() private pure returns (uint){... */\n      swap1\n      jump\t// out\n        /* \"3w/034Visibility.sol\":420:501  function internalFunc() internal pure returns (uint) { ... */\n    tag_29:\n        /* \"3w/034Visibility.sol\":467:471  uint */\n      0x00\n        /* \"3w/034Visibility.sol\":491:494  100 */\n      0x64\n        /* \"3w/034Visibility.sol\":484:494  return 100 */\n      swap1\n      pop\n        /* \"3w/034Visibility.sol\":420:501  function internalFunc() internal pure returns (uint) { ... */\n      swap1\n      jump\t// out\n        /* \"#utility.yul\":7:84   */\n    tag_39:\n        /* \"#utility.yul\":44:51   */\n      0x00\n        /* \"#utility.yul\":73:78   */\n      dup2\n        /* \"#utility.yul\":62:78   */\n      swap1\n      pop\n        /* \"#utility.yul\":7:84   */\n      swap2\n      swap1\n      pop\n      jump\t// out\n        /* \"#utility.yul\":90:208   */\n    tag_40:\n        /* \"#utility.yul\":177:201   */\n      tag_45\n        /* \"#utility.yul\":195:200   */\n      dup2\n        /* \"#utility.yul\":177:201   */\n      tag_39\n      jump\t// in\n    tag_45:\n        /* \"#utility.yul\":172:175   */\n      dup3\n        /* \"#utility.yul\":165:202   */\n      mstore\n        /* \"#utility.yul\":90:208   */\n      pop\n      pop\n      jump\t// out\n        /* \"#utility.yul\":214:436   */\n    tag_13:\n        /* \"#utility.yul\":307:311   */\n      0x00\n        /* \"#utility.yul\":345:347   */\n      0x20\n        /* \"#utility.yul\":334:343   */\n      dup3\n        /* \"#utility.yul\":330:348   */\n      add\n        /* \"#utility.yul\":322:348   */\n      swap1\n      pop\n        /* \"#utility.yul\":358:429   */\n      tag_47\n        /* \"#utility.yul\":426:427   */\n      0x00\n        /* \"#utility.yul\":415:424   */\n      dup4\n        /* \"#utility.yul\":411:428   */\n      add\n        /* \"#utility.yul\":402:408   */\n      dup5\n        /* \"#utility.yul\":358:429   */\n      tag_40\n      jump\t// in\n    tag_47:\n        /* \"#utility.yul\":214:436   */\n      swap3\n      swap2\n      pop\n      pop\n      jump\t// out\n        /* \"#utility.yul\":442:622   */\n    tag_41:\n        /* \"#utility.yul\":490:567   */\n      0x4e487b7100000000000000000000000000000000000000000000000000000000\n        /* \"#utility.yul\":487:488   */\n      0x00\n        /* \"#utility.yul\":480:568   */\n      mstore\n        /* \"#utility.yul\":587:591   */\n      0x11\n        /* \"#utility.yul\":584:585   */\n      0x04\n        /* \"#utility.yul\":577:592   */\n      mstore\n        /* \"#utility.yul\":611:615   */\n      0x24\n        /* \"#utility.yul\":608:609   */\n      0x00\n        /* \"#utility.yul\":601:616   */\n      revert\n        /* \"#utility.yul\":628:819   */\n    tag_24:\n        /* \"#utility.yul\":668:671   */\n      0x00\n        /* \"#utility.yul\":687:707   */\n      tag_50\n        /* \"#utility.yul\":705:706   */\n      dup3\n        /* \"#utility.yul\":687:707   */\n      tag_39\n      jump\t// in\n    tag_50:\n        /* \"#utility.yul\":682:707   */\n      swap2\n      pop\n        /* \"#utility.yul\":721:741   */\n      tag_51\n        /* \"#utility.yul\":739:740   */\n      dup4\n        /* \"#utility.yul\":721:741   */\n      tag_39\n      jump\t// in\n    tag_51:\n        /* \"#utility.yul\":716:741   */\n      swap3\n      pop\n        /* \"#utility.yul\":764:765   */\n      dup3\n        /* \"#utility.yul\":761:762   */\n      dup3\n        /* \"#utility.yul\":757:766   */\n      add\n        /* \"#utility.yul\":750:766   */\n      swap1\n      pop\n        /* \"#utility.yul\":785:788   */\n      dup1\n        /* \"#utility.yul\":782:783   */\n      dup3\n        /* \"#utility.yul\":779:789   */\n      gt\n        /* \"#utility.yul\":776:812   */\n      iszero\n      tag_52\n      jumpi\n        /* \"#utility.yul\":792:810   */\n      tag_53\n      tag_41\n      jump\t// in\n    tag_53:\n        /* \"#utility.yul\":776:812   */\n    tag_52:\n        /* \"#utility.yul\":628:819   */\n      swap3\n      swap2\n      pop\n      pop\n      jump\t// out\n\n    auxdata: 0xa264697066735822122015d2c323d0f5be98a25ad1acef2fdd7c04bca9345aea117b71ca8249a01ab47e64736f6c634300081a0033\n}\n",
				"bytecode": {
					"linkReferences": {},
					"object": "60806040525f805560018055600280553480156019575f80fd5b50610210806100275f395ff3fe608060405234801561000f575f80fd5b5060043610610055575f3560e01c8063335d00c21461005957806342b148aa146100635780634b73383f14610081578063a54998a71461009f578063c5d7802e146100a9575b5f80fd5b6100616100c7565b005b61006b610101565b6040516100789190610161565b60405180910390f35b61008961010a565b6040516100969190610161565b60405180910390f35b6100a7610112565b005b6100b1610137565b6040516100be9190610161565b60405180910390f35b6002546001545f546100d991906101a7565b6100e391906101a7565b506100ec61013d565b506100f5610141565b506100fe61010a565b50565b5f61012c905090565b5f60c8905090565b60025460015461012291906101a7565b5061012b610141565b5061013461010a565b50565b60025481565b5f90565b5f6064905090565b5f819050919050565b61015b81610149565b82525050565b5f6020820190506101745f830184610152565b92915050565b7f4e487b71000000000000000000000000000000000000000000000000000000005f52601160045260245ffd5b5f6101b182610149565b91506101bc83610149565b92508282019050808211156101d4576101d361017a565b5b9291505056fea264697066735822122015d2c323d0f5be98a25ad1acef2fdd7c04bca9345aea117b71ca8249a01ab47e64736f6c634300081a0033",
					"opcodes": "PUSH1 0x80 PUSH1 0x40 MSTORE PUSH0 DUP1 SSTORE PUSH1 0x1 DUP1 SSTORE PUSH1 0x2 DUP1 SSTORE CALLVALUE DUP1 ISZERO PUSH1 0x19 JUMPI PUSH0 DUP1 REVERT JUMPDEST POP PUSH2 0x210 DUP1 PUSH2 0x27 PUSH0 CODECOPY PUSH0 RETURN INVALID PUSH1 0x80 PUSH1 0x40 MSTORE CALLVALUE DUP1 ISZERO PUSH2 0xF JUMPI PUSH0 DUP1 REVERT JUMPDEST POP PUSH1 0x4 CALLDATASIZE LT PUSH2 0x55 JUMPI PUSH0 CALLDATALOAD PUSH1 0xE0 SHR DUP1 PUSH4 0x335D00C2 EQ PUSH2 0x59 JUMPI DUP1 PUSH4 0x42B148AA EQ PUSH2 0x63 JUMPI DUP1 PUSH4 0x4B73383F EQ PUSH2 0x81 JUMPI DUP1 PUSH4 0xA54998A7 EQ PUSH2 0x9F JUMPI DUP1 PUSH4 0xC5D7802E EQ PUSH2 0xA9 JUMPI JUMPDEST PUSH0 DUP1 REVERT JUMPDEST PUSH2 0x61 PUSH2 0xC7 JUMP JUMPDEST STOP JUMPDEST PUSH2 0x6B PUSH2 0x101 JUMP JUMPDEST PUSH1 0x40 MLOAD PUSH2 0x78 SWAP2 SWAP1 PUSH2 0x161 JUMP JUMPDEST PUSH1 0x40 MLOAD DUP1 SWAP2 SUB SWAP1 RETURN JUMPDEST PUSH2 0x89 PUSH2 0x10A JUMP JUMPDEST PUSH1 0x40 MLOAD PUSH2 0x96 SWAP2 SWAP1 PUSH2 0x161 JUMP JUMPDEST PUSH1 0x40 MLOAD DUP1 SWAP2 SUB SWAP1 RETURN JUMPDEST PUSH2 0xA7 PUSH2 0x112 JUMP JUMPDEST STOP JUMPDEST PUSH2 0xB1 PUSH2 0x137 JUMP JUMPDEST PUSH1 0x40 MLOAD PUSH2 0xBE SWAP2 SWAP1 PUSH2 0x161 JUMP JUMPDEST PUSH1 0x40 MLOAD DUP1 SWAP2 SUB SWAP1 RETURN JUMPDEST PUSH1 0x2 SLOAD PUSH1 0x1 SLOAD PUSH0 SLOAD PUSH2 0xD9 SWAP2 SWAP1 PUSH2 0x1A7 JUMP JUMPDEST PUSH2 0xE3 SWAP2 SWAP1 PUSH2 0x1A7 JUMP JUMPDEST POP PUSH2 0xEC PUSH2 0x13D JUMP JUMPDEST POP PUSH2 0xF5 PUSH2 0x141 JUMP JUMPDEST POP PUSH2 0xFE PUSH2 0x10A JUMP JUMPDEST POP JUMP JUMPDEST PUSH0 PUSH2 0x12C SWAP1 POP SWAP1 JUMP JUMPDEST PUSH0 PUSH1 0xC8 SWAP1 POP SWAP1 JUMP JUMPDEST PUSH1 0x2 SLOAD PUSH1 0x1 SLOAD PUSH2 0x122 SWAP2 SWAP1 PUSH2 0x1A7 JUMP JUMPDEST POP PUSH2 0x12B PUSH2 0x141 JUMP JUMPDEST POP PUSH2 0x134 PUSH2 0x10A JUMP JUMPDEST POP JUMP JUMPDEST PUSH1 0x2 SLOAD DUP2 JUMP JUMPDEST PUSH0 SWAP1 JUMP JUMPDEST PUSH0 PUSH1 0x64 SWAP1 POP SWAP1 JUMP JUMPDEST PUSH0 DUP2 SWAP1 POP SWAP2 SWAP1 POP JUMP JUMPDEST PUSH2 0x15B DUP2 PUSH2 0x149 JUMP JUMPDEST DUP3 MSTORE POP POP JUMP JUMPDEST PUSH0 PUSH1 0x20 DUP3 ADD SWAP1 POP PUSH2 0x174 PUSH0 DUP4 ADD DUP5 PUSH2 0x152 JUMP JUMPDEST SWAP3 SWAP2 POP POP JUMP JUMPDEST PUSH32 0x4E487B7100000000000000000000000000000000000000000000000000000000 PUSH0 MSTORE PUSH1 0x11 PUSH1 0x4 MSTORE PUSH1 0x24 PUSH0 REVERT JUMPDEST PUSH0 PUSH2 0x1B1 DUP3 PUSH2 0x149 JUMP JUMPDEST SWAP2 POP PUSH2 0x1BC DUP4 PUSH2 0x149 JUMP JUMPDEST SWAP3 POP DUP3 DUP3 ADD SWAP1 POP DUP1 DUP3 GT ISZERO PUSH2 0x1D4 JUMPI PUSH2 0x1D3 PUSH2 0x17A JUMP JUMPDEST JUMPDEST SWAP3 SWAP2 POP POP JUMP INVALID LOG2 PUSH5 0x6970667358 0x22 SLT KECCAK256 ISZERO 0xD2 0xC3 0x23 0xD0 CREATE2 0xBE SWAP9 LOG2 GAS 0xD1 0xAC 0xEF 0x2F 0xDD PUSH29 0x4BCA9345AEA117B71CA8249A01AB47E64736F6C634300081A00330000 "
				},
				"gasEstimates": {
					"creation": {
						"codeDepositCost": "105600",
						"executionCost": "49368",
						"totalCost": "154968"
					},
					"external": {
						"example2()": "infinite",
						"examples()": "infinite",
						"externalFunc()": "332",
						"publicFunc()": "354",
						"z()": "2491"
					}
				},
				"methodIdentifiers": {
					"example2()": "a54998a7",
					"examples()": "335d00c2",
					"externalFunc()": "42b148aa",
					"publicFunc()": "4b73383f",
					"z()": "c5d7802e"
				}
			},
			"storageLayout": {
				"storage": [
					{
						"astId": 4,
						"contract": "3w/034Visibility.sol:Child",
						"label": "x",
						"offset": 0,
						"slot": "0",
						"type": "t_uint256"
					},
					{
						"astId": 7,
						"contract": "3w/034Visibility.sol:Child",
						"label": "y",
						"offset": 0,
						"slot": "1",
						"type": "t_uint256"
					},
					{
						"astId": 10,
						"contract": "3w/034Visibility.sol:Child",
						"label": "z",
						"offset": 0,
						"slot": "2",
						"type": "t_uint256"
					}
				],
				"types": {
					"t_uint256": {
						"encoding": "inplace",
						"label": "uint256",
						"numberOfBytes": "32"
					}
				}
			},
			"userdoc": {
				"kind": "user",
				"methods": {},
				"version": 1
			}
		}
	}
}