{
	"4w/046Hash.sol": {
		"HashFunc": {
			"abi": [
				{
					"inputs": [
						{
							"internalType": "string",
							"name": "text",
							"type": "string"
						},
						{
							"internalType": "uint256",
							"name": "num",
							"type": "uint256"
						},
						{
							"internalType": "address",
							"name": "addr",
							"type": "address"
						}
					],
					"name": "hash",
					"outputs": [
						{
							"internalType": "bytes32",
							"name": "",
							"type": "bytes32"
						}
					],
					"stateMutability": "pure",
					"type": "function"
				}
			],
			"devdoc": {
				"kind": "dev",
				"methods": {},
				"version": 1
			},
			"evm": {
				"assembly": "    /* \"4w/046Hash.sol\":57:243  contract HashFunc{... */\n  mstore(0x40, 0x80)\n  callvalue\n  dup1\n  iszero\n  tag_1\n  jumpi\n  0x00\n  dup1\n  revert\ntag_1:\n  pop\n  dataSize(sub_0)\n  dup1\n  dataOffset(sub_0)\n  0x00\n  codecopy\n  0x00\n  return\nstop\n\nsub_0: assembly {\n        /* \"4w/046Hash.sol\":57:243  contract HashFunc{... */\n      mstore(0x40, 0x80)\n      callvalue\n      dup1\n      iszero\n      tag_1\n      jumpi\n      0x00\n      dup1\n      revert\n    tag_1:\n      pop\n      jumpi(tag_2, lt(calldatasize, 0x04))\n      shr(0xe0, calldataload(0x00))\n      dup1\n      0x5dda416e\n      eq\n      tag_3\n      jumpi\n    tag_2:\n      0x00\n      dup1\n      revert\n        /* \"4w/046Hash.sol\":80:233  function hash(string memory text, uint num,address addr) external pure returns(bytes32){... */\n    tag_3:\n      tag_4\n      0x04\n      dup1\n      calldatasize\n      sub\n      dup2\n      add\n      swap1\n      tag_5\n      swap2\n      swap1\n      tag_6\n      jump\t// in\n    tag_5:\n      tag_7\n      jump\t// in\n    tag_4:\n      mload(0x40)\n      tag_8\n      swap2\n      swap1\n      tag_9\n      jump\t// in\n    tag_8:\n      mload(0x40)\n      dup1\n      swap2\n      sub\n      swap1\n      return\n    tag_7:\n        /* \"4w/046Hash.sol\":159:166  bytes32 */\n      0x00\n        /* \"4w/046Hash.sol\":211:215  text */\n      dup4\n        /* \"4w/046Hash.sol\":216:219  num */\n      dup4\n        /* \"4w/046Hash.sol\":220:224  addr */\n      dup4\n        /* \"4w/046Hash.sol\":194:225  abi.encodePacked(text,num,addr) */\n      add(0x20, mload(0x40))\n      tag_11\n      swap4\n      swap3\n      swap2\n      swap1\n      tag_12\n      jump\t// in\n    tag_11:\n      mload(0x40)\n      0x20\n      dup2\n      dup4\n      sub\n      sub\n      dup2\n      mstore\n      swap1\n      0x40\n      mstore\n        /* \"4w/046Hash.sol\":184:226  keccak256(abi.encodePacked(text,num,addr)) */\n      dup1\n      mload\n      swap1\n      0x20\n      add\n      keccak256\n        /* \"4w/046Hash.sol\":177:226  return keccak256(abi.encodePacked(text,num,addr)) */\n      swap1\n      pop\n        /* \"4w/046Hash.sol\":80:233  function hash(string memory text, uint num,address addr) external pure returns(bytes32){... */\n      swap4\n      swap3\n      pop\n      pop\n      pop\n      jump\t// out\n        /* \"#utility.yul\":7:82   */\n    tag_13:\n        /* \"#utility.yul\":40:46   */\n      0x00\n        /* \"#utility.yul\":73:75   */\n      0x40\n        /* \"#utility.yul\":67:76   */\n      mload\n        /* \"#utility.yul\":57:76   */\n      swap1\n      pop\n        /* \"#utility.yul\":7:82   */\n      swap1\n      jump\t// out\n        /* \"#utility.yul\":88:205   */\n    tag_14:\n        /* \"#utility.yul\":197:198   */\n      0x00\n        /* \"#utility.yul\":194:195   */\n      dup1\n        /* \"#utility.yul\":187:199   */\n      revert\n        /* \"#utility.yul\":211:328   */\n    tag_15:\n        /* \"#utility.yul\":320:321   */\n      0x00\n        /* \"#utility.yul\":317:318   */\n      dup1\n        /* \"#utility.yul\":310:322   */\n      revert\n        /* \"#utility.yul\":334:451   */\n    tag_16:\n        /* \"#utility.yul\":443:444   */\n      0x00\n        /* \"#utility.yul\":440:441   */\n      dup1\n        /* \"#utility.yul\":433:445   */\n      revert\n        /* \"#utility.yul\":457:574   */\n    tag_17:\n        /* \"#utility.yul\":566:567   */\n      0x00\n        /* \"#utility.yul\":563:564   */\n      dup1\n        /* \"#utility.yul\":556:568   */\n      revert\n        /* \"#utility.yul\":580:682   */\n    tag_18:\n        /* \"#utility.yul\":621:627   */\n      0x00\n        /* \"#utility.yul\":672:674   */\n      0x1f\n        /* \"#utility.yul\":668:675   */\n      not\n        /* \"#utility.yul\":663:665   */\n      0x1f\n        /* \"#utility.yul\":656:661   */\n      dup4\n        /* \"#utility.yul\":652:666   */\n      add\n        /* \"#utility.yul\":648:676   */\n      and\n        /* \"#utility.yul\":638:676   */\n      swap1\n      pop\n        /* \"#utility.yul\":580:682   */\n      swap2\n      swap1\n      pop\n      jump\t// out\n        /* \"#utility.yul\":688:868   */\n    tag_19:\n        /* \"#utility.yul\":736:813   */\n      0x4e487b7100000000000000000000000000000000000000000000000000000000\n        /* \"#utility.yul\":733:734   */\n      0x00\n        /* \"#utility.yul\":726:814   */\n      mstore\n        /* \"#utility.yul\":833:837   */\n      0x41\n        /* \"#utility.yul\":830:831   */\n      0x04\n        /* \"#utility.yul\":823:838   */\n      mstore\n        /* \"#utility.yul\":857:861   */\n      0x24\n        /* \"#utility.yul\":854:855   */\n      0x00\n        /* \"#utility.yul\":847:862   */\n      revert\n        /* \"#utility.yul\":874:1155   */\n    tag_20:\n        /* \"#utility.yul\":957:984   */\n      tag_54\n        /* \"#utility.yul\":979:983   */\n      dup3\n        /* \"#utility.yul\":957:984   */\n      tag_18\n      jump\t// in\n    tag_54:\n        /* \"#utility.yul\":949:955   */\n      dup2\n        /* \"#utility.yul\":945:985   */\n      add\n        /* \"#utility.yul\":1087:1093   */\n      dup2\n        /* \"#utility.yul\":1075:1085   */\n      dup2\n        /* \"#utility.yul\":1072:1094   */\n      lt\n        /* \"#utility.yul\":1051:1069   */\n      0xffffffffffffffff\n        /* \"#utility.yul\":1039:1049   */\n      dup3\n        /* \"#utility.yul\":1036:1070   */\n      gt\n        /* \"#utility.yul\":1033:1095   */\n      or\n        /* \"#utility.yul\":1030:1118   */\n      iszero\n      tag_55\n      jumpi\n        /* \"#utility.yul\":1098:1116   */\n      tag_56\n      tag_19\n      jump\t// in\n    tag_56:\n        /* \"#utility.yul\":1030:1118   */\n    tag_55:\n        /* \"#utility.yul\":1138:1148   */\n      dup1\n        /* \"#utility.yul\":1134:1136   */\n      0x40\n        /* \"#utility.yul\":1127:1149   */\n      mstore\n        /* \"#utility.yul\":917:1155   */\n      pop\n        /* \"#utility.yul\":874:1155   */\n      pop\n      pop\n      jump\t// out\n        /* \"#utility.yul\":1161:1290   */\n    tag_21:\n        /* \"#utility.yul\":1195:1201   */\n      0x00\n        /* \"#utility.yul\":1222:1242   */\n      tag_58\n      tag_13\n      jump\t// in\n    tag_58:\n        /* \"#utility.yul\":1212:1242   */\n      swap1\n      pop\n        /* \"#utility.yul\":1251:1284   */\n      tag_59\n        /* \"#utility.yul\":1279:1283   */\n      dup3\n        /* \"#utility.yul\":1271:1277   */\n      dup3\n        /* \"#utility.yul\":1251:1284   */\n      tag_20\n      jump\t// in\n    tag_59:\n        /* \"#utility.yul\":1161:1290   */\n      swap2\n      swap1\n      pop\n      jump\t// out\n        /* \"#utility.yul\":1296:1604   */\n    tag_22:\n        /* \"#utility.yul\":1358:1362   */\n      0x00\n        /* \"#utility.yul\":1448:1466   */\n      0xffffffffffffffff\n        /* \"#utility.yul\":1440:1446   */\n      dup3\n        /* \"#utility.yul\":1437:1467   */\n      gt\n        /* \"#utility.yul\":1434:1490   */\n      iszero\n      tag_61\n      jumpi\n        /* \"#utility.yul\":1470:1488   */\n      tag_62\n      tag_19\n      jump\t// in\n    tag_62:\n        /* \"#utility.yul\":1434:1490   */\n    tag_61:\n        /* \"#utility.yul\":1508:1537   */\n      tag_63\n        /* \"#utility.yul\":1530:1536   */\n      dup3\n        /* \"#utility.yul\":1508:1537   */\n      tag_18\n      jump\t// in\n    tag_63:\n        /* \"#utility.yul\":1500:1537   */\n      swap1\n      pop\n        /* \"#utility.yul\":1592:1596   */\n      0x20\n        /* \"#utility.yul\":1586:1590   */\n      dup2\n        /* \"#utility.yul\":1582:1597   */\n      add\n        /* \"#utility.yul\":1574:1597   */\n      swap1\n      pop\n        /* \"#utility.yul\":1296:1604   */\n      swap2\n      swap1\n      pop\n      jump\t// out\n        /* \"#utility.yul\":1610:1758   */\n    tag_23:\n        /* \"#utility.yul\":1708:1714   */\n      dup3\n        /* \"#utility.yul\":1703:1706   */\n      dup2\n        /* \"#utility.yul\":1698:1701   */\n      dup4\n        /* \"#utility.yul\":1685:1715   */\n      calldatacopy\n        /* \"#utility.yul\":1749:1750   */\n      0x00\n        /* \"#utility.yul\":1740:1746   */\n      dup4\n        /* \"#utility.yul\":1735:1738   */\n      dup4\n        /* \"#utility.yul\":1731:1747   */\n      add\n        /* \"#utility.yul\":1724:1751   */\n      mstore\n        /* \"#utility.yul\":1610:1758   */\n      pop\n      pop\n      pop\n      jump\t// out\n        /* \"#utility.yul\":1764:2189   */\n    tag_24:\n        /* \"#utility.yul\":1842:1847   */\n      0x00\n        /* \"#utility.yul\":1867:1933   */\n      tag_66\n        /* \"#utility.yul\":1883:1932   */\n      tag_67\n        /* \"#utility.yul\":1925:1931   */\n      dup5\n        /* \"#utility.yul\":1883:1932   */\n      tag_22\n      jump\t// in\n    tag_67:\n        /* \"#utility.yul\":1867:1933   */\n      tag_21\n      jump\t// in\n    tag_66:\n        /* \"#utility.yul\":1858:1933   */\n      swap1\n      pop\n        /* \"#utility.yul\":1956:1962   */\n      dup3\n        /* \"#utility.yul\":1949:1954   */\n      dup2\n        /* \"#utility.yul\":1942:1963   */\n      mstore\n        /* \"#utility.yul\":1994:1998   */\n      0x20\n        /* \"#utility.yul\":1987:1992   */\n      dup2\n        /* \"#utility.yul\":1983:1999   */\n      add\n        /* \"#utility.yul\":2032:2035   */\n      dup5\n        /* \"#utility.yul\":2023:2029   */\n      dup5\n        /* \"#utility.yul\":2018:2021   */\n      dup5\n        /* \"#utility.yul\":2014:2030   */\n      add\n        /* \"#utility.yul\":2011:2036   */\n      gt\n        /* \"#utility.yul\":2008:2120   */\n      iszero\n      tag_68\n      jumpi\n        /* \"#utility.yul\":2039:2118   */\n      tag_69\n      tag_17\n      jump\t// in\n    tag_69:\n        /* \"#utility.yul\":2008:2120   */\n    tag_68:\n        /* \"#utility.yul\":2129:2183   */\n      tag_70\n        /* \"#utility.yul\":2176:2182   */\n      dup5\n        /* \"#utility.yul\":2171:2174   */\n      dup3\n        /* \"#utility.yul\":2166:2169   */\n      dup6\n        /* \"#utility.yul\":2129:2183   */\n      tag_23\n      jump\t// in\n    tag_70:\n        /* \"#utility.yul\":1848:2189   */\n      pop\n        /* \"#utility.yul\":1764:2189   */\n      swap4\n      swap3\n      pop\n      pop\n      pop\n      jump\t// out\n        /* \"#utility.yul\":2209:2549   */\n    tag_25:\n        /* \"#utility.yul\":2265:2270   */\n      0x00\n        /* \"#utility.yul\":2314:2317   */\n      dup3\n        /* \"#utility.yul\":2307:2311   */\n      0x1f\n        /* \"#utility.yul\":2299:2305   */\n      dup4\n        /* \"#utility.yul\":2295:2312   */\n      add\n        /* \"#utility.yul\":2291:2318   */\n      slt\n        /* \"#utility.yul\":2281:2403   */\n      tag_72\n      jumpi\n        /* \"#utility.yul\":2322:2401   */\n      tag_73\n      tag_16\n      jump\t// in\n    tag_73:\n        /* \"#utility.yul\":2281:2403   */\n    tag_72:\n        /* \"#utility.yul\":2439:2445   */\n      dup2\n        /* \"#utility.yul\":2426:2446   */\n      calldataload\n        /* \"#utility.yul\":2464:2543   */\n      tag_74\n        /* \"#utility.yul\":2539:2542   */\n      dup5\n        /* \"#utility.yul\":2531:2537   */\n      dup3\n        /* \"#utility.yul\":2524:2528   */\n      0x20\n        /* \"#utility.yul\":2516:2522   */\n      dup7\n        /* \"#utility.yul\":2512:2529   */\n      add\n        /* \"#utility.yul\":2464:2543   */\n      tag_24\n      jump\t// in\n    tag_74:\n        /* \"#utility.yul\":2455:2543   */\n      swap2\n      pop\n        /* \"#utility.yul\":2271:2549   */\n      pop\n        /* \"#utility.yul\":2209:2549   */\n      swap3\n      swap2\n      pop\n      pop\n      jump\t// out\n        /* \"#utility.yul\":2555:2632   */\n    tag_26:\n        /* \"#utility.yul\":2592:2599   */\n      0x00\n        /* \"#utility.yul\":2621:2626   */\n      dup2\n        /* \"#utility.yul\":2610:2626   */\n      swap1\n      pop\n        /* \"#utility.yul\":2555:2632   */\n      swap2\n      swap1\n      pop\n      jump\t// out\n        /* \"#utility.yul\":2638:2760   */\n    tag_27:\n        /* \"#utility.yul\":2711:2735   */\n      tag_77\n        /* \"#utility.yul\":2729:2734   */\n      dup2\n        /* \"#utility.yul\":2711:2735   */\n      tag_26\n      jump\t// in\n    tag_77:\n        /* \"#utility.yul\":2704:2709   */\n      dup2\n        /* \"#utility.yul\":2701:2736   */\n      eq\n        /* \"#utility.yul\":2691:2754   */\n      tag_78\n      jumpi\n        /* \"#utility.yul\":2750:2751   */\n      0x00\n        /* \"#utility.yul\":2747:2748   */\n      dup1\n        /* \"#utility.yul\":2740:2752   */\n      revert\n        /* \"#utility.yul\":2691:2754   */\n    tag_78:\n        /* \"#utility.yul\":2638:2760   */\n      pop\n      jump\t// out\n        /* \"#utility.yul\":2766:2905   */\n    tag_28:\n        /* \"#utility.yul\":2812:2817   */\n      0x00\n        /* \"#utility.yul\":2850:2856   */\n      dup2\n        /* \"#utility.yul\":2837:2857   */\n      calldataload\n        /* \"#utility.yul\":2828:2857   */\n      swap1\n      pop\n        /* \"#utility.yul\":2866:2899   */\n      tag_80\n        /* \"#utility.yul\":2893:2898   */\n      dup2\n        /* \"#utility.yul\":2866:2899   */\n      tag_27\n      jump\t// in\n    tag_80:\n        /* \"#utility.yul\":2766:2905   */\n      swap3\n      swap2\n      pop\n      pop\n      jump\t// out\n        /* \"#utility.yul\":2911:3037   */\n    tag_29:\n        /* \"#utility.yul\":2948:2955   */\n      0x00\n        /* \"#utility.yul\":2988:3030   */\n      0xffffffffffffffffffffffffffffffffffffffff\n        /* \"#utility.yul\":2981:2986   */\n      dup3\n        /* \"#utility.yul\":2977:3031   */\n      and\n        /* \"#utility.yul\":2966:3031   */\n      swap1\n      pop\n        /* \"#utility.yul\":2911:3037   */\n      swap2\n      swap1\n      pop\n      jump\t// out\n        /* \"#utility.yul\":3043:3139   */\n    tag_30:\n        /* \"#utility.yul\":3080:3087   */\n      0x00\n        /* \"#utility.yul\":3109:3133   */\n      tag_83\n        /* \"#utility.yul\":3127:3132   */\n      dup3\n        /* \"#utility.yul\":3109:3133   */\n      tag_29\n      jump\t// in\n    tag_83:\n        /* \"#utility.yul\":3098:3133   */\n      swap1\n      pop\n        /* \"#utility.yul\":3043:3139   */\n      swap2\n      swap1\n      pop\n      jump\t// out\n        /* \"#utility.yul\":3145:3267   */\n    tag_31:\n        /* \"#utility.yul\":3218:3242   */\n      tag_85\n        /* \"#utility.yul\":3236:3241   */\n      dup2\n        /* \"#utility.yul\":3218:3242   */\n      tag_30\n      jump\t// in\n    tag_85:\n        /* \"#utility.yul\":3211:3216   */\n      dup2\n        /* \"#utility.yul\":3208:3243   */\n      eq\n        /* \"#utility.yul\":3198:3261   */\n      tag_86\n      jumpi\n        /* \"#utility.yul\":3257:3258   */\n      0x00\n        /* \"#utility.yul\":3254:3255   */\n      dup1\n        /* \"#utility.yul\":3247:3259   */\n      revert\n        /* \"#utility.yul\":3198:3261   */\n    tag_86:\n        /* \"#utility.yul\":3145:3267   */\n      pop\n      jump\t// out\n        /* \"#utility.yul\":3273:3412   */\n    tag_32:\n        /* \"#utility.yul\":3319:3324   */\n      0x00\n        /* \"#utility.yul\":3357:3363   */\n      dup2\n        /* \"#utility.yul\":3344:3364   */\n      calldataload\n        /* \"#utility.yul\":3335:3364   */\n      swap1\n      pop\n        /* \"#utility.yul\":3373:3406   */\n      tag_88\n        /* \"#utility.yul\":3400:3405   */\n      dup2\n        /* \"#utility.yul\":3373:3406   */\n      tag_31\n      jump\t// in\n    tag_88:\n        /* \"#utility.yul\":3273:3412   */\n      swap3\n      swap2\n      pop\n      pop\n      jump\t// out\n        /* \"#utility.yul\":3418:4217   */\n    tag_6:\n        /* \"#utility.yul\":3505:3511   */\n      0x00\n        /* \"#utility.yul\":3513:3519   */\n      dup1\n        /* \"#utility.yul\":3521:3527   */\n      0x00\n        /* \"#utility.yul\":3570:3572   */\n      0x60\n        /* \"#utility.yul\":3558:3567   */\n      dup5\n        /* \"#utility.yul\":3549:3556   */\n      dup7\n        /* \"#utility.yul\":3545:3568   */\n      sub\n        /* \"#utility.yul\":3541:3573   */\n      slt\n        /* \"#utility.yul\":3538:3657   */\n      iszero\n      tag_90\n      jumpi\n        /* \"#utility.yul\":3576:3655   */\n      tag_91\n      tag_14\n      jump\t// in\n    tag_91:\n        /* \"#utility.yul\":3538:3657   */\n    tag_90:\n        /* \"#utility.yul\":3724:3725   */\n      0x00\n        /* \"#utility.yul\":3713:3722   */\n      dup5\n        /* \"#utility.yul\":3709:3726   */\n      add\n        /* \"#utility.yul\":3696:3727   */\n      calldataload\n        /* \"#utility.yul\":3754:3772   */\n      0xffffffffffffffff\n        /* \"#utility.yul\":3746:3752   */\n      dup2\n        /* \"#utility.yul\":3743:3773   */\n      gt\n        /* \"#utility.yul\":3740:3857   */\n      iszero\n      tag_92\n      jumpi\n        /* \"#utility.yul\":3776:3855   */\n      tag_93\n      tag_15\n      jump\t// in\n    tag_93:\n        /* \"#utility.yul\":3740:3857   */\n    tag_92:\n        /* \"#utility.yul\":3881:3944   */\n      tag_94\n        /* \"#utility.yul\":3936:3943   */\n      dup7\n        /* \"#utility.yul\":3927:3933   */\n      dup3\n        /* \"#utility.yul\":3916:3925   */\n      dup8\n        /* \"#utility.yul\":3912:3934   */\n      add\n        /* \"#utility.yul\":3881:3944   */\n      tag_25\n      jump\t// in\n    tag_94:\n        /* \"#utility.yul\":3871:3944   */\n      swap4\n      pop\n        /* \"#utility.yul\":3667:3954   */\n      pop\n        /* \"#utility.yul\":3993:3995   */\n      0x20\n        /* \"#utility.yul\":4019:4072   */\n      tag_95\n        /* \"#utility.yul\":4064:4071   */\n      dup7\n        /* \"#utility.yul\":4055:4061   */\n      dup3\n        /* \"#utility.yul\":4044:4053   */\n      dup8\n        /* \"#utility.yul\":4040:4062   */\n      add\n        /* \"#utility.yul\":4019:4072   */\n      tag_28\n      jump\t// in\n    tag_95:\n        /* \"#utility.yul\":4009:4072   */\n      swap3\n      pop\n        /* \"#utility.yul\":3964:4082   */\n      pop\n        /* \"#utility.yul\":4121:4123   */\n      0x40\n        /* \"#utility.yul\":4147:4200   */\n      tag_96\n        /* \"#utility.yul\":4192:4199   */\n      dup7\n        /* \"#utility.yul\":4183:4189   */\n      dup3\n        /* \"#utility.yul\":4172:4181   */\n      dup8\n        /* \"#utility.yul\":4168:4190   */\n      add\n        /* \"#utility.yul\":4147:4200   */\n      tag_32\n      jump\t// in\n    tag_96:\n        /* \"#utility.yul\":4137:4200   */\n      swap2\n      pop\n        /* \"#utility.yul\":4092:4210   */\n      pop\n        /* \"#utility.yul\":3418:4217   */\n      swap3\n      pop\n      swap3\n      pop\n      swap3\n      jump\t// out\n        /* \"#utility.yul\":4223:4300   */\n    tag_33:\n        /* \"#utility.yul\":4260:4267   */\n      0x00\n        /* \"#utility.yul\":4289:4294   */\n      dup2\n        /* \"#utility.yul\":4278:4294   */\n      swap1\n      pop\n        /* \"#utility.yul\":4223:4300   */\n      swap2\n      swap1\n      pop\n      jump\t// out\n        /* \"#utility.yul\":4306:4424   */\n    tag_34:\n        /* \"#utility.yul\":4393:4417   */\n      tag_99\n        /* \"#utility.yul\":4411:4416   */\n      dup2\n        /* \"#utility.yul\":4393:4417   */\n      tag_33\n      jump\t// in\n    tag_99:\n        /* \"#utility.yul\":4388:4391   */\n      dup3\n        /* \"#utility.yul\":4381:4418   */\n      mstore\n        /* \"#utility.yul\":4306:4424   */\n      pop\n      pop\n      jump\t// out\n        /* \"#utility.yul\":4430:4652   */\n    tag_9:\n        /* \"#utility.yul\":4523:4527   */\n      0x00\n        /* \"#utility.yul\":4561:4563   */\n      0x20\n        /* \"#utility.yul\":4550:4559   */\n      dup3\n        /* \"#utility.yul\":4546:4564   */\n      add\n        /* \"#utility.yul\":4538:4564   */\n      swap1\n      pop\n        /* \"#utility.yul\":4574:4645   */\n      tag_101\n        /* \"#utility.yul\":4642:4643   */\n      0x00\n        /* \"#utility.yul\":4631:4640   */\n      dup4\n        /* \"#utility.yul\":4627:4644   */\n      add\n        /* \"#utility.yul\":4618:4624   */\n      dup5\n        /* \"#utility.yul\":4574:4645   */\n      tag_34\n      jump\t// in\n    tag_101:\n        /* \"#utility.yul\":4430:4652   */\n      swap3\n      swap2\n      pop\n      pop\n      jump\t// out\n        /* \"#utility.yul\":4658:4757   */\n    tag_35:\n        /* \"#utility.yul\":4710:4716   */\n      0x00\n        /* \"#utility.yul\":4744:4749   */\n      dup2\n        /* \"#utility.yul\":4738:4750   */\n      mload\n        /* \"#utility.yul\":4728:4750   */\n      swap1\n      pop\n        /* \"#utility.yul\":4658:4757   */\n      swap2\n      swap1\n      pop\n      jump\t// out\n        /* \"#utility.yul\":4763:4911   */\n    tag_36:\n        /* \"#utility.yul\":4865:4876   */\n      0x00\n        /* \"#utility.yul\":4902:4905   */\n      dup2\n        /* \"#utility.yul\":4887:4905   */\n      swap1\n      pop\n        /* \"#utility.yul\":4763:4911   */\n      swap3\n      swap2\n      pop\n      pop\n      jump\t// out\n        /* \"#utility.yul\":4917:5056   */\n    tag_37:\n        /* \"#utility.yul\":5006:5012   */\n      dup3\n        /* \"#utility.yul\":5001:5004   */\n      dup2\n        /* \"#utility.yul\":4996:4999   */\n      dup4\n        /* \"#utility.yul\":4990:5013   */\n      mcopy\n        /* \"#utility.yul\":5047:5048   */\n      0x00\n        /* \"#utility.yul\":5038:5044   */\n      dup4\n        /* \"#utility.yul\":5033:5036   */\n      dup4\n        /* \"#utility.yul\":5029:5045   */\n      add\n        /* \"#utility.yul\":5022:5049   */\n      mstore\n        /* \"#utility.yul\":4917:5056   */\n      pop\n      pop\n      pop\n      jump\t// out\n        /* \"#utility.yul\":5062:5452   */\n    tag_38:\n        /* \"#utility.yul\":5168:5171   */\n      0x00\n        /* \"#utility.yul\":5196:5235   */\n      tag_106\n        /* \"#utility.yul\":5229:5234   */\n      dup3\n        /* \"#utility.yul\":5196:5235   */\n      tag_35\n      jump\t// in\n    tag_106:\n        /* \"#utility.yul\":5251:5340   */\n      tag_107\n        /* \"#utility.yul\":5333:5339   */\n      dup2\n        /* \"#utility.yul\":5328:5331   */\n      dup6\n        /* \"#utility.yul\":5251:5340   */\n      tag_36\n      jump\t// in\n    tag_107:\n        /* \"#utility.yul\":5244:5340   */\n      swap4\n      pop\n        /* \"#utility.yul\":5349:5414   */\n      tag_108\n        /* \"#utility.yul\":5407:5413   */\n      dup2\n        /* \"#utility.yul\":5402:5405   */\n      dup6\n        /* \"#utility.yul\":5395:5399   */\n      0x20\n        /* \"#utility.yul\":5388:5393   */\n      dup7\n        /* \"#utility.yul\":5384:5400   */\n      add\n        /* \"#utility.yul\":5349:5414   */\n      tag_37\n      jump\t// in\n    tag_108:\n        /* \"#utility.yul\":5439:5445   */\n      dup1\n        /* \"#utility.yul\":5434:5437   */\n      dup5\n        /* \"#utility.yul\":5430:5446   */\n      add\n        /* \"#utility.yul\":5423:5446   */\n      swap2\n      pop\n        /* \"#utility.yul\":5172:5452   */\n      pop\n        /* \"#utility.yul\":5062:5452   */\n      swap3\n      swap2\n      pop\n      pop\n      jump\t// out\n        /* \"#utility.yul\":5458:5537   */\n    tag_39:\n        /* \"#utility.yul\":5497:5504   */\n      0x00\n        /* \"#utility.yul\":5526:5531   */\n      dup2\n        /* \"#utility.yul\":5515:5531   */\n      swap1\n      pop\n        /* \"#utility.yul\":5458:5537   */\n      swap2\n      swap1\n      pop\n      jump\t// out\n        /* \"#utility.yul\":5543:5700   */\n    tag_40:\n        /* \"#utility.yul\":5648:5693   */\n      tag_111\n        /* \"#utility.yul\":5668:5692   */\n      tag_112\n        /* \"#utility.yul\":5686:5691   */\n      dup3\n        /* \"#utility.yul\":5668:5692   */\n      tag_26\n      jump\t// in\n    tag_112:\n        /* \"#utility.yul\":5648:5693   */\n      tag_39\n      jump\t// in\n    tag_111:\n        /* \"#utility.yul\":5643:5646   */\n      dup3\n        /* \"#utility.yul\":5636:5694   */\n      mstore\n        /* \"#utility.yul\":5543:5700   */\n      pop\n      pop\n      jump\t// out\n        /* \"#utility.yul\":5706:5800   */\n    tag_41:\n        /* \"#utility.yul\":5739:5747   */\n      0x00\n        /* \"#utility.yul\":5787:5792   */\n      dup2\n        /* \"#utility.yul\":5783:5785   */\n      0x60\n        /* \"#utility.yul\":5779:5793   */\n      shl\n        /* \"#utility.yul\":5758:5793   */\n      swap1\n      pop\n        /* \"#utility.yul\":5706:5800   */\n      swap2\n      swap1\n      pop\n      jump\t// out\n        /* \"#utility.yul\":5806:5900   */\n    tag_42:\n        /* \"#utility.yul\":5845:5852   */\n      0x00\n        /* \"#utility.yul\":5874:5894   */\n      tag_115\n        /* \"#utility.yul\":5888:5893   */\n      dup3\n        /* \"#utility.yul\":5874:5894   */\n      tag_41\n      jump\t// in\n    tag_115:\n        /* \"#utility.yul\":5863:5894   */\n      swap1\n      pop\n        /* \"#utility.yul\":5806:5900   */\n      swap2\n      swap1\n      pop\n      jump\t// out\n        /* \"#utility.yul\":5906:6006   */\n    tag_43:\n        /* \"#utility.yul\":5945:5952   */\n      0x00\n        /* \"#utility.yul\":5974:6000   */\n      tag_117\n        /* \"#utility.yul\":5994:5999   */\n      dup3\n        /* \"#utility.yul\":5974:6000   */\n      tag_42\n      jump\t// in\n    tag_117:\n        /* \"#utility.yul\":5963:6000   */\n      swap1\n      pop\n        /* \"#utility.yul\":5906:6006   */\n      swap2\n      swap1\n      pop\n      jump\t// out\n        /* \"#utility.yul\":6012:6169   */\n    tag_44:\n        /* \"#utility.yul\":6117:6162   */\n      tag_119\n        /* \"#utility.yul\":6137:6161   */\n      tag_120\n        /* \"#utility.yul\":6155:6160   */\n      dup3\n        /* \"#utility.yul\":6137:6161   */\n      tag_30\n      jump\t// in\n    tag_120:\n        /* \"#utility.yul\":6117:6162   */\n      tag_43\n      jump\t// in\n    tag_119:\n        /* \"#utility.yul\":6112:6115   */\n      dup3\n        /* \"#utility.yul\":6105:6163   */\n      mstore\n        /* \"#utility.yul\":6012:6169   */\n      pop\n      pop\n      jump\t// out\n        /* \"#utility.yul\":6175:6732   */\n    tag_12:\n        /* \"#utility.yul\":6363:6366   */\n      0x00\n        /* \"#utility.yul\":6385:6480   */\n      tag_122\n        /* \"#utility.yul\":6476:6479   */\n      dup3\n        /* \"#utility.yul\":6467:6473   */\n      dup7\n        /* \"#utility.yul\":6385:6480   */\n      tag_38\n      jump\t// in\n    tag_122:\n        /* \"#utility.yul\":6378:6480   */\n      swap2\n      pop\n        /* \"#utility.yul\":6490:6565   */\n      tag_123\n        /* \"#utility.yul\":6561:6564   */\n      dup3\n        /* \"#utility.yul\":6552:6558   */\n      dup6\n        /* \"#utility.yul\":6490:6565   */\n      tag_40\n      jump\t// in\n    tag_123:\n        /* \"#utility.yul\":6590:6592   */\n      0x20\n        /* \"#utility.yul\":6585:6588   */\n      dup3\n        /* \"#utility.yul\":6581:6593   */\n      add\n        /* \"#utility.yul\":6574:6593   */\n      swap2\n      pop\n        /* \"#utility.yul\":6603:6678   */\n      tag_124\n        /* \"#utility.yul\":6674:6677   */\n      dup3\n        /* \"#utility.yul\":6665:6671   */\n      dup5\n        /* \"#utility.yul\":6603:6678   */\n      tag_44\n      jump\t// in\n    tag_124:\n        /* \"#utility.yul\":6703:6705   */\n      0x14\n        /* \"#utility.yul\":6698:6701   */\n      dup3\n        /* \"#utility.yul\":6694:6706   */\n      add\n        /* \"#utility.yul\":6687:6706   */\n      swap2\n      pop\n        /* \"#utility.yul\":6723:6726   */\n      dup2\n        /* \"#utility.yul\":6716:6726   */\n      swap1\n      pop\n        /* \"#utility.yul\":6175:6732   */\n      swap5\n      swap4\n      pop\n      pop\n      pop\n      pop\n      jump\t// out\n\n    auxdata: 0xa2646970667358221220169b0ab628cd03528bc11de8c5feaec2a79e7368023576681ac44d698d56df8264736f6c634300081a0033\n}\n",
				"bytecode": {
					"linkReferences": {},
					"object": "6080604052348015600e575f80fd5b5061042e8061001c5f395ff3fe608060405234801561000f575f80fd5b5060043610610029575f3560e01c80635dda416e1461002d575b5f80fd5b6100476004803603810190610042919061026c565b61005d565b60405161005491906102f0565b60405180910390f35b5f838383604051602001610073939291906103c0565b6040516020818303038152906040528051906020012090509392505050565b5f604051905090565b5f80fd5b5f80fd5b5f80fd5b5f80fd5b5f601f19601f8301169050919050565b7f4e487b71000000000000000000000000000000000000000000000000000000005f52604160045260245ffd5b6100f1826100ab565b810181811067ffffffffffffffff821117156101105761010f6100bb565b5b80604052505050565b5f610122610092565b905061012e82826100e8565b919050565b5f67ffffffffffffffff82111561014d5761014c6100bb565b5b610156826100ab565b9050602081019050919050565b828183375f83830152505050565b5f61018361017e84610133565b610119565b90508281526020810184848401111561019f5761019e6100a7565b5b6101aa848285610163565b509392505050565b5f82601f8301126101c6576101c56100a3565b5b81356101d6848260208601610171565b91505092915050565b5f819050919050565b6101f1816101df565b81146101fb575f80fd5b50565b5f8135905061020c816101e8565b92915050565b5f73ffffffffffffffffffffffffffffffffffffffff82169050919050565b5f61023b82610212565b9050919050565b61024b81610231565b8114610255575f80fd5b50565b5f8135905061026681610242565b92915050565b5f805f606084860312156102835761028261009b565b5b5f84013567ffffffffffffffff8111156102a05761029f61009f565b5b6102ac868287016101b2565b93505060206102bd868287016101fe565b92505060406102ce86828701610258565b9150509250925092565b5f819050919050565b6102ea816102d8565b82525050565b5f6020820190506103035f8301846102e1565b92915050565b5f81519050919050565b5f81905092915050565b8281835e5f83830152505050565b5f61033582610309565b61033f8185610313565b935061034f81856020860161031d565b80840191505092915050565b5f819050919050565b610375610370826101df565b61035b565b82525050565b5f8160601b9050919050565b5f6103918261037b565b9050919050565b5f6103a282610387565b9050919050565b6103ba6103b582610231565b610398565b82525050565b5f6103cb828661032b565b91506103d78285610364565b6020820191506103e782846103a9565b60148201915081905094935050505056fea2646970667358221220169b0ab628cd03528bc11de8c5feaec2a79e7368023576681ac44d698d56df8264736f6c634300081a0033",
					"opcodes": "PUSH1 0x80 PUSH1 0x40 MSTORE CALLVALUE DUP1 ISZERO PUSH1 0xE JUMPI PUSH0 DUP1 REVERT JUMPDEST POP PUSH2 0x42E DUP1 PUSH2 0x1C PUSH0 CODECOPY PUSH0 RETURN INVALID PUSH1 0x80 PUSH1 0x40 MSTORE CALLVALUE DUP1 ISZERO PUSH2 0xF JUMPI PUSH0 DUP1 REVERT JUMPDEST POP PUSH1 0x4 CALLDATASIZE LT PUSH2 0x29 JUMPI PUSH0 CALLDATALOAD PUSH1 0xE0 SHR DUP1 PUSH4 0x5DDA416E EQ PUSH2 0x2D JUMPI JUMPDEST PUSH0 DUP1 REVERT JUMPDEST PUSH2 0x47 PUSH1 0x4 DUP1 CALLDATASIZE SUB DUP2 ADD SWAP1 PUSH2 0x42 SWAP2 SWAP1 PUSH2 0x26C JUMP JUMPDEST PUSH2 0x5D JUMP JUMPDEST PUSH1 0x40 MLOAD PUSH2 0x54 SWAP2 SWAP1 PUSH2 0x2F0 JUMP JUMPDEST PUSH1 0x40 MLOAD DUP1 SWAP2 SUB SWAP1 RETURN JUMPDEST PUSH0 DUP4 DUP4 DUP4 PUSH1 0x40 MLOAD PUSH1 0x20 ADD PUSH2 0x73 SWAP4 SWAP3 SWAP2 SWAP1 PUSH2 0x3C0 JUMP JUMPDEST PUSH1 0x40 MLOAD PUSH1 0x20 DUP2 DUP4 SUB SUB DUP2 MSTORE SWAP1 PUSH1 0x40 MSTORE DUP1 MLOAD SWAP1 PUSH1 0x20 ADD KECCAK256 SWAP1 POP SWAP4 SWAP3 POP POP POP JUMP JUMPDEST PUSH0 PUSH1 0x40 MLOAD SWAP1 POP SWAP1 JUMP JUMPDEST PUSH0 DUP1 REVERT JUMPDEST PUSH0 DUP1 REVERT JUMPDEST PUSH0 DUP1 REVERT JUMPDEST PUSH0 DUP1 REVERT JUMPDEST PUSH0 PUSH1 0x1F NOT PUSH1 0x1F DUP4 ADD AND SWAP1 POP SWAP2 SWAP1 POP JUMP JUMPDEST PUSH32 0x4E487B7100000000000000000000000000000000000000000000000000000000 PUSH0 MSTORE PUSH1 0x41 PUSH1 0x4 MSTORE PUSH1 0x24 PUSH0 REVERT JUMPDEST PUSH2 0xF1 DUP3 PUSH2 0xAB JUMP JUMPDEST DUP2 ADD DUP2 DUP2 LT PUSH8 0xFFFFFFFFFFFFFFFF DUP3 GT OR ISZERO PUSH2 0x110 JUMPI PUSH2 0x10F PUSH2 0xBB JUMP JUMPDEST JUMPDEST DUP1 PUSH1 0x40 MSTORE POP POP POP JUMP JUMPDEST PUSH0 PUSH2 0x122 PUSH2 0x92 JUMP JUMPDEST SWAP1 POP PUSH2 0x12E DUP3 DUP3 PUSH2 0xE8 JUMP JUMPDEST SWAP2 SWAP1 POP JUMP JUMPDEST PUSH0 PUSH8 0xFFFFFFFFFFFFFFFF DUP3 GT ISZERO PUSH2 0x14D JUMPI PUSH2 0x14C PUSH2 0xBB JUMP JUMPDEST JUMPDEST PUSH2 0x156 DUP3 PUSH2 0xAB JUMP JUMPDEST SWAP1 POP PUSH1 0x20 DUP2 ADD SWAP1 POP SWAP2 SWAP1 POP JUMP JUMPDEST DUP3 DUP2 DUP4 CALLDATACOPY PUSH0 DUP4 DUP4 ADD MSTORE POP POP POP JUMP JUMPDEST PUSH0 PUSH2 0x183 PUSH2 0x17E DUP5 PUSH2 0x133 JUMP JUMPDEST PUSH2 0x119 JUMP JUMPDEST SWAP1 POP DUP3 DUP2 MSTORE PUSH1 0x20 DUP2 ADD DUP5 DUP5 DUP5 ADD GT ISZERO PUSH2 0x19F JUMPI PUSH2 0x19E PUSH2 0xA7 JUMP JUMPDEST JUMPDEST PUSH2 0x1AA DUP5 DUP3 DUP6 PUSH2 0x163 JUMP JUMPDEST POP SWAP4 SWAP3 POP POP POP JUMP JUMPDEST PUSH0 DUP3 PUSH1 0x1F DUP4 ADD SLT PUSH2 0x1C6 JUMPI PUSH2 0x1C5 PUSH2 0xA3 JUMP JUMPDEST JUMPDEST DUP2 CALLDATALOAD PUSH2 0x1D6 DUP5 DUP3 PUSH1 0x20 DUP7 ADD PUSH2 0x171 JUMP JUMPDEST SWAP2 POP POP SWAP3 SWAP2 POP POP JUMP JUMPDEST PUSH0 DUP2 SWAP1 POP SWAP2 SWAP1 POP JUMP JUMPDEST PUSH2 0x1F1 DUP2 PUSH2 0x1DF JUMP JUMPDEST DUP2 EQ PUSH2 0x1FB JUMPI PUSH0 DUP1 REVERT JUMPDEST POP JUMP JUMPDEST PUSH0 DUP2 CALLDATALOAD SWAP1 POP PUSH2 0x20C DUP2 PUSH2 0x1E8 JUMP JUMPDEST SWAP3 SWAP2 POP POP JUMP JUMPDEST PUSH0 PUSH20 0xFFFFFFFFFFFFFFFFFFFFFFFFFFFFFFFFFFFFFFFF DUP3 AND SWAP1 POP SWAP2 SWAP1 POP JUMP JUMPDEST PUSH0 PUSH2 0x23B DUP3 PUSH2 0x212 JUMP JUMPDEST SWAP1 POP SWAP2 SWAP1 POP JUMP JUMPDEST PUSH2 0x24B DUP2 PUSH2 0x231 JUMP JUMPDEST DUP2 EQ PUSH2 0x255 JUMPI PUSH0 DUP1 REVERT JUMPDEST POP JUMP JUMPDEST PUSH0 DUP2 CALLDATALOAD SWAP1 POP PUSH2 0x266 DUP2 PUSH2 0x242 JUMP JUMPDEST SWAP3 SWAP2 POP POP JUMP JUMPDEST PUSH0 DUP1 PUSH0 PUSH1 0x60 DUP5 DUP7 SUB SLT ISZERO PUSH2 0x283 JUMPI PUSH2 0x282 PUSH2 0x9B JUMP JUMPDEST JUMPDEST PUSH0 DUP5 ADD CALLDATALOAD PUSH8 0xFFFFFFFFFFFFFFFF DUP2 GT ISZERO PUSH2 0x2A0 JUMPI PUSH2 0x29F PUSH2 0x9F JUMP JUMPDEST JUMPDEST PUSH2 0x2AC DUP7 DUP3 DUP8 ADD PUSH2 0x1B2 JUMP JUMPDEST SWAP4 POP POP PUSH1 0x20 PUSH2 0x2BD DUP7 DUP3 DUP8 ADD PUSH2 0x1FE JUMP JUMPDEST SWAP3 POP POP PUSH1 0x40 PUSH2 0x2CE DUP7 DUP3 DUP8 ADD PUSH2 0x258 JUMP JUMPDEST SWAP2 POP POP SWAP3 POP SWAP3 POP SWAP3 JUMP JUMPDEST PUSH0 DUP2 SWAP1 POP SWAP2 SWAP1 POP JUMP JUMPDEST PUSH2 0x2EA DUP2 PUSH2 0x2D8 JUMP JUMPDEST DUP3 MSTORE POP POP JUMP JUMPDEST PUSH0 PUSH1 0x20 DUP3 ADD SWAP1 POP PUSH2 0x303 PUSH0 DUP4 ADD DUP5 PUSH2 0x2E1 JUMP JUMPDEST SWAP3 SWAP2 POP POP JUMP JUMPDEST PUSH0 DUP2 MLOAD SWAP1 POP SWAP2 SWAP1 POP JUMP JUMPDEST PUSH0 DUP2 SWAP1 POP SWAP3 SWAP2 POP POP JUMP JUMPDEST DUP3 DUP2 DUP4 MCOPY PUSH0 DUP4 DUP4 ADD MSTORE POP POP POP JUMP JUMPDEST PUSH0 PUSH2 0x335 DUP3 PUSH2 0x309 JUMP JUMPDEST PUSH2 0x33F DUP2 DUP6 PUSH2 0x313 JUMP JUMPDEST SWAP4 POP PUSH2 0x34F DUP2 DUP6 PUSH1 0x20 DUP7 ADD PUSH2 0x31D JUMP JUMPDEST DUP1 DUP5 ADD SWAP2 POP POP SWAP3 SWAP2 POP POP JUMP JUMPDEST PUSH0 DUP2 SWAP1 POP SWAP2 SWAP1 POP JUMP JUMPDEST PUSH2 0x375 PUSH2 0x370 DUP3 PUSH2 0x1DF JUMP JUMPDEST PUSH2 0x35B JUMP JUMPDEST DUP3 MSTORE POP POP JUMP JUMPDEST PUSH0 DUP2 PUSH1 0x60 SHL SWAP1 POP SWAP2 SWAP1 POP JUMP JUMPDEST PUSH0 PUSH2 0x391 DUP3 PUSH2 0x37B JUMP JUMPDEST SWAP1 POP SWAP2 SWAP1 POP JUMP JUMPDEST PUSH0 PUSH2 0x3A2 DUP3 PUSH2 0x387 JUMP JUMPDEST SWAP1 POP SWAP2 SWAP1 POP JUMP JUMPDEST PUSH2 0x3BA PUSH2 0x3B5 DUP3 PUSH2 0x231 JUMP JUMPDEST PUSH2 0x398 JUMP JUMPDEST DUP3 MSTORE POP POP JUMP JUMPDEST PUSH0 PUSH2 0x3CB DUP3 DUP7 PUSH2 0x32B JUMP JUMPDEST SWAP2 POP PUSH2 0x3D7 DUP3 DUP6 PUSH2 0x364 JUMP JUMPDEST PUSH1 0x20 DUP3 ADD SWAP2 POP PUSH2 0x3E7 DUP3 DUP5 PUSH2 0x3A9 JUMP JUMPDEST PUSH1 0x14 DUP3 ADD SWAP2 POP DUP2 SWAP1 POP SWAP5 SWAP4 POP POP POP POP JUMP INVALID LOG2 PUSH5 0x6970667358 0x22 SLT KECCAK256 AND SWAP12 EXP 0xB6 0x28 0xCD SUB MSTORE DUP12 0xC1 SAR 0xE8 0xC5 INVALID 0xAE 0xC2 0xA7 SWAP15 PUSH20 0x68023576681AC44D698D56DF8264736F6C634300 ADDMOD BYTE STOP CALLER "
				},
				"gasEstimates": {
					"creation": {
						"codeDepositCost": "214000",
						"executionCost": "255",
						"totalCost": "214255"
					},
					"external": {
						"hash(string,uint256,address)": "infinite"
					}
				},
				"methodIdentifiers": {
					"hash(string,uint256,address)": "5dda416e"
				}
			},
			"storageLayout": {
				"storage": [],
				"types": null
			},
			"userdoc": {
				"kind": "user",
				"methods": {},
				"version": 1
			}
		}
	}
}