{
	"4w/046Hash.sol": {
		"HashFunc": {
			"abi": [
				{
					"inputs": [
						{
							"internalType": "string",
							"name": "text0",
							"type": "string"
						},
						{
							"internalType": "uint256",
							"name": "x",
							"type": "uint256"
						},
						{
							"internalType": "string",
							"name": "text1",
							"type": "string"
						}
					],
					"name": "collision",
					"outputs": [
						{
							"internalType": "bytes32",
							"name": "",
							"type": "bytes32"
						}
					],
					"stateMutability": "pure",
					"type": "function"
				},
				{
					"inputs": [
						{
							"internalType": "string",
							"name": "text0",
							"type": "string"
						},
						{
							"internalType": "string",
							"name": "text1",
							"type": "string"
						}
					],
					"name": "encode",
					"outputs": [
						{
							"internalType": "bytes",
							"name": "",
							"type": "bytes"
						}
					],
					"stateMutability": "pure",
					"type": "function"
				},
				{
					"inputs": [
						{
							"internalType": "string",
							"name": "text0",
							"type": "string"
						},
						{
							"internalType": "string",
							"name": "text1",
							"type": "string"
						}
					],
					"name": "encodePacked",
					"outputs": [
						{
							"internalType": "bytes",
							"name": "",
							"type": "bytes"
						}
					],
					"stateMutability": "pure",
					"type": "function"
				},
				{
					"inputs": [
						{
							"internalType": "string",
							"name": "text",
							"type": "string"
						},
						{
							"internalType": "uint256",
							"name": "num",
							"type": "uint256"
						},
						{
							"internalType": "address",
							"name": "addr",
							"type": "address"
						}
					],
					"name": "hash",
					"outputs": [
						{
							"internalType": "bytes32",
							"name": "",
							"type": "bytes32"
						}
					],
					"stateMutability": "pure",
					"type": "function"
				}
			],
			"devdoc": {
				"kind": "dev",
				"methods": {},
				"version": 1
			},
			"evm": {
				"assembly": "    /* \"4w/046Hash.sol\":57:952  contract HashFunc {... */\n  mstore(0x40, 0x80)\n  callvalue\n  dup1\n  iszero\n  tag_1\n  jumpi\n  0x00\n  dup1\n  revert\ntag_1:\n  pop\n  dataSize(sub_0)\n  dup1\n  dataOffset(sub_0)\n  0x00\n  codecopy\n  0x00\n  return\nstop\n\nsub_0: assembly {\n        /* \"4w/046Hash.sol\":57:952  contract HashFunc {... */\n      mstore(0x40, 0x80)\n      callvalue\n      dup1\n      iszero\n      tag_1\n      jumpi\n      0x00\n      dup1\n      revert\n    tag_1:\n      pop\n      jumpi(tag_2, lt(calldatasize, 0x04))\n      shr(0xe0, calldataload(0x00))\n      dup1\n      0x09518e1e\n      eq\n      tag_3\n      jumpi\n      dup1\n      0x17fe2da2\n      eq\n      tag_4\n      jumpi\n      dup1\n      0x5dda416e\n      eq\n      tag_5\n      jumpi\n      dup1\n      0x892e5d01\n      eq\n      tag_6\n      jumpi\n    tag_2:\n      0x00\n      dup1\n      revert\n        /* \"4w/046Hash.sol\":748:950  function collision(... */\n    tag_3:\n      tag_7\n      0x04\n      dup1\n      calldatasize\n      sub\n      dup2\n      add\n      swap1\n      tag_8\n      swap2\n      swap1\n      tag_9\n      jump\t// in\n    tag_8:\n      tag_10\n      jump\t// in\n    tag_7:\n      mload(0x40)\n      tag_11\n      swap2\n      swap1\n      tag_12\n      jump\t// in\n    tag_11:\n      mload(0x40)\n      dup1\n      swap2\n      sub\n      swap1\n      return\n        /* \"4w/046Hash.sol\":338:550  function encode(string memory text0, string memory text1)... */\n    tag_4:\n      tag_13\n      0x04\n      dup1\n      calldatasize\n      sub\n      dup2\n      add\n      swap1\n      tag_14\n      swap2\n      swap1\n      tag_15\n      jump\t// in\n    tag_14:\n      tag_16\n      jump\t// in\n    tag_13:\n      mload(0x40)\n      tag_17\n      swap2\n      swap1\n      tag_18\n      jump\t// in\n    tag_17:\n      mload(0x40)\n      dup1\n      swap2\n      sub\n      swap1\n      return\n        /* \"4w/046Hash.sol\":81:332  function hash(... */\n    tag_5:\n      tag_19\n      0x04\n      dup1\n      calldatasize\n      sub\n      dup2\n      add\n      swap1\n      tag_20\n      swap2\n      swap1\n      tag_21\n      jump\t// in\n    tag_20:\n      tag_22\n      jump\t// in\n    tag_19:\n      mload(0x40)\n      tag_23\n      swap2\n      swap1\n      tag_12\n      jump\t// in\n    tag_23:\n      mload(0x40)\n      dup1\n      swap2\n      sub\n      swap1\n      return\n        /* \"4w/046Hash.sol\":565:742  function encodePacked(string memory text0, string memory text1)... */\n    tag_6:\n      tag_24\n      0x04\n      dup1\n      calldatasize\n      sub\n      dup2\n      add\n      swap1\n      tag_25\n      swap2\n      swap1\n      tag_15\n      jump\t// in\n    tag_25:\n      tag_26\n      jump\t// in\n    tag_24:\n      mload(0x40)\n      tag_27\n      swap2\n      swap1\n      tag_18\n      jump\t// in\n    tag_27:\n      mload(0x40)\n      dup1\n      swap2\n      sub\n      swap1\n      return\n        /* \"4w/046Hash.sol\":748:950  function collision(... */\n    tag_10:\n        /* \"4w/046Hash.sol\":873:880  bytes32 */\n      0x00\n        /* \"4w/046Hash.sol\":926:931  text0 */\n      dup4\n        /* \"4w/046Hash.sol\":933:934  x */\n      dup4\n        /* \"4w/046Hash.sol\":936:941  text1 */\n      dup4\n        /* \"4w/046Hash.sol\":909:942  abi.encodePacked(text0, x, text1) */\n      add(0x20, mload(0x40))\n      tag_29\n      swap4\n      swap3\n      swap2\n      swap1\n      tag_30\n      jump\t// in\n    tag_29:\n      mload(0x40)\n      0x20\n      dup2\n      dup4\n      sub\n      sub\n      dup2\n      mstore\n      swap1\n      0x40\n      mstore\n        /* \"4w/046Hash.sol\":899:943  keccak256(abi.encodePacked(text0, x, text1)) */\n      dup1\n      mload\n      swap1\n      0x20\n      add\n      keccak256\n        /* \"4w/046Hash.sol\":892:943  return keccak256(abi.encodePacked(text0, x, text1)) */\n      swap1\n      pop\n        /* \"4w/046Hash.sol\":748:950  function collision(... */\n      swap4\n      swap3\n      pop\n      pop\n      pop\n      jump\t// out\n        /* \"4w/046Hash.sol\":338:550  function encode(string memory text0, string memory text1)... */\n    tag_16:\n        /* \"4w/046Hash.sol\":443:455  bytes memory */\n      0x60\n        /* \"4w/046Hash.sol\":530:535  text0 */\n      dup3\n        /* \"4w/046Hash.sol\":537:542  text1 */\n      dup3\n        /* \"4w/046Hash.sol\":519:543  abi.encode(text0, text1) */\n      add(0x20, mload(0x40))\n      tag_32\n      swap3\n      swap2\n      swap1\n      tag_33\n      jump\t// in\n    tag_32:\n      mload(0x40)\n      0x20\n      dup2\n      dup4\n      sub\n      sub\n      dup2\n      mstore\n      swap1\n      0x40\n      mstore\n        /* \"4w/046Hash.sol\":512:543  return abi.encode(text0, text1) */\n      swap1\n      pop\n        /* \"4w/046Hash.sol\":338:550  function encode(string memory text0, string memory text1)... */\n      swap3\n      swap2\n      pop\n      pop\n      jump\t// out\n        /* \"4w/046Hash.sol\":81:332  function hash(... */\n    tag_22:\n        /* \"4w/046Hash.sol\":195:202  bytes32 */\n      0x00\n        /* \"4w/046Hash.sol\":308:312  text */\n      dup4\n        /* \"4w/046Hash.sol\":314:317  num */\n      dup4\n        /* \"4w/046Hash.sol\":319:323  addr */\n      dup4\n        /* \"4w/046Hash.sol\":291:324  abi.encodePacked(text, num, addr) */\n      add(0x20, mload(0x40))\n      tag_35\n      swap4\n      swap3\n      swap2\n      swap1\n      tag_36\n      jump\t// in\n    tag_35:\n      mload(0x40)\n      0x20\n      dup2\n      dup4\n      sub\n      sub\n      dup2\n      mstore\n      swap1\n      0x40\n      mstore\n        /* \"4w/046Hash.sol\":281:325  keccak256(abi.encodePacked(text, num, addr)) */\n      dup1\n      mload\n      swap1\n      0x20\n      add\n      keccak256\n        /* \"4w/046Hash.sol\":274:325  return keccak256(abi.encodePacked(text, num, addr)) */\n      swap1\n      pop\n        /* \"4w/046Hash.sol\":81:332  function hash(... */\n      swap4\n      swap3\n      pop\n      pop\n      pop\n      jump\t// out\n        /* \"4w/046Hash.sol\":565:742  function encodePacked(string memory text0, string memory text1)... */\n    tag_26:\n        /* \"4w/046Hash.sol\":676:688  bytes memory */\n      0x60\n        /* \"4w/046Hash.sol\":722:727  text0 */\n      dup3\n        /* \"4w/046Hash.sol\":729:734  text1 */\n      dup3\n        /* \"4w/046Hash.sol\":711:735  abi.encode(text0, text1) */\n      add(0x20, mload(0x40))\n      tag_38\n      swap3\n      swap2\n      swap1\n      tag_33\n      jump\t// in\n    tag_38:\n      mload(0x40)\n      0x20\n      dup2\n      dup4\n      sub\n      sub\n      dup2\n      mstore\n      swap1\n      0x40\n      mstore\n        /* \"4w/046Hash.sol\":704:735  return abi.encode(text0, text1) */\n      swap1\n      pop\n        /* \"4w/046Hash.sol\":565:742  function encodePacked(string memory text0, string memory text1)... */\n      swap3\n      swap2\n      pop\n      pop\n      jump\t// out\n        /* \"#utility.yul\":7:82   */\n    tag_39:\n        /* \"#utility.yul\":40:46   */\n      0x00\n        /* \"#utility.yul\":73:75   */\n      0x40\n        /* \"#utility.yul\":67:76   */\n      mload\n        /* \"#utility.yul\":57:76   */\n      swap1\n      pop\n        /* \"#utility.yul\":7:82   */\n      swap1\n      jump\t// out\n        /* \"#utility.yul\":88:205   */\n    tag_40:\n        /* \"#utility.yul\":197:198   */\n      0x00\n        /* \"#utility.yul\":194:195   */\n      dup1\n        /* \"#utility.yul\":187:199   */\n      revert\n        /* \"#utility.yul\":211:328   */\n    tag_41:\n        /* \"#utility.yul\":320:321   */\n      0x00\n        /* \"#utility.yul\":317:318   */\n      dup1\n        /* \"#utility.yul\":310:322   */\n      revert\n        /* \"#utility.yul\":334:451   */\n    tag_42:\n        /* \"#utility.yul\":443:444   */\n      0x00\n        /* \"#utility.yul\":440:441   */\n      dup1\n        /* \"#utility.yul\":433:445   */\n      revert\n        /* \"#utility.yul\":457:574   */\n    tag_43:\n        /* \"#utility.yul\":566:567   */\n      0x00\n        /* \"#utility.yul\":563:564   */\n      dup1\n        /* \"#utility.yul\":556:568   */\n      revert\n        /* \"#utility.yul\":580:682   */\n    tag_44:\n        /* \"#utility.yul\":621:627   */\n      0x00\n        /* \"#utility.yul\":672:674   */\n      0x1f\n        /* \"#utility.yul\":668:675   */\n      not\n        /* \"#utility.yul\":663:665   */\n      0x1f\n        /* \"#utility.yul\":656:661   */\n      dup4\n        /* \"#utility.yul\":652:666   */\n      add\n        /* \"#utility.yul\":648:676   */\n      and\n        /* \"#utility.yul\":638:676   */\n      swap1\n      pop\n        /* \"#utility.yul\":580:682   */\n      swap2\n      swap1\n      pop\n      jump\t// out\n        /* \"#utility.yul\":688:868   */\n    tag_45:\n        /* \"#utility.yul\":736:813   */\n      0x4e487b7100000000000000000000000000000000000000000000000000000000\n        /* \"#utility.yul\":733:734   */\n      0x00\n        /* \"#utility.yul\":726:814   */\n      mstore\n        /* \"#utility.yul\":833:837   */\n      0x41\n        /* \"#utility.yul\":830:831   */\n      0x04\n        /* \"#utility.yul\":823:838   */\n      mstore\n        /* \"#utility.yul\":857:861   */\n      0x24\n        /* \"#utility.yul\":854:855   */\n      0x00\n        /* \"#utility.yul\":847:862   */\n      revert\n        /* \"#utility.yul\":874:1155   */\n    tag_46:\n        /* \"#utility.yul\":957:984   */\n      tag_85\n        /* \"#utility.yul\":979:983   */\n      dup3\n        /* \"#utility.yul\":957:984   */\n      tag_44\n      jump\t// in\n    tag_85:\n        /* \"#utility.yul\":949:955   */\n      dup2\n        /* \"#utility.yul\":945:985   */\n      add\n        /* \"#utility.yul\":1087:1093   */\n      dup2\n        /* \"#utility.yul\":1075:1085   */\n      dup2\n        /* \"#utility.yul\":1072:1094   */\n      lt\n        /* \"#utility.yul\":1051:1069   */\n      0xffffffffffffffff\n        /* \"#utility.yul\":1039:1049   */\n      dup3\n        /* \"#utility.yul\":1036:1070   */\n      gt\n        /* \"#utility.yul\":1033:1095   */\n      or\n        /* \"#utility.yul\":1030:1118   */\n      iszero\n      tag_86\n      jumpi\n        /* \"#utility.yul\":1098:1116   */\n      tag_87\n      tag_45\n      jump\t// in\n    tag_87:\n        /* \"#utility.yul\":1030:1118   */\n    tag_86:\n        /* \"#utility.yul\":1138:1148   */\n      dup1\n        /* \"#utility.yul\":1134:1136   */\n      0x40\n        /* \"#utility.yul\":1127:1149   */\n      mstore\n        /* \"#utility.yul\":917:1155   */\n      pop\n        /* \"#utility.yul\":874:1155   */\n      pop\n      pop\n      jump\t// out\n        /* \"#utility.yul\":1161:1290   */\n    tag_47:\n        /* \"#utility.yul\":1195:1201   */\n      0x00\n        /* \"#utility.yul\":1222:1242   */\n      tag_89\n      tag_39\n      jump\t// in\n    tag_89:\n        /* \"#utility.yul\":1212:1242   */\n      swap1\n      pop\n        /* \"#utility.yul\":1251:1284   */\n      tag_90\n        /* \"#utility.yul\":1279:1283   */\n      dup3\n        /* \"#utility.yul\":1271:1277   */\n      dup3\n        /* \"#utility.yul\":1251:1284   */\n      tag_46\n      jump\t// in\n    tag_90:\n        /* \"#utility.yul\":1161:1290   */\n      swap2\n      swap1\n      pop\n      jump\t// out\n        /* \"#utility.yul\":1296:1604   */\n    tag_48:\n        /* \"#utility.yul\":1358:1362   */\n      0x00\n        /* \"#utility.yul\":1448:1466   */\n      0xffffffffffffffff\n        /* \"#utility.yul\":1440:1446   */\n      dup3\n        /* \"#utility.yul\":1437:1467   */\n      gt\n        /* \"#utility.yul\":1434:1490   */\n      iszero\n      tag_92\n      jumpi\n        /* \"#utility.yul\":1470:1488   */\n      tag_93\n      tag_45\n      jump\t// in\n    tag_93:\n        /* \"#utility.yul\":1434:1490   */\n    tag_92:\n        /* \"#utility.yul\":1508:1537   */\n      tag_94\n        /* \"#utility.yul\":1530:1536   */\n      dup3\n        /* \"#utility.yul\":1508:1537   */\n      tag_44\n      jump\t// in\n    tag_94:\n        /* \"#utility.yul\":1500:1537   */\n      swap1\n      pop\n        /* \"#utility.yul\":1592:1596   */\n      0x20\n        /* \"#utility.yul\":1586:1590   */\n      dup2\n        /* \"#utility.yul\":1582:1597   */\n      add\n        /* \"#utility.yul\":1574:1597   */\n      swap1\n      pop\n        /* \"#utility.yul\":1296:1604   */\n      swap2\n      swap1\n      pop\n      jump\t// out\n        /* \"#utility.yul\":1610:1758   */\n    tag_49:\n        /* \"#utility.yul\":1708:1714   */\n      dup3\n        /* \"#utility.yul\":1703:1706   */\n      dup2\n        /* \"#utility.yul\":1698:1701   */\n      dup4\n        /* \"#utility.yul\":1685:1715   */\n      calldatacopy\n        /* \"#utility.yul\":1749:1750   */\n      0x00\n        /* \"#utility.yul\":1740:1746   */\n      dup4\n        /* \"#utility.yul\":1735:1738   */\n      dup4\n        /* \"#utility.yul\":1731:1747   */\n      add\n        /* \"#utility.yul\":1724:1751   */\n      mstore\n        /* \"#utility.yul\":1610:1758   */\n      pop\n      pop\n      pop\n      jump\t// out\n        /* \"#utility.yul\":1764:2189   */\n    tag_50:\n        /* \"#utility.yul\":1842:1847   */\n      0x00\n        /* \"#utility.yul\":1867:1933   */\n      tag_97\n        /* \"#utility.yul\":1883:1932   */\n      tag_98\n        /* \"#utility.yul\":1925:1931   */\n      dup5\n        /* \"#utility.yul\":1883:1932   */\n      tag_48\n      jump\t// in\n    tag_98:\n        /* \"#utility.yul\":1867:1933   */\n      tag_47\n      jump\t// in\n    tag_97:\n        /* \"#utility.yul\":1858:1933   */\n      swap1\n      pop\n        /* \"#utility.yul\":1956:1962   */\n      dup3\n        /* \"#utility.yul\":1949:1954   */\n      dup2\n        /* \"#utility.yul\":1942:1963   */\n      mstore\n        /* \"#utility.yul\":1994:1998   */\n      0x20\n        /* \"#utility.yul\":1987:1992   */\n      dup2\n        /* \"#utility.yul\":1983:1999   */\n      add\n        /* \"#utility.yul\":2032:2035   */\n      dup5\n        /* \"#utility.yul\":2023:2029   */\n      dup5\n        /* \"#utility.yul\":2018:2021   */\n      dup5\n        /* \"#utility.yul\":2014:2030   */\n      add\n        /* \"#utility.yul\":2011:2036   */\n      gt\n        /* \"#utility.yul\":2008:2120   */\n      iszero\n      tag_99\n      jumpi\n        /* \"#utility.yul\":2039:2118   */\n      tag_100\n      tag_43\n      jump\t// in\n    tag_100:\n        /* \"#utility.yul\":2008:2120   */\n    tag_99:\n        /* \"#utility.yul\":2129:2183   */\n      tag_101\n        /* \"#utility.yul\":2176:2182   */\n      dup5\n        /* \"#utility.yul\":2171:2174   */\n      dup3\n        /* \"#utility.yul\":2166:2169   */\n      dup6\n        /* \"#utility.yul\":2129:2183   */\n      tag_49\n      jump\t// in\n    tag_101:\n        /* \"#utility.yul\":1848:2189   */\n      pop\n        /* \"#utility.yul\":1764:2189   */\n      swap4\n      swap3\n      pop\n      pop\n      pop\n      jump\t// out\n        /* \"#utility.yul\":2209:2549   */\n    tag_51:\n        /* \"#utility.yul\":2265:2270   */\n      0x00\n        /* \"#utility.yul\":2314:2317   */\n      dup3\n        /* \"#utility.yul\":2307:2311   */\n      0x1f\n        /* \"#utility.yul\":2299:2305   */\n      dup4\n        /* \"#utility.yul\":2295:2312   */\n      add\n        /* \"#utility.yul\":2291:2318   */\n      slt\n        /* \"#utility.yul\":2281:2403   */\n      tag_103\n      jumpi\n        /* \"#utility.yul\":2322:2401   */\n      tag_104\n      tag_42\n      jump\t// in\n    tag_104:\n        /* \"#utility.yul\":2281:2403   */\n    tag_103:\n        /* \"#utility.yul\":2439:2445   */\n      dup2\n        /* \"#utility.yul\":2426:2446   */\n      calldataload\n        /* \"#utility.yul\":2464:2543   */\n      tag_105\n        /* \"#utility.yul\":2539:2542   */\n      dup5\n        /* \"#utility.yul\":2531:2537   */\n      dup3\n        /* \"#utility.yul\":2524:2528   */\n      0x20\n        /* \"#utility.yul\":2516:2522   */\n      dup7\n        /* \"#utility.yul\":2512:2529   */\n      add\n        /* \"#utility.yul\":2464:2543   */\n      tag_50\n      jump\t// in\n    tag_105:\n        /* \"#utility.yul\":2455:2543   */\n      swap2\n      pop\n        /* \"#utility.yul\":2271:2549   */\n      pop\n        /* \"#utility.yul\":2209:2549   */\n      swap3\n      swap2\n      pop\n      pop\n      jump\t// out\n        /* \"#utility.yul\":2555:2632   */\n    tag_52:\n        /* \"#utility.yul\":2592:2599   */\n      0x00\n        /* \"#utility.yul\":2621:2626   */\n      dup2\n        /* \"#utility.yul\":2610:2626   */\n      swap1\n      pop\n        /* \"#utility.yul\":2555:2632   */\n      swap2\n      swap1\n      pop\n      jump\t// out\n        /* \"#utility.yul\":2638:2760   */\n    tag_53:\n        /* \"#utility.yul\":2711:2735   */\n      tag_108\n        /* \"#utility.yul\":2729:2734   */\n      dup2\n        /* \"#utility.yul\":2711:2735   */\n      tag_52\n      jump\t// in\n    tag_108:\n        /* \"#utility.yul\":2704:2709   */\n      dup2\n        /* \"#utility.yul\":2701:2736   */\n      eq\n        /* \"#utility.yul\":2691:2754   */\n      tag_109\n      jumpi\n        /* \"#utility.yul\":2750:2751   */\n      0x00\n        /* \"#utility.yul\":2747:2748   */\n      dup1\n        /* \"#utility.yul\":2740:2752   */\n      revert\n        /* \"#utility.yul\":2691:2754   */\n    tag_109:\n        /* \"#utility.yul\":2638:2760   */\n      pop\n      jump\t// out\n        /* \"#utility.yul\":2766:2905   */\n    tag_54:\n        /* \"#utility.yul\":2812:2817   */\n      0x00\n        /* \"#utility.yul\":2850:2856   */\n      dup2\n        /* \"#utility.yul\":2837:2857   */\n      calldataload\n        /* \"#utility.yul\":2828:2857   */\n      swap1\n      pop\n        /* \"#utility.yul\":2866:2899   */\n      tag_111\n        /* \"#utility.yul\":2893:2898   */\n      dup2\n        /* \"#utility.yul\":2866:2899   */\n      tag_53\n      jump\t// in\n    tag_111:\n        /* \"#utility.yul\":2766:2905   */\n      swap3\n      swap2\n      pop\n      pop\n      jump\t// out\n        /* \"#utility.yul\":2911:3890   */\n    tag_9:\n        /* \"#utility.yul\":3008:3014   */\n      0x00\n        /* \"#utility.yul\":3016:3022   */\n      dup1\n        /* \"#utility.yul\":3024:3030   */\n      0x00\n        /* \"#utility.yul\":3073:3075   */\n      0x60\n        /* \"#utility.yul\":3061:3070   */\n      dup5\n        /* \"#utility.yul\":3052:3059   */\n      dup7\n        /* \"#utility.yul\":3048:3071   */\n      sub\n        /* \"#utility.yul\":3044:3076   */\n      slt\n        /* \"#utility.yul\":3041:3160   */\n      iszero\n      tag_113\n      jumpi\n        /* \"#utility.yul\":3079:3158   */\n      tag_114\n      tag_40\n      jump\t// in\n    tag_114:\n        /* \"#utility.yul\":3041:3160   */\n    tag_113:\n        /* \"#utility.yul\":3227:3228   */\n      0x00\n        /* \"#utility.yul\":3216:3225   */\n      dup5\n        /* \"#utility.yul\":3212:3229   */\n      add\n        /* \"#utility.yul\":3199:3230   */\n      calldataload\n        /* \"#utility.yul\":3257:3275   */\n      0xffffffffffffffff\n        /* \"#utility.yul\":3249:3255   */\n      dup2\n        /* \"#utility.yul\":3246:3276   */\n      gt\n        /* \"#utility.yul\":3243:3360   */\n      iszero\n      tag_115\n      jumpi\n        /* \"#utility.yul\":3279:3358   */\n      tag_116\n      tag_41\n      jump\t// in\n    tag_116:\n        /* \"#utility.yul\":3243:3360   */\n    tag_115:\n        /* \"#utility.yul\":3384:3447   */\n      tag_117\n        /* \"#utility.yul\":3439:3446   */\n      dup7\n        /* \"#utility.yul\":3430:3436   */\n      dup3\n        /* \"#utility.yul\":3419:3428   */\n      dup8\n        /* \"#utility.yul\":3415:3437   */\n      add\n        /* \"#utility.yul\":3384:3447   */\n      tag_51\n      jump\t// in\n    tag_117:\n        /* \"#utility.yul\":3374:3447   */\n      swap4\n      pop\n        /* \"#utility.yul\":3170:3457   */\n      pop\n        /* \"#utility.yul\":3496:3498   */\n      0x20\n        /* \"#utility.yul\":3522:3575   */\n      tag_118\n        /* \"#utility.yul\":3567:3574   */\n      dup7\n        /* \"#utility.yul\":3558:3564   */\n      dup3\n        /* \"#utility.yul\":3547:3556   */\n      dup8\n        /* \"#utility.yul\":3543:3565   */\n      add\n        /* \"#utility.yul\":3522:3575   */\n      tag_54\n      jump\t// in\n    tag_118:\n        /* \"#utility.yul\":3512:3575   */\n      swap3\n      pop\n        /* \"#utility.yul\":3467:3585   */\n      pop\n        /* \"#utility.yul\":3652:3654   */\n      0x40\n        /* \"#utility.yul\":3641:3650   */\n      dup5\n        /* \"#utility.yul\":3637:3655   */\n      add\n        /* \"#utility.yul\":3624:3656   */\n      calldataload\n        /* \"#utility.yul\":3683:3701   */\n      0xffffffffffffffff\n        /* \"#utility.yul\":3675:3681   */\n      dup2\n        /* \"#utility.yul\":3672:3702   */\n      gt\n        /* \"#utility.yul\":3669:3786   */\n      iszero\n      tag_119\n      jumpi\n        /* \"#utility.yul\":3705:3784   */\n      tag_120\n      tag_41\n      jump\t// in\n    tag_120:\n        /* \"#utility.yul\":3669:3786   */\n    tag_119:\n        /* \"#utility.yul\":3810:3873   */\n      tag_121\n        /* \"#utility.yul\":3865:3872   */\n      dup7\n        /* \"#utility.yul\":3856:3862   */\n      dup3\n        /* \"#utility.yul\":3845:3854   */\n      dup8\n        /* \"#utility.yul\":3841:3863   */\n      add\n        /* \"#utility.yul\":3810:3873   */\n      tag_51\n      jump\t// in\n    tag_121:\n        /* \"#utility.yul\":3800:3873   */\n      swap2\n      pop\n        /* \"#utility.yul\":3595:3883   */\n      pop\n        /* \"#utility.yul\":2911:3890   */\n      swap3\n      pop\n      swap3\n      pop\n      swap3\n      jump\t// out\n        /* \"#utility.yul\":3896:3973   */\n    tag_55:\n        /* \"#utility.yul\":3933:3940   */\n      0x00\n        /* \"#utility.yul\":3962:3967   */\n      dup2\n        /* \"#utility.yul\":3951:3967   */\n      swap1\n      pop\n        /* \"#utility.yul\":3896:3973   */\n      swap2\n      swap1\n      pop\n      jump\t// out\n        /* \"#utility.yul\":3979:4097   */\n    tag_56:\n        /* \"#utility.yul\":4066:4090   */\n      tag_124\n        /* \"#utility.yul\":4084:4089   */\n      dup2\n        /* \"#utility.yul\":4066:4090   */\n      tag_55\n      jump\t// in\n    tag_124:\n        /* \"#utility.yul\":4061:4064   */\n      dup3\n        /* \"#utility.yul\":4054:4091   */\n      mstore\n        /* \"#utility.yul\":3979:4097   */\n      pop\n      pop\n      jump\t// out\n        /* \"#utility.yul\":4103:4325   */\n    tag_12:\n        /* \"#utility.yul\":4196:4200   */\n      0x00\n        /* \"#utility.yul\":4234:4236   */\n      0x20\n        /* \"#utility.yul\":4223:4232   */\n      dup3\n        /* \"#utility.yul\":4219:4237   */\n      add\n        /* \"#utility.yul\":4211:4237   */\n      swap1\n      pop\n        /* \"#utility.yul\":4247:4318   */\n      tag_126\n        /* \"#utility.yul\":4315:4316   */\n      0x00\n        /* \"#utility.yul\":4304:4313   */\n      dup4\n        /* \"#utility.yul\":4300:4317   */\n      add\n        /* \"#utility.yul\":4291:4297   */\n      dup5\n        /* \"#utility.yul\":4247:4318   */\n      tag_56\n      jump\t// in\n    tag_126:\n        /* \"#utility.yul\":4103:4325   */\n      swap3\n      swap2\n      pop\n      pop\n      jump\t// out\n        /* \"#utility.yul\":4331:5165   */\n    tag_15:\n        /* \"#utility.yul\":4419:4425   */\n      0x00\n        /* \"#utility.yul\":4427:4433   */\n      dup1\n        /* \"#utility.yul\":4476:4478   */\n      0x40\n        /* \"#utility.yul\":4464:4473   */\n      dup4\n        /* \"#utility.yul\":4455:4462   */\n      dup6\n        /* \"#utility.yul\":4451:4474   */\n      sub\n        /* \"#utility.yul\":4447:4479   */\n      slt\n        /* \"#utility.yul\":4444:4563   */\n      iszero\n      tag_128\n      jumpi\n        /* \"#utility.yul\":4482:4561   */\n      tag_129\n      tag_40\n      jump\t// in\n    tag_129:\n        /* \"#utility.yul\":4444:4563   */\n    tag_128:\n        /* \"#utility.yul\":4630:4631   */\n      0x00\n        /* \"#utility.yul\":4619:4628   */\n      dup4\n        /* \"#utility.yul\":4615:4632   */\n      add\n        /* \"#utility.yul\":4602:4633   */\n      calldataload\n        /* \"#utility.yul\":4660:4678   */\n      0xffffffffffffffff\n        /* \"#utility.yul\":4652:4658   */\n      dup2\n        /* \"#utility.yul\":4649:4679   */\n      gt\n        /* \"#utility.yul\":4646:4763   */\n      iszero\n      tag_130\n      jumpi\n        /* \"#utility.yul\":4682:4761   */\n      tag_131\n      tag_41\n      jump\t// in\n    tag_131:\n        /* \"#utility.yul\":4646:4763   */\n    tag_130:\n        /* \"#utility.yul\":4787:4850   */\n      tag_132\n        /* \"#utility.yul\":4842:4849   */\n      dup6\n        /* \"#utility.yul\":4833:4839   */\n      dup3\n        /* \"#utility.yul\":4822:4831   */\n      dup7\n        /* \"#utility.yul\":4818:4840   */\n      add\n        /* \"#utility.yul\":4787:4850   */\n      tag_51\n      jump\t// in\n    tag_132:\n        /* \"#utility.yul\":4777:4850   */\n      swap3\n      pop\n        /* \"#utility.yul\":4573:4860   */\n      pop\n        /* \"#utility.yul\":4927:4929   */\n      0x20\n        /* \"#utility.yul\":4916:4925   */\n      dup4\n        /* \"#utility.yul\":4912:4930   */\n      add\n        /* \"#utility.yul\":4899:4931   */\n      calldataload\n        /* \"#utility.yul\":4958:4976   */\n      0xffffffffffffffff\n        /* \"#utility.yul\":4950:4956   */\n      dup2\n        /* \"#utility.yul\":4947:4977   */\n      gt\n        /* \"#utility.yul\":4944:5061   */\n      iszero\n      tag_133\n      jumpi\n        /* \"#utility.yul\":4980:5059   */\n      tag_134\n      tag_41\n      jump\t// in\n    tag_134:\n        /* \"#utility.yul\":4944:5061   */\n    tag_133:\n        /* \"#utility.yul\":5085:5148   */\n      tag_135\n        /* \"#utility.yul\":5140:5147   */\n      dup6\n        /* \"#utility.yul\":5131:5137   */\n      dup3\n        /* \"#utility.yul\":5120:5129   */\n      dup7\n        /* \"#utility.yul\":5116:5138   */\n      add\n        /* \"#utility.yul\":5085:5148   */\n      tag_51\n      jump\t// in\n    tag_135:\n        /* \"#utility.yul\":5075:5148   */\n      swap2\n      pop\n        /* \"#utility.yul\":4870:5158   */\n      pop\n        /* \"#utility.yul\":4331:5165   */\n      swap3\n      pop\n      swap3\n      swap1\n      pop\n      jump\t// out\n        /* \"#utility.yul\":5171:5269   */\n    tag_57:\n        /* \"#utility.yul\":5222:5228   */\n      0x00\n        /* \"#utility.yul\":5256:5261   */\n      dup2\n        /* \"#utility.yul\":5250:5262   */\n      mload\n        /* \"#utility.yul\":5240:5262   */\n      swap1\n      pop\n        /* \"#utility.yul\":5171:5269   */\n      swap2\n      swap1\n      pop\n      jump\t// out\n        /* \"#utility.yul\":5275:5443   */\n    tag_58:\n        /* \"#utility.yul\":5358:5369   */\n      0x00\n        /* \"#utility.yul\":5392:5398   */\n      dup3\n        /* \"#utility.yul\":5387:5390   */\n      dup3\n        /* \"#utility.yul\":5380:5399   */\n      mstore\n        /* \"#utility.yul\":5432:5436   */\n      0x20\n        /* \"#utility.yul\":5427:5430   */\n      dup3\n        /* \"#utility.yul\":5423:5437   */\n      add\n        /* \"#utility.yul\":5408:5437   */\n      swap1\n      pop\n        /* \"#utility.yul\":5275:5443   */\n      swap3\n      swap2\n      pop\n      pop\n      jump\t// out\n        /* \"#utility.yul\":5449:5588   */\n    tag_59:\n        /* \"#utility.yul\":5538:5544   */\n      dup3\n        /* \"#utility.yul\":5533:5536   */\n      dup2\n        /* \"#utility.yul\":5528:5531   */\n      dup4\n        /* \"#utility.yul\":5522:5545   */\n      mcopy\n        /* \"#utility.yul\":5579:5580   */\n      0x00\n        /* \"#utility.yul\":5570:5576   */\n      dup4\n        /* \"#utility.yul\":5565:5568   */\n      dup4\n        /* \"#utility.yul\":5561:5577   */\n      add\n        /* \"#utility.yul\":5554:5581   */\n      mstore\n        /* \"#utility.yul\":5449:5588   */\n      pop\n      pop\n      pop\n      jump\t// out\n        /* \"#utility.yul\":5594:5967   */\n    tag_60:\n        /* \"#utility.yul\":5680:5683   */\n      0x00\n        /* \"#utility.yul\":5708:5746   */\n      tag_140\n        /* \"#utility.yul\":5740:5745   */\n      dup3\n        /* \"#utility.yul\":5708:5746   */\n      tag_57\n      jump\t// in\n    tag_140:\n        /* \"#utility.yul\":5762:5832   */\n      tag_141\n        /* \"#utility.yul\":5825:5831   */\n      dup2\n        /* \"#utility.yul\":5820:5823   */\n      dup6\n        /* \"#utility.yul\":5762:5832   */\n      tag_58\n      jump\t// in\n    tag_141:\n        /* \"#utility.yul\":5755:5832   */\n      swap4\n      pop\n        /* \"#utility.yul\":5841:5906   */\n      tag_142\n        /* \"#utility.yul\":5899:5905   */\n      dup2\n        /* \"#utility.yul\":5894:5897   */\n      dup6\n        /* \"#utility.yul\":5887:5891   */\n      0x20\n        /* \"#utility.yul\":5880:5885   */\n      dup7\n        /* \"#utility.yul\":5876:5892   */\n      add\n        /* \"#utility.yul\":5841:5906   */\n      tag_59\n      jump\t// in\n    tag_142:\n        /* \"#utility.yul\":5931:5960   */\n      tag_143\n        /* \"#utility.yul\":5953:5959   */\n      dup2\n        /* \"#utility.yul\":5931:5960   */\n      tag_44\n      jump\t// in\n    tag_143:\n        /* \"#utility.yul\":5926:5929   */\n      dup5\n        /* \"#utility.yul\":5922:5961   */\n      add\n        /* \"#utility.yul\":5915:5961   */\n      swap2\n      pop\n        /* \"#utility.yul\":5684:5967   */\n      pop\n        /* \"#utility.yul\":5594:5967   */\n      swap3\n      swap2\n      pop\n      pop\n      jump\t// out\n        /* \"#utility.yul\":5973:6282   */\n    tag_18:\n        /* \"#utility.yul\":6084:6088   */\n      0x00\n        /* \"#utility.yul\":6122:6124   */\n      0x20\n        /* \"#utility.yul\":6111:6120   */\n      dup3\n        /* \"#utility.yul\":6107:6125   */\n      add\n        /* \"#utility.yul\":6099:6125   */\n      swap1\n      pop\n        /* \"#utility.yul\":6171:6180   */\n      dup2\n        /* \"#utility.yul\":6165:6169   */\n      dup2\n        /* \"#utility.yul\":6161:6181   */\n      sub\n        /* \"#utility.yul\":6157:6158   */\n      0x00\n        /* \"#utility.yul\":6146:6155   */\n      dup4\n        /* \"#utility.yul\":6142:6159   */\n      add\n        /* \"#utility.yul\":6135:6182   */\n      mstore\n        /* \"#utility.yul\":6199:6275   */\n      tag_145\n        /* \"#utility.yul\":6270:6274   */\n      dup2\n        /* \"#utility.yul\":6261:6267   */\n      dup5\n        /* \"#utility.yul\":6199:6275   */\n      tag_60\n      jump\t// in\n    tag_145:\n        /* \"#utility.yul\":6191:6275   */\n      swap1\n      pop\n        /* \"#utility.yul\":5973:6282   */\n      swap3\n      swap2\n      pop\n      pop\n      jump\t// out\n        /* \"#utility.yul\":6288:6414   */\n    tag_61:\n        /* \"#utility.yul\":6325:6332   */\n      0x00\n        /* \"#utility.yul\":6365:6407   */\n      0xffffffffffffffffffffffffffffffffffffffff\n        /* \"#utility.yul\":6358:6363   */\n      dup3\n        /* \"#utility.yul\":6354:6408   */\n      and\n        /* \"#utility.yul\":6343:6408   */\n      swap1\n      pop\n        /* \"#utility.yul\":6288:6414   */\n      swap2\n      swap1\n      pop\n      jump\t// out\n        /* \"#utility.yul\":6420:6516   */\n    tag_62:\n        /* \"#utility.yul\":6457:6464   */\n      0x00\n        /* \"#utility.yul\":6486:6510   */\n      tag_148\n        /* \"#utility.yul\":6504:6509   */\n      dup3\n        /* \"#utility.yul\":6486:6510   */\n      tag_61\n      jump\t// in\n    tag_148:\n        /* \"#utility.yul\":6475:6510   */\n      swap1\n      pop\n        /* \"#utility.yul\":6420:6516   */\n      swap2\n      swap1\n      pop\n      jump\t// out\n        /* \"#utility.yul\":6522:6644   */\n    tag_63:\n        /* \"#utility.yul\":6595:6619   */\n      tag_150\n        /* \"#utility.yul\":6613:6618   */\n      dup2\n        /* \"#utility.yul\":6595:6619   */\n      tag_62\n      jump\t// in\n    tag_150:\n        /* \"#utility.yul\":6588:6593   */\n      dup2\n        /* \"#utility.yul\":6585:6620   */\n      eq\n        /* \"#utility.yul\":6575:6638   */\n      tag_151\n      jumpi\n        /* \"#utility.yul\":6634:6635   */\n      0x00\n        /* \"#utility.yul\":6631:6632   */\n      dup1\n        /* \"#utility.yul\":6624:6636   */\n      revert\n        /* \"#utility.yul\":6575:6638   */\n    tag_151:\n        /* \"#utility.yul\":6522:6644   */\n      pop\n      jump\t// out\n        /* \"#utility.yul\":6650:6789   */\n    tag_64:\n        /* \"#utility.yul\":6696:6701   */\n      0x00\n        /* \"#utility.yul\":6734:6740   */\n      dup2\n        /* \"#utility.yul\":6721:6741   */\n      calldataload\n        /* \"#utility.yul\":6712:6741   */\n      swap1\n      pop\n        /* \"#utility.yul\":6750:6783   */\n      tag_153\n        /* \"#utility.yul\":6777:6782   */\n      dup2\n        /* \"#utility.yul\":6750:6783   */\n      tag_63\n      jump\t// in\n    tag_153:\n        /* \"#utility.yul\":6650:6789   */\n      swap3\n      swap2\n      pop\n      pop\n      jump\t// out\n        /* \"#utility.yul\":6795:7594   */\n    tag_21:\n        /* \"#utility.yul\":6882:6888   */\n      0x00\n        /* \"#utility.yul\":6890:6896   */\n      dup1\n        /* \"#utility.yul\":6898:6904   */\n      0x00\n        /* \"#utility.yul\":6947:6949   */\n      0x60\n        /* \"#utility.yul\":6935:6944   */\n      dup5\n        /* \"#utility.yul\":6926:6933   */\n      dup7\n        /* \"#utility.yul\":6922:6945   */\n      sub\n        /* \"#utility.yul\":6918:6950   */\n      slt\n        /* \"#utility.yul\":6915:7034   */\n      iszero\n      tag_155\n      jumpi\n        /* \"#utility.yul\":6953:7032   */\n      tag_156\n      tag_40\n      jump\t// in\n    tag_156:\n        /* \"#utility.yul\":6915:7034   */\n    tag_155:\n        /* \"#utility.yul\":7101:7102   */\n      0x00\n        /* \"#utility.yul\":7090:7099   */\n      dup5\n        /* \"#utility.yul\":7086:7103   */\n      add\n        /* \"#utility.yul\":7073:7104   */\n      calldataload\n        /* \"#utility.yul\":7131:7149   */\n      0xffffffffffffffff\n        /* \"#utility.yul\":7123:7129   */\n      dup2\n        /* \"#utility.yul\":7120:7150   */\n      gt\n        /* \"#utility.yul\":7117:7234   */\n      iszero\n      tag_157\n      jumpi\n        /* \"#utility.yul\":7153:7232   */\n      tag_158\n      tag_41\n      jump\t// in\n    tag_158:\n        /* \"#utility.yul\":7117:7234   */\n    tag_157:\n        /* \"#utility.yul\":7258:7321   */\n      tag_159\n        /* \"#utility.yul\":7313:7320   */\n      dup7\n        /* \"#utility.yul\":7304:7310   */\n      dup3\n        /* \"#utility.yul\":7293:7302   */\n      dup8\n        /* \"#utility.yul\":7289:7311   */\n      add\n        /* \"#utility.yul\":7258:7321   */\n      tag_51\n      jump\t// in\n    tag_159:\n        /* \"#utility.yul\":7248:7321   */\n      swap4\n      pop\n        /* \"#utility.yul\":7044:7331   */\n      pop\n        /* \"#utility.yul\":7370:7372   */\n      0x20\n        /* \"#utility.yul\":7396:7449   */\n      tag_160\n        /* \"#utility.yul\":7441:7448   */\n      dup7\n        /* \"#utility.yul\":7432:7438   */\n      dup3\n        /* \"#utility.yul\":7421:7430   */\n      dup8\n        /* \"#utility.yul\":7417:7439   */\n      add\n        /* \"#utility.yul\":7396:7449   */\n      tag_54\n      jump\t// in\n    tag_160:\n        /* \"#utility.yul\":7386:7449   */\n      swap3\n      pop\n        /* \"#utility.yul\":7341:7459   */\n      pop\n        /* \"#utility.yul\":7498:7500   */\n      0x40\n        /* \"#utility.yul\":7524:7577   */\n      tag_161\n        /* \"#utility.yul\":7569:7576   */\n      dup7\n        /* \"#utility.yul\":7560:7566   */\n      dup3\n        /* \"#utility.yul\":7549:7558   */\n      dup8\n        /* \"#utility.yul\":7545:7567   */\n      add\n        /* \"#utility.yul\":7524:7577   */\n      tag_64\n      jump\t// in\n    tag_161:\n        /* \"#utility.yul\":7514:7577   */\n      swap2\n      pop\n        /* \"#utility.yul\":7469:7587   */\n      pop\n        /* \"#utility.yul\":6795:7594   */\n      swap3\n      pop\n      swap3\n      pop\n      swap3\n      jump\t// out\n        /* \"#utility.yul\":7600:7699   */\n    tag_65:\n        /* \"#utility.yul\":7652:7658   */\n      0x00\n        /* \"#utility.yul\":7686:7691   */\n      dup2\n        /* \"#utility.yul\":7680:7692   */\n      mload\n        /* \"#utility.yul\":7670:7692   */\n      swap1\n      pop\n        /* \"#utility.yul\":7600:7699   */\n      swap2\n      swap1\n      pop\n      jump\t// out\n        /* \"#utility.yul\":7705:7853   */\n    tag_66:\n        /* \"#utility.yul\":7807:7818   */\n      0x00\n        /* \"#utility.yul\":7844:7847   */\n      dup2\n        /* \"#utility.yul\":7829:7847   */\n      swap1\n      pop\n        /* \"#utility.yul\":7705:7853   */\n      swap3\n      swap2\n      pop\n      pop\n      jump\t// out\n        /* \"#utility.yul\":7859:8249   */\n    tag_67:\n        /* \"#utility.yul\":7965:7968   */\n      0x00\n        /* \"#utility.yul\":7993:8032   */\n      tag_165\n        /* \"#utility.yul\":8026:8031   */\n      dup3\n        /* \"#utility.yul\":7993:8032   */\n      tag_65\n      jump\t// in\n    tag_165:\n        /* \"#utility.yul\":8048:8137   */\n      tag_166\n        /* \"#utility.yul\":8130:8136   */\n      dup2\n        /* \"#utility.yul\":8125:8128   */\n      dup6\n        /* \"#utility.yul\":8048:8137   */\n      tag_66\n      jump\t// in\n    tag_166:\n        /* \"#utility.yul\":8041:8137   */\n      swap4\n      pop\n        /* \"#utility.yul\":8146:8211   */\n      tag_167\n        /* \"#utility.yul\":8204:8210   */\n      dup2\n        /* \"#utility.yul\":8199:8202   */\n      dup6\n        /* \"#utility.yul\":8192:8196   */\n      0x20\n        /* \"#utility.yul\":8185:8190   */\n      dup7\n        /* \"#utility.yul\":8181:8197   */\n      add\n        /* \"#utility.yul\":8146:8211   */\n      tag_59\n      jump\t// in\n    tag_167:\n        /* \"#utility.yul\":8236:8242   */\n      dup1\n        /* \"#utility.yul\":8231:8234   */\n      dup5\n        /* \"#utility.yul\":8227:8243   */\n      add\n        /* \"#utility.yul\":8220:8243   */\n      swap2\n      pop\n        /* \"#utility.yul\":7969:8249   */\n      pop\n        /* \"#utility.yul\":7859:8249   */\n      swap3\n      swap2\n      pop\n      pop\n      jump\t// out\n        /* \"#utility.yul\":8255:8334   */\n    tag_68:\n        /* \"#utility.yul\":8294:8301   */\n      0x00\n        /* \"#utility.yul\":8323:8328   */\n      dup2\n        /* \"#utility.yul\":8312:8328   */\n      swap1\n      pop\n        /* \"#utility.yul\":8255:8334   */\n      swap2\n      swap1\n      pop\n      jump\t// out\n        /* \"#utility.yul\":8340:8497   */\n    tag_69:\n        /* \"#utility.yul\":8445:8490   */\n      tag_170\n        /* \"#utility.yul\":8465:8489   */\n      tag_171\n        /* \"#utility.yul\":8483:8488   */\n      dup3\n        /* \"#utility.yul\":8465:8489   */\n      tag_52\n      jump\t// in\n    tag_171:\n        /* \"#utility.yul\":8445:8490   */\n      tag_68\n      jump\t// in\n    tag_170:\n        /* \"#utility.yul\":8440:8443   */\n      dup3\n        /* \"#utility.yul\":8433:8491   */\n      mstore\n        /* \"#utility.yul\":8340:8497   */\n      pop\n      pop\n      jump\t// out\n        /* \"#utility.yul\":8503:9079   */\n    tag_30:\n        /* \"#utility.yul\":8711:8714   */\n      0x00\n        /* \"#utility.yul\":8733:8828   */\n      tag_173\n        /* \"#utility.yul\":8824:8827   */\n      dup3\n        /* \"#utility.yul\":8815:8821   */\n      dup7\n        /* \"#utility.yul\":8733:8828   */\n      tag_67\n      jump\t// in\n    tag_173:\n        /* \"#utility.yul\":8726:8828   */\n      swap2\n      pop\n        /* \"#utility.yul\":8838:8913   */\n      tag_174\n        /* \"#utility.yul\":8909:8912   */\n      dup3\n        /* \"#utility.yul\":8900:8906   */\n      dup6\n        /* \"#utility.yul\":8838:8913   */\n      tag_69\n      jump\t// in\n    tag_174:\n        /* \"#utility.yul\":8938:8940   */\n      0x20\n        /* \"#utility.yul\":8933:8936   */\n      dup3\n        /* \"#utility.yul\":8929:8941   */\n      add\n        /* \"#utility.yul\":8922:8941   */\n      swap2\n      pop\n        /* \"#utility.yul\":8958:9053   */\n      tag_175\n        /* \"#utility.yul\":9049:9052   */\n      dup3\n        /* \"#utility.yul\":9040:9046   */\n      dup5\n        /* \"#utility.yul\":8958:9053   */\n      tag_67\n      jump\t// in\n    tag_175:\n        /* \"#utility.yul\":8951:9053   */\n      swap2\n      pop\n        /* \"#utility.yul\":9070:9073   */\n      dup2\n        /* \"#utility.yul\":9063:9073   */\n      swap1\n      pop\n        /* \"#utility.yul\":8503:9079   */\n      swap5\n      swap4\n      pop\n      pop\n      pop\n      pop\n      jump\t// out\n        /* \"#utility.yul\":9085:9254   */\n    tag_70:\n        /* \"#utility.yul\":9169:9180   */\n      0x00\n        /* \"#utility.yul\":9203:9209   */\n      dup3\n        /* \"#utility.yul\":9198:9201   */\n      dup3\n        /* \"#utility.yul\":9191:9210   */\n      mstore\n        /* \"#utility.yul\":9243:9247   */\n      0x20\n        /* \"#utility.yul\":9238:9241   */\n      dup3\n        /* \"#utility.yul\":9234:9248   */\n      add\n        /* \"#utility.yul\":9219:9248   */\n      swap1\n      pop\n        /* \"#utility.yul\":9085:9254   */\n      swap3\n      swap2\n      pop\n      pop\n      jump\t// out\n        /* \"#utility.yul\":9260:9637   */\n    tag_71:\n        /* \"#utility.yul\":9348:9351   */\n      0x00\n        /* \"#utility.yul\":9376:9415   */\n      tag_178\n        /* \"#utility.yul\":9409:9414   */\n      dup3\n        /* \"#utility.yul\":9376:9415   */\n      tag_65\n      jump\t// in\n    tag_178:\n        /* \"#utility.yul\":9431:9502   */\n      tag_179\n        /* \"#utility.yul\":9495:9501   */\n      dup2\n        /* \"#utility.yul\":9490:9493   */\n      dup6\n        /* \"#utility.yul\":9431:9502   */\n      tag_70\n      jump\t// in\n    tag_179:\n        /* \"#utility.yul\":9424:9502   */\n      swap4\n      pop\n        /* \"#utility.yul\":9511:9576   */\n      tag_180\n        /* \"#utility.yul\":9569:9575   */\n      dup2\n        /* \"#utility.yul\":9564:9567   */\n      dup6\n        /* \"#utility.yul\":9557:9561   */\n      0x20\n        /* \"#utility.yul\":9550:9555   */\n      dup7\n        /* \"#utility.yul\":9546:9562   */\n      add\n        /* \"#utility.yul\":9511:9576   */\n      tag_59\n      jump\t// in\n    tag_180:\n        /* \"#utility.yul\":9601:9630   */\n      tag_181\n        /* \"#utility.yul\":9623:9629   */\n      dup2\n        /* \"#utility.yul\":9601:9630   */\n      tag_44\n      jump\t// in\n    tag_181:\n        /* \"#utility.yul\":9596:9599   */\n      dup5\n        /* \"#utility.yul\":9592:9631   */\n      add\n        /* \"#utility.yul\":9585:9631   */\n      swap2\n      pop\n        /* \"#utility.yul\":9352:9637   */\n      pop\n        /* \"#utility.yul\":9260:9637   */\n      swap3\n      swap2\n      pop\n      pop\n      jump\t// out\n        /* \"#utility.yul\":9643:10157   */\n    tag_33:\n        /* \"#utility.yul\":9804:9808   */\n      0x00\n        /* \"#utility.yul\":9842:9844   */\n      0x40\n        /* \"#utility.yul\":9831:9840   */\n      dup3\n        /* \"#utility.yul\":9827:9845   */\n      add\n        /* \"#utility.yul\":9819:9845   */\n      swap1\n      pop\n        /* \"#utility.yul\":9891:9900   */\n      dup2\n        /* \"#utility.yul\":9885:9889   */\n      dup2\n        /* \"#utility.yul\":9881:9901   */\n      sub\n        /* \"#utility.yul\":9877:9878   */\n      0x00\n        /* \"#utility.yul\":9866:9875   */\n      dup4\n        /* \"#utility.yul\":9862:9879   */\n      add\n        /* \"#utility.yul\":9855:9902   */\n      mstore\n        /* \"#utility.yul\":9919:9997   */\n      tag_183\n        /* \"#utility.yul\":9992:9996   */\n      dup2\n        /* \"#utility.yul\":9983:9989   */\n      dup6\n        /* \"#utility.yul\":9919:9997   */\n      tag_71\n      jump\t// in\n    tag_183:\n        /* \"#utility.yul\":9911:9997   */\n      swap1\n      pop\n        /* \"#utility.yul\":10044:10053   */\n      dup2\n        /* \"#utility.yul\":10038:10042   */\n      dup2\n        /* \"#utility.yul\":10034:10054   */\n      sub\n        /* \"#utility.yul\":10029:10031   */\n      0x20\n        /* \"#utility.yul\":10018:10027   */\n      dup4\n        /* \"#utility.yul\":10014:10032   */\n      add\n        /* \"#utility.yul\":10007:10055   */\n      mstore\n        /* \"#utility.yul\":10072:10150   */\n      tag_184\n        /* \"#utility.yul\":10145:10149   */\n      dup2\n        /* \"#utility.yul\":10136:10142   */\n      dup5\n        /* \"#utility.yul\":10072:10150   */\n      tag_71\n      jump\t// in\n    tag_184:\n        /* \"#utility.yul\":10064:10150   */\n      swap1\n      pop\n        /* \"#utility.yul\":9643:10157   */\n      swap4\n      swap3\n      pop\n      pop\n      pop\n      jump\t// out\n        /* \"#utility.yul\":10163:10257   */\n    tag_72:\n        /* \"#utility.yul\":10196:10204   */\n      0x00\n        /* \"#utility.yul\":10244:10249   */\n      dup2\n        /* \"#utility.yul\":10240:10242   */\n      0x60\n        /* \"#utility.yul\":10236:10250   */\n      shl\n        /* \"#utility.yul\":10215:10250   */\n      swap1\n      pop\n        /* \"#utility.yul\":10163:10257   */\n      swap2\n      swap1\n      pop\n      jump\t// out\n        /* \"#utility.yul\":10263:10357   */\n    tag_73:\n        /* \"#utility.yul\":10302:10309   */\n      0x00\n        /* \"#utility.yul\":10331:10351   */\n      tag_187\n        /* \"#utility.yul\":10345:10350   */\n      dup3\n        /* \"#utility.yul\":10331:10351   */\n      tag_72\n      jump\t// in\n    tag_187:\n        /* \"#utility.yul\":10320:10351   */\n      swap1\n      pop\n        /* \"#utility.yul\":10263:10357   */\n      swap2\n      swap1\n      pop\n      jump\t// out\n        /* \"#utility.yul\":10363:10463   */\n    tag_74:\n        /* \"#utility.yul\":10402:10409   */\n      0x00\n        /* \"#utility.yul\":10431:10457   */\n      tag_189\n        /* \"#utility.yul\":10451:10456   */\n      dup3\n        /* \"#utility.yul\":10431:10457   */\n      tag_73\n      jump\t// in\n    tag_189:\n        /* \"#utility.yul\":10420:10457   */\n      swap1\n      pop\n        /* \"#utility.yul\":10363:10463   */\n      swap2\n      swap1\n      pop\n      jump\t// out\n        /* \"#utility.yul\":10469:10626   */\n    tag_75:\n        /* \"#utility.yul\":10574:10619   */\n      tag_191\n        /* \"#utility.yul\":10594:10618   */\n      tag_192\n        /* \"#utility.yul\":10612:10617   */\n      dup3\n        /* \"#utility.yul\":10594:10618   */\n      tag_62\n      jump\t// in\n    tag_192:\n        /* \"#utility.yul\":10574:10619   */\n      tag_74\n      jump\t// in\n    tag_191:\n        /* \"#utility.yul\":10569:10572   */\n      dup3\n        /* \"#utility.yul\":10562:10620   */\n      mstore\n        /* \"#utility.yul\":10469:10626   */\n      pop\n      pop\n      jump\t// out\n        /* \"#utility.yul\":10632:11189   */\n    tag_36:\n        /* \"#utility.yul\":10820:10823   */\n      0x00\n        /* \"#utility.yul\":10842:10937   */\n      tag_194\n        /* \"#utility.yul\":10933:10936   */\n      dup3\n        /* \"#utility.yul\":10924:10930   */\n      dup7\n        /* \"#utility.yul\":10842:10937   */\n      tag_67\n      jump\t// in\n    tag_194:\n        /* \"#utility.yul\":10835:10937   */\n      swap2\n      pop\n        /* \"#utility.yul\":10947:11022   */\n      tag_195\n        /* \"#utility.yul\":11018:11021   */\n      dup3\n        /* \"#utility.yul\":11009:11015   */\n      dup6\n        /* \"#utility.yul\":10947:11022   */\n      tag_69\n      jump\t// in\n    tag_195:\n        /* \"#utility.yul\":11047:11049   */\n      0x20\n        /* \"#utility.yul\":11042:11045   */\n      dup3\n        /* \"#utility.yul\":11038:11050   */\n      add\n        /* \"#utility.yul\":11031:11050   */\n      swap2\n      pop\n        /* \"#utility.yul\":11060:11135   */\n      tag_196\n        /* \"#utility.yul\":11131:11134   */\n      dup3\n        /* \"#utility.yul\":11122:11128   */\n      dup5\n        /* \"#utility.yul\":11060:11135   */\n      tag_75\n      jump\t// in\n    tag_196:\n        /* \"#utility.yul\":11160:11162   */\n      0x14\n        /* \"#utility.yul\":11155:11158   */\n      dup3\n        /* \"#utility.yul\":11151:11163   */\n      add\n        /* \"#utility.yul\":11144:11163   */\n      swap2\n      pop\n        /* \"#utility.yul\":11180:11183   */\n      dup2\n        /* \"#utility.yul\":11173:11183   */\n      swap1\n      pop\n        /* \"#utility.yul\":10632:11189   */\n      swap5\n      swap4\n      pop\n      pop\n      pop\n      pop\n      jump\t// out\n\n    auxdata: 0xa26469706673582212207f42157d51211e344c3bad825a58840dc1b5c2783a6933624657eef4adb54d7f64736f6c634300081a0033\n}\n",
				"bytecode": {
					"linkReferences": {},
					"object": "6080604052348015600e575f80fd5b5061078d8061001c5f395ff3fe608060405234801561000f575f80fd5b506004361061004a575f3560e01c806309518e1e1461004e57806317fe2da21461007e5780635dda416e146100ae578063892e5d01146100de575b5f80fd5b61006860048036038101906100639190610350565b61010e565b60405161007591906103f0565b60405180910390f35b61009860048036038101906100939190610409565b610143565b6040516100a591906104df565b60405180910390f35b6100c860048036038101906100c39190610559565b61016f565b6040516100d591906103f0565b60405180910390f35b6100f860048036038101906100f39190610409565b6101a4565b60405161010591906104df565b60405180910390f35b5f83838360405160200161012493929190610629565b6040516020818303038152906040528051906020012090509392505050565b606082826040516020016101589291906106a5565b604051602081830303815290604052905092915050565b5f8383836040516020016101859392919061071f565b6040516020818303038152906040528051906020012090509392505050565b606082826040516020016101b99291906106a5565b604051602081830303815290604052905092915050565b5f604051905090565b5f80fd5b5f80fd5b5f80fd5b5f80fd5b5f601f19601f8301169050919050565b7f4e487b71000000000000000000000000000000000000000000000000000000005f52604160045260245ffd5b61022f826101e9565b810181811067ffffffffffffffff8211171561024e5761024d6101f9565b5b80604052505050565b5f6102606101d0565b905061026c8282610226565b919050565b5f67ffffffffffffffff82111561028b5761028a6101f9565b5b610294826101e9565b9050602081019050919050565b828183375f83830152505050565b5f6102c16102bc84610271565b610257565b9050828152602081018484840111156102dd576102dc6101e5565b5b6102e88482856102a1565b509392505050565b5f82601f830112610304576103036101e1565b5b81356103148482602086016102af565b91505092915050565b5f819050919050565b61032f8161031d565b8114610339575f80fd5b50565b5f8135905061034a81610326565b92915050565b5f805f60608486031215610367576103666101d9565b5b5f84013567ffffffffffffffff811115610384576103836101dd565b5b610390868287016102f0565b93505060206103a18682870161033c565b925050604084013567ffffffffffffffff8111156103c2576103c16101dd565b5b6103ce868287016102f0565b9150509250925092565b5f819050919050565b6103ea816103d8565b82525050565b5f6020820190506104035f8301846103e1565b92915050565b5f806040838503121561041f5761041e6101d9565b5b5f83013567ffffffffffffffff81111561043c5761043b6101dd565b5b610448858286016102f0565b925050602083013567ffffffffffffffff811115610469576104686101dd565b5b610475858286016102f0565b9150509250929050565b5f81519050919050565b5f82825260208201905092915050565b8281835e5f83830152505050565b5f6104b18261047f565b6104bb8185610489565b93506104cb818560208601610499565b6104d4816101e9565b840191505092915050565b5f6020820190508181035f8301526104f781846104a7565b905092915050565b5f73ffffffffffffffffffffffffffffffffffffffff82169050919050565b5f610528826104ff565b9050919050565b6105388161051e565b8114610542575f80fd5b50565b5f813590506105538161052f565b92915050565b5f805f606084860312156105705761056f6101d9565b5b5f84013567ffffffffffffffff81111561058d5761058c6101dd565b5b610599868287016102f0565b93505060206105aa8682870161033c565b92505060406105bb86828701610545565b9150509250925092565b5f81519050919050565b5f81905092915050565b5f6105e3826105c5565b6105ed81856105cf565b93506105fd818560208601610499565b80840191505092915050565b5f819050919050565b61062361061e8261031d565b610609565b82525050565b5f61063482866105d9565b91506106408285610612565b60208201915061065082846105d9565b9150819050949350505050565b5f82825260208201905092915050565b5f610677826105c5565b610681818561065d565b9350610691818560208601610499565b61069a816101e9565b840191505092915050565b5f6040820190508181035f8301526106bd818561066d565b905081810360208301526106d1818461066d565b90509392505050565b5f8160601b9050919050565b5f6106f0826106da565b9050919050565b5f610701826106e6565b9050919050565b6107196107148261051e565b6106f7565b82525050565b5f61072a82866105d9565b91506107368285610612565b6020820191506107468284610708565b60148201915081905094935050505056fea26469706673582212207f42157d51211e344c3bad825a58840dc1b5c2783a6933624657eef4adb54d7f64736f6c634300081a0033",
					"opcodes": "PUSH1 0x80 PUSH1 0x40 MSTORE CALLVALUE DUP1 ISZERO PUSH1 0xE JUMPI PUSH0 DUP1 REVERT JUMPDEST POP PUSH2 0x78D DUP1 PUSH2 0x1C PUSH0 CODECOPY PUSH0 RETURN INVALID PUSH1 0x80 PUSH1 0x40 MSTORE CALLVALUE DUP1 ISZERO PUSH2 0xF JUMPI PUSH0 DUP1 REVERT JUMPDEST POP PUSH1 0x4 CALLDATASIZE LT PUSH2 0x4A JUMPI PUSH0 CALLDATALOAD PUSH1 0xE0 SHR DUP1 PUSH4 0x9518E1E EQ PUSH2 0x4E JUMPI DUP1 PUSH4 0x17FE2DA2 EQ PUSH2 0x7E JUMPI DUP1 PUSH4 0x5DDA416E EQ PUSH2 0xAE JUMPI DUP1 PUSH4 0x892E5D01 EQ PUSH2 0xDE JUMPI JUMPDEST PUSH0 DUP1 REVERT JUMPDEST PUSH2 0x68 PUSH1 0x4 DUP1 CALLDATASIZE SUB DUP2 ADD SWAP1 PUSH2 0x63 SWAP2 SWAP1 PUSH2 0x350 JUMP JUMPDEST PUSH2 0x10E JUMP JUMPDEST PUSH1 0x40 MLOAD PUSH2 0x75 SWAP2 SWAP1 PUSH2 0x3F0 JUMP JUMPDEST PUSH1 0x40 MLOAD DUP1 SWAP2 SUB SWAP1 RETURN JUMPDEST PUSH2 0x98 PUSH1 0x4 DUP1 CALLDATASIZE SUB DUP2 ADD SWAP1 PUSH2 0x93 SWAP2 SWAP1 PUSH2 0x409 JUMP JUMPDEST PUSH2 0x143 JUMP JUMPDEST PUSH1 0x40 MLOAD PUSH2 0xA5 SWAP2 SWAP1 PUSH2 0x4DF JUMP JUMPDEST PUSH1 0x40 MLOAD DUP1 SWAP2 SUB SWAP1 RETURN JUMPDEST PUSH2 0xC8 PUSH1 0x4 DUP1 CALLDATASIZE SUB DUP2 ADD SWAP1 PUSH2 0xC3 SWAP2 SWAP1 PUSH2 0x559 JUMP JUMPDEST PUSH2 0x16F JUMP JUMPDEST PUSH1 0x40 MLOAD PUSH2 0xD5 SWAP2 SWAP1 PUSH2 0x3F0 JUMP JUMPDEST PUSH1 0x40 MLOAD DUP1 SWAP2 SUB SWAP1 RETURN JUMPDEST PUSH2 0xF8 PUSH1 0x4 DUP1 CALLDATASIZE SUB DUP2 ADD SWAP1 PUSH2 0xF3 SWAP2 SWAP1 PUSH2 0x409 JUMP JUMPDEST PUSH2 0x1A4 JUMP JUMPDEST PUSH1 0x40 MLOAD PUSH2 0x105 SWAP2 SWAP1 PUSH2 0x4DF JUMP JUMPDEST PUSH1 0x40 MLOAD DUP1 SWAP2 SUB SWAP1 RETURN JUMPDEST PUSH0 DUP4 DUP4 DUP4 PUSH1 0x40 MLOAD PUSH1 0x20 ADD PUSH2 0x124 SWAP4 SWAP3 SWAP2 SWAP1 PUSH2 0x629 JUMP JUMPDEST PUSH1 0x40 MLOAD PUSH1 0x20 DUP2 DUP4 SUB SUB DUP2 MSTORE SWAP1 PUSH1 0x40 MSTORE DUP1 MLOAD SWAP1 PUSH1 0x20 ADD KECCAK256 SWAP1 POP SWAP4 SWAP3 POP POP POP JUMP JUMPDEST PUSH1 0x60 DUP3 DUP3 PUSH1 0x40 MLOAD PUSH1 0x20 ADD PUSH2 0x158 SWAP3 SWAP2 SWAP1 PUSH2 0x6A5 JUMP JUMPDEST PUSH1 0x40 MLOAD PUSH1 0x20 DUP2 DUP4 SUB SUB DUP2 MSTORE SWAP1 PUSH1 0x40 MSTORE SWAP1 POP SWAP3 SWAP2 POP POP JUMP JUMPDEST PUSH0 DUP4 DUP4 DUP4 PUSH1 0x40 MLOAD PUSH1 0x20 ADD PUSH2 0x185 SWAP4 SWAP3 SWAP2 SWAP1 PUSH2 0x71F JUMP JUMPDEST PUSH1 0x40 MLOAD PUSH1 0x20 DUP2 DUP4 SUB SUB DUP2 MSTORE SWAP1 PUSH1 0x40 MSTORE DUP1 MLOAD SWAP1 PUSH1 0x20 ADD KECCAK256 SWAP1 POP SWAP4 SWAP3 POP POP POP JUMP JUMPDEST PUSH1 0x60 DUP3 DUP3 PUSH1 0x40 MLOAD PUSH1 0x20 ADD PUSH2 0x1B9 SWAP3 SWAP2 SWAP1 PUSH2 0x6A5 JUMP JUMPDEST PUSH1 0x40 MLOAD PUSH1 0x20 DUP2 DUP4 SUB SUB DUP2 MSTORE SWAP1 PUSH1 0x40 MSTORE SWAP1 POP SWAP3 SWAP2 POP POP JUMP JUMPDEST PUSH0 PUSH1 0x40 MLOAD SWAP1 POP SWAP1 JUMP JUMPDEST PUSH0 DUP1 REVERT JUMPDEST PUSH0 DUP1 REVERT JUMPDEST PUSH0 DUP1 REVERT JUMPDEST PUSH0 DUP1 REVERT JUMPDEST PUSH0 PUSH1 0x1F NOT PUSH1 0x1F DUP4 ADD AND SWAP1 POP SWAP2 SWAP1 POP JUMP JUMPDEST PUSH32 0x4E487B7100000000000000000000000000000000000000000000000000000000 PUSH0 MSTORE PUSH1 0x41 PUSH1 0x4 MSTORE PUSH1 0x24 PUSH0 REVERT JUMPDEST PUSH2 0x22F DUP3 PUSH2 0x1E9 JUMP JUMPDEST DUP2 ADD DUP2 DUP2 LT PUSH8 0xFFFFFFFFFFFFFFFF DUP3 GT OR ISZERO PUSH2 0x24E JUMPI PUSH2 0x24D PUSH2 0x1F9 JUMP JUMPDEST JUMPDEST DUP1 PUSH1 0x40 MSTORE POP POP POP JUMP JUMPDEST PUSH0 PUSH2 0x260 PUSH2 0x1D0 JUMP JUMPDEST SWAP1 POP PUSH2 0x26C DUP3 DUP3 PUSH2 0x226 JUMP JUMPDEST SWAP2 SWAP1 POP JUMP JUMPDEST PUSH0 PUSH8 0xFFFFFFFFFFFFFFFF DUP3 GT ISZERO PUSH2 0x28B JUMPI PUSH2 0x28A PUSH2 0x1F9 JUMP JUMPDEST JUMPDEST PUSH2 0x294 DUP3 PUSH2 0x1E9 JUMP JUMPDEST SWAP1 POP PUSH1 0x20 DUP2 ADD SWAP1 POP SWAP2 SWAP1 POP JUMP JUMPDEST DUP3 DUP2 DUP4 CALLDATACOPY PUSH0 DUP4 DUP4 ADD MSTORE POP POP POP JUMP JUMPDEST PUSH0 PUSH2 0x2C1 PUSH2 0x2BC DUP5 PUSH2 0x271 JUMP JUMPDEST PUSH2 0x257 JUMP JUMPDEST SWAP1 POP DUP3 DUP2 MSTORE PUSH1 0x20 DUP2 ADD DUP5 DUP5 DUP5 ADD GT ISZERO PUSH2 0x2DD JUMPI PUSH2 0x2DC PUSH2 0x1E5 JUMP JUMPDEST JUMPDEST PUSH2 0x2E8 DUP5 DUP3 DUP6 PUSH2 0x2A1 JUMP JUMPDEST POP SWAP4 SWAP3 POP POP POP JUMP JUMPDEST PUSH0 DUP3 PUSH1 0x1F DUP4 ADD SLT PUSH2 0x304 JUMPI PUSH2 0x303 PUSH2 0x1E1 JUMP JUMPDEST JUMPDEST DUP2 CALLDATALOAD PUSH2 0x314 DUP5 DUP3 PUSH1 0x20 DUP7 ADD PUSH2 0x2AF JUMP JUMPDEST SWAP2 POP POP SWAP3 SWAP2 POP POP JUMP JUMPDEST PUSH0 DUP2 SWAP1 POP SWAP2 SWAP1 POP JUMP JUMPDEST PUSH2 0x32F DUP2 PUSH2 0x31D JUMP JUMPDEST DUP2 EQ PUSH2 0x339 JUMPI PUSH0 DUP1 REVERT JUMPDEST POP JUMP JUMPDEST PUSH0 DUP2 CALLDATALOAD SWAP1 POP PUSH2 0x34A DUP2 PUSH2 0x326 JUMP JUMPDEST SWAP3 SWAP2 POP POP JUMP JUMPDEST PUSH0 DUP1 PUSH0 PUSH1 0x60 DUP5 DUP7 SUB SLT ISZERO PUSH2 0x367 JUMPI PUSH2 0x366 PUSH2 0x1D9 JUMP JUMPDEST JUMPDEST PUSH0 DUP5 ADD CALLDATALOAD PUSH8 0xFFFFFFFFFFFFFFFF DUP2 GT ISZERO PUSH2 0x384 JUMPI PUSH2 0x383 PUSH2 0x1DD JUMP JUMPDEST JUMPDEST PUSH2 0x390 DUP7 DUP3 DUP8 ADD PUSH2 0x2F0 JUMP JUMPDEST SWAP4 POP POP PUSH1 0x20 PUSH2 0x3A1 DUP7 DUP3 DUP8 ADD PUSH2 0x33C JUMP JUMPDEST SWAP3 POP POP PUSH1 0x40 DUP5 ADD CALLDATALOAD PUSH8 0xFFFFFFFFFFFFFFFF DUP2 GT ISZERO PUSH2 0x3C2 JUMPI PUSH2 0x3C1 PUSH2 0x1DD JUMP JUMPDEST JUMPDEST PUSH2 0x3CE DUP7 DUP3 DUP8 ADD PUSH2 0x2F0 JUMP JUMPDEST SWAP2 POP POP SWAP3 POP SWAP3 POP SWAP3 JUMP JUMPDEST PUSH0 DUP2 SWAP1 POP SWAP2 SWAP1 POP JUMP JUMPDEST PUSH2 0x3EA DUP2 PUSH2 0x3D8 JUMP JUMPDEST DUP3 MSTORE POP POP JUMP JUMPDEST PUSH0 PUSH1 0x20 DUP3 ADD SWAP1 POP PUSH2 0x403 PUSH0 DUP4 ADD DUP5 PUSH2 0x3E1 JUMP JUMPDEST SWAP3 SWAP2 POP POP JUMP JUMPDEST PUSH0 DUP1 PUSH1 0x40 DUP4 DUP6 SUB SLT ISZERO PUSH2 0x41F JUMPI PUSH2 0x41E PUSH2 0x1D9 JUMP JUMPDEST JUMPDEST PUSH0 DUP4 ADD CALLDATALOAD PUSH8 0xFFFFFFFFFFFFFFFF DUP2 GT ISZERO PUSH2 0x43C JUMPI PUSH2 0x43B PUSH2 0x1DD JUMP JUMPDEST JUMPDEST PUSH2 0x448 DUP6 DUP3 DUP7 ADD PUSH2 0x2F0 JUMP JUMPDEST SWAP3 POP POP PUSH1 0x20 DUP4 ADD CALLDATALOAD PUSH8 0xFFFFFFFFFFFFFFFF DUP2 GT ISZERO PUSH2 0x469 JUMPI PUSH2 0x468 PUSH2 0x1DD JUMP JUMPDEST JUMPDEST PUSH2 0x475 DUP6 DUP3 DUP7 ADD PUSH2 0x2F0 JUMP JUMPDEST SWAP2 POP POP SWAP3 POP SWAP3 SWAP1 POP JUMP JUMPDEST PUSH0 DUP2 MLOAD SWAP1 POP SWAP2 SWAP1 POP JUMP JUMPDEST PUSH0 DUP3 DUP3 MSTORE PUSH1 0x20 DUP3 ADD SWAP1 POP SWAP3 SWAP2 POP POP JUMP JUMPDEST DUP3 DUP2 DUP4 MCOPY PUSH0 DUP4 DUP4 ADD MSTORE POP POP POP JUMP JUMPDEST PUSH0 PUSH2 0x4B1 DUP3 PUSH2 0x47F JUMP JUMPDEST PUSH2 0x4BB DUP2 DUP6 PUSH2 0x489 JUMP JUMPDEST SWAP4 POP PUSH2 0x4CB DUP2 DUP6 PUSH1 0x20 DUP7 ADD PUSH2 0x499 JUMP JUMPDEST PUSH2 0x4D4 DUP2 PUSH2 0x1E9 JUMP JUMPDEST DUP5 ADD SWAP2 POP POP SWAP3 SWAP2 POP POP JUMP JUMPDEST PUSH0 PUSH1 0x20 DUP3 ADD SWAP1 POP DUP2 DUP2 SUB PUSH0 DUP4 ADD MSTORE PUSH2 0x4F7 DUP2 DUP5 PUSH2 0x4A7 JUMP JUMPDEST SWAP1 POP SWAP3 SWAP2 POP POP JUMP JUMPDEST PUSH0 PUSH20 0xFFFFFFFFFFFFFFFFFFFFFFFFFFFFFFFFFFFFFFFF DUP3 AND SWAP1 POP SWAP2 SWAP1 POP JUMP JUMPDEST PUSH0 PUSH2 0x528 DUP3 PUSH2 0x4FF JUMP JUMPDEST SWAP1 POP SWAP2 SWAP1 POP JUMP JUMPDEST PUSH2 0x538 DUP2 PUSH2 0x51E JUMP JUMPDEST DUP2 EQ PUSH2 0x542 JUMPI PUSH0 DUP1 REVERT JUMPDEST POP JUMP JUMPDEST PUSH0 DUP2 CALLDATALOAD SWAP1 POP PUSH2 0x553 DUP2 PUSH2 0x52F JUMP JUMPDEST SWAP3 SWAP2 POP POP JUMP JUMPDEST PUSH0 DUP1 PUSH0 PUSH1 0x60 DUP5 DUP7 SUB SLT ISZERO PUSH2 0x570 JUMPI PUSH2 0x56F PUSH2 0x1D9 JUMP JUMPDEST JUMPDEST PUSH0 DUP5 ADD CALLDATALOAD PUSH8 0xFFFFFFFFFFFFFFFF DUP2 GT ISZERO PUSH2 0x58D JUMPI PUSH2 0x58C PUSH2 0x1DD JUMP JUMPDEST JUMPDEST PUSH2 0x599 DUP7 DUP3 DUP8 ADD PUSH2 0x2F0 JUMP JUMPDEST SWAP4 POP POP PUSH1 0x20 PUSH2 0x5AA DUP7 DUP3 DUP8 ADD PUSH2 0x33C JUMP JUMPDEST SWAP3 POP POP PUSH1 0x40 PUSH2 0x5BB DUP7 DUP3 DUP8 ADD PUSH2 0x545 JUMP JUMPDEST SWAP2 POP POP SWAP3 POP SWAP3 POP SWAP3 JUMP JUMPDEST PUSH0 DUP2 MLOAD SWAP1 POP SWAP2 SWAP1 POP JUMP JUMPDEST PUSH0 DUP2 SWAP1 POP SWAP3 SWAP2 POP POP JUMP JUMPDEST PUSH0 PUSH2 0x5E3 DUP3 PUSH2 0x5C5 JUMP JUMPDEST PUSH2 0x5ED DUP2 DUP6 PUSH2 0x5CF JUMP JUMPDEST SWAP4 POP PUSH2 0x5FD DUP2 DUP6 PUSH1 0x20 DUP7 ADD PUSH2 0x499 JUMP JUMPDEST DUP1 DUP5 ADD SWAP2 POP POP SWAP3 SWAP2 POP POP JUMP JUMPDEST PUSH0 DUP2 SWAP1 POP SWAP2 SWAP1 POP JUMP JUMPDEST PUSH2 0x623 PUSH2 0x61E DUP3 PUSH2 0x31D JUMP JUMPDEST PUSH2 0x609 JUMP JUMPDEST DUP3 MSTORE POP POP JUMP JUMPDEST PUSH0 PUSH2 0x634 DUP3 DUP7 PUSH2 0x5D9 JUMP JUMPDEST SWAP2 POP PUSH2 0x640 DUP3 DUP6 PUSH2 0x612 JUMP JUMPDEST PUSH1 0x20 DUP3 ADD SWAP2 POP PUSH2 0x650 DUP3 DUP5 PUSH2 0x5D9 JUMP JUMPDEST SWAP2 POP DUP2 SWAP1 POP SWAP5 SWAP4 POP POP POP POP JUMP JUMPDEST PUSH0 DUP3 DUP3 MSTORE PUSH1 0x20 DUP3 ADD SWAP1 POP SWAP3 SWAP2 POP POP JUMP JUMPDEST PUSH0 PUSH2 0x677 DUP3 PUSH2 0x5C5 JUMP JUMPDEST PUSH2 0x681 DUP2 DUP6 PUSH2 0x65D JUMP JUMPDEST SWAP4 POP PUSH2 0x691 DUP2 DUP6 PUSH1 0x20 DUP7 ADD PUSH2 0x499 JUMP JUMPDEST PUSH2 0x69A DUP2 PUSH2 0x1E9 JUMP JUMPDEST DUP5 ADD SWAP2 POP POP SWAP3 SWAP2 POP POP JUMP JUMPDEST PUSH0 PUSH1 0x40 DUP3 ADD SWAP1 POP DUP2 DUP2 SUB PUSH0 DUP4 ADD MSTORE PUSH2 0x6BD DUP2 DUP6 PUSH2 0x66D JUMP JUMPDEST SWAP1 POP DUP2 DUP2 SUB PUSH1 0x20 DUP4 ADD MSTORE PUSH2 0x6D1 DUP2 DUP5 PUSH2 0x66D JUMP JUMPDEST SWAP1 POP SWAP4 SWAP3 POP POP POP JUMP JUMPDEST PUSH0 DUP2 PUSH1 0x60 SHL SWAP1 POP SWAP2 SWAP1 POP JUMP JUMPDEST PUSH0 PUSH2 0x6F0 DUP3 PUSH2 0x6DA JUMP JUMPDEST SWAP1 POP SWAP2 SWAP1 POP JUMP JUMPDEST PUSH0 PUSH2 0x701 DUP3 PUSH2 0x6E6 JUMP JUMPDEST SWAP1 POP SWAP2 SWAP1 POP JUMP JUMPDEST PUSH2 0x719 PUSH2 0x714 DUP3 PUSH2 0x51E JUMP JUMPDEST PUSH2 0x6F7 JUMP JUMPDEST DUP3 MSTORE POP POP JUMP JUMPDEST PUSH0 PUSH2 0x72A DUP3 DUP7 PUSH2 0x5D9 JUMP JUMPDEST SWAP2 POP PUSH2 0x736 DUP3 DUP6 PUSH2 0x612 JUMP JUMPDEST PUSH1 0x20 DUP3 ADD SWAP2 POP PUSH2 0x746 DUP3 DUP5 PUSH2 0x708 JUMP JUMPDEST PUSH1 0x14 DUP3 ADD SWAP2 POP DUP2 SWAP1 POP SWAP5 SWAP4 POP POP POP POP JUMP INVALID LOG2 PUSH5 0x6970667358 0x22 SLT KECCAK256 PUSH32 0x42157D51211E344C3BAD825A58840DC1B5C2783A6933624657EEF4ADB54D7F64 PUSH20 0x6F6C634300081A00330000000000000000000000 "
				},
				"gasEstimates": {
					"creation": {
						"codeDepositCost": "386600",
						"executionCost": "422",
						"totalCost": "387022"
					},
					"external": {
						"collision(string,uint256,string)": "infinite",
						"encode(string,string)": "infinite",
						"encodePacked(string,string)": "infinite",
						"hash(string,uint256,address)": "infinite"
					}
				},
				"methodIdentifiers": {
					"collision(string,uint256,string)": "09518e1e",
					"encode(string,string)": "17fe2da2",
					"encodePacked(string,string)": "892e5d01",
					"hash(string,uint256,address)": "5dda416e"
				}
			},
			"storageLayout": {
				"storage": [],
				"types": null
			},
			"userdoc": {
				"kind": "user",
				"methods": {},
				"version": 1
			}
		}
	}
}