{
	"5w/BitwiseOps.sol": {
		"BitwiseOps": {
			"abi": [
				{
					"inputs": [
						{
							"internalType": "uint256",
							"name": "x",
							"type": "uint256"
						},
						{
							"internalType": "uint256",
							"name": "y",
							"type": "uint256"
						}
					],
					"name": "and",
					"outputs": [
						{
							"internalType": "uint256",
							"name": "",
							"type": "uint256"
						}
					],
					"stateMutability": "pure",
					"type": "function"
				},
				{
					"inputs": [
						{
							"internalType": "uint256",
							"name": "x",
							"type": "uint256"
						},
						{
							"internalType": "uint256",
							"name": "n",
							"type": "uint256"
						}
					],
					"name": "getLastNBitUsingMod",
					"outputs": [
						{
							"internalType": "uint256",
							"name": "",
							"type": "uint256"
						}
					],
					"stateMutability": "pure",
					"type": "function"
				},
				{
					"inputs": [
						{
							"internalType": "uint256",
							"name": "x",
							"type": "uint256"
						},
						{
							"internalType": "uint256",
							"name": "n",
							"type": "uint256"
						}
					],
					"name": "getLastNBits",
					"outputs": [
						{
							"internalType": "uint256",
							"name": "",
							"type": "uint256"
						}
					],
					"stateMutability": "pure",
					"type": "function"
				},
				{
					"inputs": [
						{
							"internalType": "uint256",
							"name": "x",
							"type": "uint256"
						}
					],
					"name": "not",
					"outputs": [
						{
							"internalType": "uint256",
							"name": "",
							"type": "uint256"
						}
					],
					"stateMutability": "pure",
					"type": "function"
				},
				{
					"inputs": [
						{
							"internalType": "uint256",
							"name": "x",
							"type": "uint256"
						},
						{
							"internalType": "uint256",
							"name": "y",
							"type": "uint256"
						}
					],
					"name": "or",
					"outputs": [
						{
							"internalType": "uint256",
							"name": "",
							"type": "uint256"
						}
					],
					"stateMutability": "pure",
					"type": "function"
				},
				{
					"inputs": [
						{
							"internalType": "uint256",
							"name": "x",
							"type": "uint256"
						},
						{
							"internalType": "uint256",
							"name": "bits",
							"type": "uint256"
						}
					],
					"name": "shiftLeft",
					"outputs": [
						{
							"internalType": "uint256",
							"name": "",
							"type": "uint256"
						}
					],
					"stateMutability": "pure",
					"type": "function"
				},
				{
					"inputs": [
						{
							"internalType": "uint256",
							"name": "x",
							"type": "uint256"
						},
						{
							"internalType": "uint256",
							"name": "bits",
							"type": "uint256"
						}
					],
					"name": "shiftRight",
					"outputs": [
						{
							"internalType": "uint256",
							"name": "",
							"type": "uint256"
						}
					],
					"stateMutability": "pure",
					"type": "function"
				},
				{
					"inputs": [
						{
							"internalType": "uint256",
							"name": "x",
							"type": "uint256"
						},
						{
							"internalType": "uint256",
							"name": "y",
							"type": "uint256"
						}
					],
					"name": "xor",
					"outputs": [
						{
							"internalType": "uint256",
							"name": "",
							"type": "uint256"
						}
					],
					"stateMutability": "pure",
					"type": "function"
				}
			],
			"devdoc": {
				"kind": "dev",
				"methods": {},
				"version": 1
			},
			"evm": {
				"assembly": "    /* \"5w/BitwiseOps.sol\":58:2461  contract BitwiseOps{... */\n  mstore(0x40, 0x80)\n  callvalue\n  dup1\n  iszero\n  tag_1\n  jumpi\n  revert(0x00, 0x00)\ntag_1:\n  pop\n  dataSize(sub_0)\n  dup1\n  dataOffset(sub_0)\n  0x00\n  codecopy\n  0x00\n  return\nstop\n\nsub_0: assembly {\n        /* \"5w/BitwiseOps.sol\":58:2461  contract BitwiseOps{... */\n      mstore(0x40, 0x80)\n      callvalue\n      dup1\n      iszero\n      tag_1\n      jumpi\n      revert(0x00, 0x00)\n    tag_1:\n      pop\n      jumpi(tag_2, lt(calldatasize, 0x04))\n      shr(0xe0, calldataload(0x00))\n      dup1\n      0x9ed41ba1\n      gt\n      tag_11\n      jumpi\n      dup1\n      0x9ed41ba1\n      eq\n      tag_7\n      jumpi\n      dup1\n      0xa589d212\n      eq\n      tag_8\n      jumpi\n      dup1\n      0xbcc68a1b\n      eq\n      tag_9\n      jumpi\n      dup1\n      0xdf0ff104\n      eq\n      tag_10\n      jumpi\n      jump(tag_2)\n    tag_11:\n      dup1\n      0x097c2cb2\n      eq\n      tag_3\n      jumpi\n      dup1\n      0x1685fa98\n      eq\n      tag_4\n      jumpi\n      dup1\n      0x21a95296\n      eq\n      tag_5\n      jumpi\n      dup1\n      0x903b9842\n      eq\n      tag_6\n      jumpi\n    tag_2:\n      revert(0x00, 0x00)\n        /* \"5w/BitwiseOps.sol\":506:601  function or(uint256 x, uint256 y) external pure returns (uint256) {... */\n    tag_3:\n      tag_12\n      0x04\n      dup1\n      calldatasize\n      sub\n      dup2\n      add\n      swap1\n      tag_13\n      swap2\n      swap1\n      tag_14\n      jump\t// in\n    tag_13:\n      tag_15\n      jump\t// in\n    tag_12:\n      mload(0x40)\n      tag_16\n      swap2\n      swap1\n      tag_17\n      jump\t// in\n    tag_16:\n      mload(0x40)\n      dup1\n      swap2\n      sub\n      swap1\n      return\n        /* \"5w/BitwiseOps.sol\":1587:1694  function shiftRight(uint256 x,uint256 bits) external pure returns(uint256){... */\n    tag_4:\n      tag_18\n      0x04\n      dup1\n      calldatasize\n      sub\n      dup2\n      add\n      swap1\n      tag_19\n      swap2\n      swap1\n      tag_14\n      jump\t// in\n    tag_19:\n      tag_20\n      jump\t// in\n    tag_18:\n      mload(0x40)\n      tag_21\n      swap2\n      swap1\n      tag_17\n      jump\t// in\n    tag_21:\n      mload(0x40)\n      dup1\n      swap2\n      sub\n      swap1\n      return\n        /* \"5w/BitwiseOps.sol\":2078:2214  function getLastNBits(uint256 x,uint256 n)external pure returns(uint256){... */\n    tag_5:\n      tag_22\n      0x04\n      dup1\n      calldatasize\n      sub\n      dup2\n      add\n      swap1\n      tag_23\n      swap2\n      swap1\n      tag_14\n      jump\t// in\n    tag_23:\n      tag_24\n      jump\t// in\n    tag_22:\n      mload(0x40)\n      tag_25\n      swap2\n      swap1\n      tag_17\n      jump\t// in\n    tag_25:\n      mload(0x40)\n      dup1\n      swap2\n      sub\n      swap1\n      return\n        /* \"5w/BitwiseOps.sol\":240:336  function and(uint256 x, uint256 y) external pure returns (uint256) {... */\n    tag_6:\n      tag_26\n      0x04\n      dup1\n      calldatasize\n      sub\n      dup2\n      add\n      swap1\n      tag_27\n      swap2\n      swap1\n      tag_14\n      jump\t// in\n    tag_27:\n      tag_28\n      jump\t// in\n    tag_26:\n      mload(0x40)\n      tag_29\n      swap2\n      swap1\n      tag_17\n      jump\t// in\n    tag_29:\n      mload(0x40)\n      dup1\n      swap2\n      sub\n      swap1\n      return\n        /* \"5w/BitwiseOps.sol\":773:868  function xor(uint256 x,uint256 y) external pure returns (uint256) {... */\n    tag_7:\n      tag_30\n      0x04\n      dup1\n      calldatasize\n      sub\n      dup2\n      add\n      swap1\n      tag_31\n      swap2\n      swap1\n      tag_14\n      jump\t// in\n    tag_31:\n      tag_32\n      jump\t// in\n    tag_30:\n      mload(0x40)\n      tag_33\n      swap2\n      swap1\n      tag_17\n      jump\t// in\n    tag_33:\n      mload(0x40)\n      dup1\n      swap2\n      sub\n      swap1\n      return\n        /* \"5w/BitwiseOps.sol\":1276:1384  function shiftLeft(uint256 x,uint256 bits) external pure returns (uint256) {... */\n    tag_8:\n      tag_34\n      0x04\n      dup1\n      calldatasize\n      sub\n      dup2\n      add\n      swap1\n      tag_35\n      swap2\n      swap1\n      tag_14\n      jump\t// in\n    tag_35:\n      tag_36\n      jump\t// in\n    tag_34:\n      mload(0x40)\n      tag_37\n      swap2\n      swap1\n      tag_17\n      jump\t// in\n    tag_37:\n      mload(0x40)\n      dup1\n      swap2\n      sub\n      swap1\n      return\n        /* \"5w/BitwiseOps.sol\":1029:1111  function not(uint256 x) external pure returns (uint256) {... */\n    tag_9:\n      tag_38\n      0x04\n      dup1\n      calldatasize\n      sub\n      dup2\n      add\n      swap1\n      tag_39\n      swap2\n      swap1\n      tag_40\n      jump\t// in\n    tag_39:\n      tag_41\n      jump\t// in\n    tag_38:\n      mload(0x40)\n      tag_42\n      swap2\n      swap1\n      tag_17\n      jump\t// in\n    tag_42:\n      mload(0x40)\n      dup1\n      swap2\n      sub\n      swap1\n      return\n        /* \"5w/BitwiseOps.sol\":2348:2459  function getLastNBitUsingMod(uint256 x,uint n) external pure returns(uint256){... */\n    tag_10:\n      tag_43\n      0x04\n      dup1\n      calldatasize\n      sub\n      dup2\n      add\n      swap1\n      tag_44\n      swap2\n      swap1\n      tag_14\n      jump\t// in\n    tag_44:\n      tag_45\n      jump\t// in\n    tag_43:\n      mload(0x40)\n      tag_46\n      swap2\n      swap1\n      tag_17\n      jump\t// in\n    tag_46:\n      mload(0x40)\n      dup1\n      swap2\n      sub\n      swap1\n      return\n        /* \"5w/BitwiseOps.sol\":506:601  function or(uint256 x, uint256 y) external pure returns (uint256) {... */\n    tag_15:\n        /* \"5w/BitwiseOps.sol\":563:570  uint256 */\n      0x00\n        /* \"5w/BitwiseOps.sol\":593:594  y */\n      dup2\n        /* \"5w/BitwiseOps.sol\":589:590  x */\n      dup4\n        /* \"5w/BitwiseOps.sol\":589:594  x | y */\n      or\n        /* \"5w/BitwiseOps.sol\":582:594  return x | y */\n      swap1\n      pop\n        /* \"5w/BitwiseOps.sol\":506:601  function or(uint256 x, uint256 y) external pure returns (uint256) {... */\n      swap3\n      swap2\n      pop\n      pop\n      jump\t// out\n        /* \"5w/BitwiseOps.sol\":1587:1694  function shiftRight(uint256 x,uint256 bits) external pure returns(uint256){... */\n    tag_20:\n        /* \"5w/BitwiseOps.sol\":1653:1660  uint256 */\n      0x00\n        /* \"5w/BitwiseOps.sol\":1683:1687  bits */\n      dup2\n        /* \"5w/BitwiseOps.sol\":1678:1679  x */\n      dup4\n        /* \"5w/BitwiseOps.sol\":1678:1687  x >> bits */\n      swap1\n      shr\n        /* \"5w/BitwiseOps.sol\":1671:1687  return x >> bits */\n      swap1\n      pop\n        /* \"5w/BitwiseOps.sol\":1587:1694  function shiftRight(uint256 x,uint256 bits) external pure returns(uint256){... */\n      swap3\n      swap2\n      pop\n      pop\n      jump\t// out\n        /* \"5w/BitwiseOps.sol\":2078:2214  function getLastNBits(uint256 x,uint256 n)external pure returns(uint256){... */\n    tag_24:\n        /* \"5w/BitwiseOps.sol\":2142:2149  uint256 */\n      0x00\n        /* \"5w/BitwiseOps.sol\":2160:2169  uint mask */\n      0x00\n        /* \"5w/BitwiseOps.sol\":2181:2182  1 */\n      0x01\n        /* \"5w/BitwiseOps.sol\":2176:2177  n */\n      dup4\n        /* \"5w/BitwiseOps.sol\":2173:2174  1 */\n      0x01\n        /* \"5w/BitwiseOps.sol\":2173:2177  1<<n */\n      swap1\n      shl\n        /* \"5w/BitwiseOps.sol\":2172:2182  (1<<n) - 1 */\n      tag_50\n      swap2\n      swap1\n      tag_51\n      jump\t// in\n    tag_50:\n        /* \"5w/BitwiseOps.sol\":2160:2182  uint mask = (1<<n) - 1 */\n      swap1\n      pop\n        /* \"5w/BitwiseOps.sol\":2203:2207  mask */\n      dup1\n        /* \"5w/BitwiseOps.sol\":2199:2200  x */\n      dup5\n        /* \"5w/BitwiseOps.sol\":2199:2207  x & mask */\n      and\n        /* \"5w/BitwiseOps.sol\":2192:2207  return x & mask */\n      swap2\n      pop\n      pop\n        /* \"5w/BitwiseOps.sol\":2078:2214  function getLastNBits(uint256 x,uint256 n)external pure returns(uint256){... */\n      swap3\n      swap2\n      pop\n      pop\n      jump\t// out\n        /* \"5w/BitwiseOps.sol\":240:336  function and(uint256 x, uint256 y) external pure returns (uint256) {... */\n    tag_28:\n        /* \"5w/BitwiseOps.sol\":298:305  uint256 */\n      0x00\n        /* \"5w/BitwiseOps.sol\":328:329  y */\n      dup2\n        /* \"5w/BitwiseOps.sol\":324:325  x */\n      dup4\n        /* \"5w/BitwiseOps.sol\":324:329  x & y */\n      and\n        /* \"5w/BitwiseOps.sol\":317:329  return x & y */\n      swap1\n      pop\n        /* \"5w/BitwiseOps.sol\":240:336  function and(uint256 x, uint256 y) external pure returns (uint256) {... */\n      swap3\n      swap2\n      pop\n      pop\n      jump\t// out\n        /* \"5w/BitwiseOps.sol\":773:868  function xor(uint256 x,uint256 y) external pure returns (uint256) {... */\n    tag_32:\n        /* \"5w/BitwiseOps.sol\":830:837  uint256 */\n      0x00\n        /* \"5w/BitwiseOps.sol\":860:861  y */\n      dup2\n        /* \"5w/BitwiseOps.sol\":856:857  x */\n      dup4\n        /* \"5w/BitwiseOps.sol\":856:861  x ^ y */\n      xor\n        /* \"5w/BitwiseOps.sol\":849:861  return x ^ y */\n      swap1\n      pop\n        /* \"5w/BitwiseOps.sol\":773:868  function xor(uint256 x,uint256 y) external pure returns (uint256) {... */\n      swap3\n      swap2\n      pop\n      pop\n      jump\t// out\n        /* \"5w/BitwiseOps.sol\":1276:1384  function shiftLeft(uint256 x,uint256 bits) external pure returns (uint256) {... */\n    tag_36:\n        /* \"5w/BitwiseOps.sol\":1342:1349  uint256 */\n      0x00\n        /* \"5w/BitwiseOps.sol\":1373:1377  bits */\n      dup2\n        /* \"5w/BitwiseOps.sol\":1368:1369  x */\n      dup4\n        /* \"5w/BitwiseOps.sol\":1368:1377  x << bits */\n      swap1\n      shl\n        /* \"5w/BitwiseOps.sol\":1361:1377  return x << bits */\n      swap1\n      pop\n        /* \"5w/BitwiseOps.sol\":1276:1384  function shiftLeft(uint256 x,uint256 bits) external pure returns (uint256) {... */\n      swap3\n      swap2\n      pop\n      pop\n      jump\t// out\n        /* \"5w/BitwiseOps.sol\":1029:1111  function not(uint256 x) external pure returns (uint256) {... */\n    tag_41:\n        /* \"5w/BitwiseOps.sol\":1076:1083  uint256 */\n      0x00\n        /* \"5w/BitwiseOps.sol\":1103:1104  x */\n      dup2\n        /* \"5w/BitwiseOps.sol\":1102:1104  ~x */\n      not\n        /* \"5w/BitwiseOps.sol\":1095:1104  return ~x */\n      swap1\n      pop\n        /* \"5w/BitwiseOps.sol\":1029:1111  function not(uint256 x) external pure returns (uint256) {... */\n      swap2\n      swap1\n      pop\n      jump\t// out\n        /* \"5w/BitwiseOps.sol\":2348:2459  function getLastNBitUsingMod(uint256 x,uint n) external pure returns(uint256){... */\n    tag_45:\n        /* \"5w/BitwiseOps.sol\":2417:2424  uint256 */\n      0x00\n        /* \"5w/BitwiseOps.sol\":2450:2451  n */\n      dup2\n        /* \"5w/BitwiseOps.sol\":2447:2448  1 */\n      0x01\n        /* \"5w/BitwiseOps.sol\":2447:2451  1<<n */\n      swap1\n      shl\n        /* \"5w/BitwiseOps.sol\":2442:2443  x */\n      dup4\n        /* \"5w/BitwiseOps.sol\":2442:2452  x % (1<<n) */\n      tag_57\n      swap2\n      swap1\n      tag_58\n      jump\t// in\n    tag_57:\n        /* \"5w/BitwiseOps.sol\":2435:2452  return x % (1<<n) */\n      swap1\n      pop\n        /* \"5w/BitwiseOps.sol\":2348:2459  function getLastNBitUsingMod(uint256 x,uint n) external pure returns(uint256){... */\n      swap3\n      swap2\n      pop\n      pop\n      jump\t// out\n        /* \"#utility.yul\":88:205   */\n    tag_60:\n        /* \"#utility.yul\":197:198   */\n      0x00\n        /* \"#utility.yul\":194:195   */\n      0x00\n        /* \"#utility.yul\":187:199   */\n      revert\n        /* \"#utility.yul\":334:411   */\n    tag_62:\n        /* \"#utility.yul\":371:378   */\n      0x00\n        /* \"#utility.yul\":400:405   */\n      dup2\n        /* \"#utility.yul\":389:405   */\n      swap1\n      pop\n        /* \"#utility.yul\":334:411   */\n      swap2\n      swap1\n      pop\n      jump\t// out\n        /* \"#utility.yul\":417:539   */\n    tag_63:\n        /* \"#utility.yul\":490:514   */\n      tag_74\n        /* \"#utility.yul\":508:513   */\n      dup2\n        /* \"#utility.yul\":490:514   */\n      tag_62\n      jump\t// in\n    tag_74:\n        /* \"#utility.yul\":483:488   */\n      dup2\n        /* \"#utility.yul\":480:515   */\n      eq\n        /* \"#utility.yul\":470:533   */\n      tag_75\n      jumpi\n        /* \"#utility.yul\":529:530   */\n      0x00\n        /* \"#utility.yul\":526:527   */\n      0x00\n        /* \"#utility.yul\":519:531   */\n      revert\n        /* \"#utility.yul\":470:533   */\n    tag_75:\n        /* \"#utility.yul\":417:539   */\n      pop\n      jump\t// out\n        /* \"#utility.yul\":545:684   */\n    tag_64:\n        /* \"#utility.yul\":591:596   */\n      0x00\n        /* \"#utility.yul\":629:635   */\n      dup2\n        /* \"#utility.yul\":616:636   */\n      calldataload\n        /* \"#utility.yul\":607:636   */\n      swap1\n      pop\n        /* \"#utility.yul\":645:678   */\n      tag_77\n        /* \"#utility.yul\":672:677   */\n      dup2\n        /* \"#utility.yul\":645:678   */\n      tag_63\n      jump\t// in\n    tag_77:\n        /* \"#utility.yul\":545:684   */\n      swap3\n      swap2\n      pop\n      pop\n      jump\t// out\n        /* \"#utility.yul\":690:1164   */\n    tag_14:\n        /* \"#utility.yul\":758:764   */\n      0x00\n        /* \"#utility.yul\":766:772   */\n      0x00\n        /* \"#utility.yul\":815:817   */\n      0x40\n        /* \"#utility.yul\":803:812   */\n      dup4\n        /* \"#utility.yul\":794:801   */\n      dup6\n        /* \"#utility.yul\":790:813   */\n      sub\n        /* \"#utility.yul\":786:818   */\n      slt\n        /* \"#utility.yul\":783:902   */\n      iszero\n      tag_79\n      jumpi\n        /* \"#utility.yul\":821:900   */\n      tag_80\n      tag_60\n      jump\t// in\n    tag_80:\n        /* \"#utility.yul\":783:902   */\n    tag_79:\n        /* \"#utility.yul\":941:942   */\n      0x00\n        /* \"#utility.yul\":966:1019   */\n      tag_81\n        /* \"#utility.yul\":1011:1018   */\n      dup6\n        /* \"#utility.yul\":1002:1008   */\n      dup3\n        /* \"#utility.yul\":991:1000   */\n      dup7\n        /* \"#utility.yul\":987:1009   */\n      add\n        /* \"#utility.yul\":966:1019   */\n      tag_64\n      jump\t// in\n    tag_81:\n        /* \"#utility.yul\":956:1019   */\n      swap3\n      pop\n        /* \"#utility.yul\":912:1029   */\n      pop\n        /* \"#utility.yul\":1068:1070   */\n      0x20\n        /* \"#utility.yul\":1094:1147   */\n      tag_82\n        /* \"#utility.yul\":1139:1146   */\n      dup6\n        /* \"#utility.yul\":1130:1136   */\n      dup3\n        /* \"#utility.yul\":1119:1128   */\n      dup7\n        /* \"#utility.yul\":1115:1137   */\n      add\n        /* \"#utility.yul\":1094:1147   */\n      tag_64\n      jump\t// in\n    tag_82:\n        /* \"#utility.yul\":1084:1147   */\n      swap2\n      pop\n        /* \"#utility.yul\":1039:1157   */\n      pop\n        /* \"#utility.yul\":690:1164   */\n      swap3\n      pop\n      swap3\n      swap1\n      pop\n      jump\t// out\n        /* \"#utility.yul\":1170:1288   */\n    tag_65:\n        /* \"#utility.yul\":1257:1281   */\n      tag_84\n        /* \"#utility.yul\":1275:1280   */\n      dup2\n        /* \"#utility.yul\":1257:1281   */\n      tag_62\n      jump\t// in\n    tag_84:\n        /* \"#utility.yul\":1252:1255   */\n      dup3\n        /* \"#utility.yul\":1245:1282   */\n      mstore\n        /* \"#utility.yul\":1170:1288   */\n      pop\n      pop\n      jump\t// out\n        /* \"#utility.yul\":1294:1516   */\n    tag_17:\n        /* \"#utility.yul\":1387:1391   */\n      0x00\n        /* \"#utility.yul\":1425:1427   */\n      0x20\n        /* \"#utility.yul\":1414:1423   */\n      dup3\n        /* \"#utility.yul\":1410:1428   */\n      add\n        /* \"#utility.yul\":1402:1428   */\n      swap1\n      pop\n        /* \"#utility.yul\":1438:1509   */\n      tag_86\n        /* \"#utility.yul\":1506:1507   */\n      0x00\n        /* \"#utility.yul\":1495:1504   */\n      dup4\n        /* \"#utility.yul\":1491:1508   */\n      add\n        /* \"#utility.yul\":1482:1488   */\n      dup5\n        /* \"#utility.yul\":1438:1509   */\n      tag_65\n      jump\t// in\n    tag_86:\n        /* \"#utility.yul\":1294:1516   */\n      swap3\n      swap2\n      pop\n      pop\n      jump\t// out\n        /* \"#utility.yul\":1522:1851   */\n    tag_40:\n        /* \"#utility.yul\":1581:1587   */\n      0x00\n        /* \"#utility.yul\":1630:1632   */\n      0x20\n        /* \"#utility.yul\":1618:1627   */\n      dup3\n        /* \"#utility.yul\":1609:1616   */\n      dup5\n        /* \"#utility.yul\":1605:1628   */\n      sub\n        /* \"#utility.yul\":1601:1633   */\n      slt\n        /* \"#utility.yul\":1598:1717   */\n      iszero\n      tag_88\n      jumpi\n        /* \"#utility.yul\":1636:1715   */\n      tag_89\n      tag_60\n      jump\t// in\n    tag_89:\n        /* \"#utility.yul\":1598:1717   */\n    tag_88:\n        /* \"#utility.yul\":1756:1757   */\n      0x00\n        /* \"#utility.yul\":1781:1834   */\n      tag_90\n        /* \"#utility.yul\":1826:1833   */\n      dup5\n        /* \"#utility.yul\":1817:1823   */\n      dup3\n        /* \"#utility.yul\":1806:1815   */\n      dup6\n        /* \"#utility.yul\":1802:1824   */\n      add\n        /* \"#utility.yul\":1781:1834   */\n      tag_64\n      jump\t// in\n    tag_90:\n        /* \"#utility.yul\":1771:1834   */\n      swap2\n      pop\n        /* \"#utility.yul\":1727:1844   */\n      pop\n        /* \"#utility.yul\":1522:1851   */\n      swap3\n      swap2\n      pop\n      pop\n      jump\t// out\n        /* \"#utility.yul\":1857:2037   */\n    tag_66:\n        /* \"#utility.yul\":1905:1982   */\n      0x4e487b7100000000000000000000000000000000000000000000000000000000\n        /* \"#utility.yul\":1902:1903   */\n      0x00\n        /* \"#utility.yul\":1895:1983   */\n      mstore\n        /* \"#utility.yul\":2002:2006   */\n      0x11\n        /* \"#utility.yul\":1999:2000   */\n      0x04\n        /* \"#utility.yul\":1992:2007   */\n      mstore\n        /* \"#utility.yul\":2026:2030   */\n      0x24\n        /* \"#utility.yul\":2023:2024   */\n      0x00\n        /* \"#utility.yul\":2016:2031   */\n      revert\n        /* \"#utility.yul\":2043:2237   */\n    tag_51:\n        /* \"#utility.yul\":2083:2087   */\n      0x00\n        /* \"#utility.yul\":2103:2123   */\n      tag_93\n        /* \"#utility.yul\":2121:2122   */\n      dup3\n        /* \"#utility.yul\":2103:2123   */\n      tag_62\n      jump\t// in\n    tag_93:\n        /* \"#utility.yul\":2098:2123   */\n      swap2\n      pop\n        /* \"#utility.yul\":2137:2157   */\n      tag_94\n        /* \"#utility.yul\":2155:2156   */\n      dup4\n        /* \"#utility.yul\":2137:2157   */\n      tag_62\n      jump\t// in\n    tag_94:\n        /* \"#utility.yul\":2132:2157   */\n      swap3\n      pop\n        /* \"#utility.yul\":2181:2182   */\n      dup3\n        /* \"#utility.yul\":2178:2179   */\n      dup3\n        /* \"#utility.yul\":2174:2183   */\n      sub\n        /* \"#utility.yul\":2166:2183   */\n      swap1\n      pop\n        /* \"#utility.yul\":2205:2206   */\n      dup2\n        /* \"#utility.yul\":2199:2203   */\n      dup2\n        /* \"#utility.yul\":2196:2207   */\n      gt\n        /* \"#utility.yul\":2193:2230   */\n      iszero\n      tag_95\n      jumpi\n        /* \"#utility.yul\":2210:2228   */\n      tag_96\n      tag_66\n      jump\t// in\n    tag_96:\n        /* \"#utility.yul\":2193:2230   */\n    tag_95:\n        /* \"#utility.yul\":2043:2237   */\n      swap3\n      swap2\n      pop\n      pop\n      jump\t// out\n        /* \"#utility.yul\":2243:2423   */\n    tag_67:\n        /* \"#utility.yul\":2291:2368   */\n      0x4e487b7100000000000000000000000000000000000000000000000000000000\n        /* \"#utility.yul\":2288:2289   */\n      0x00\n        /* \"#utility.yul\":2281:2369   */\n      mstore\n        /* \"#utility.yul\":2388:2392   */\n      0x12\n        /* \"#utility.yul\":2385:2386   */\n      0x04\n        /* \"#utility.yul\":2378:2393   */\n      mstore\n        /* \"#utility.yul\":2412:2416   */\n      0x24\n        /* \"#utility.yul\":2409:2410   */\n      0x00\n        /* \"#utility.yul\":2402:2417   */\n      revert\n        /* \"#utility.yul\":2429:2605   */\n    tag_58:\n        /* \"#utility.yul\":2461:2462   */\n      0x00\n        /* \"#utility.yul\":2478:2498   */\n      tag_99\n        /* \"#utility.yul\":2496:2497   */\n      dup3\n        /* \"#utility.yul\":2478:2498   */\n      tag_62\n      jump\t// in\n    tag_99:\n        /* \"#utility.yul\":2473:2498   */\n      swap2\n      pop\n        /* \"#utility.yul\":2512:2532   */\n      tag_100\n        /* \"#utility.yul\":2530:2531   */\n      dup4\n        /* \"#utility.yul\":2512:2532   */\n      tag_62\n      jump\t// in\n    tag_100:\n        /* \"#utility.yul\":2507:2532   */\n      swap3\n      pop\n        /* \"#utility.yul\":2551:2552   */\n      dup3\n        /* \"#utility.yul\":2541:2576   */\n      tag_101\n      jumpi\n        /* \"#utility.yul\":2556:2574   */\n      tag_102\n      tag_67\n      jump\t// in\n    tag_102:\n        /* \"#utility.yul\":2541:2576   */\n    tag_101:\n        /* \"#utility.yul\":2597:2598   */\n      dup3\n        /* \"#utility.yul\":2594:2595   */\n      dup3\n        /* \"#utility.yul\":2590:2599   */\n      mod\n        /* \"#utility.yul\":2585:2599   */\n      swap1\n      pop\n        /* \"#utility.yul\":2429:2605   */\n      swap3\n      swap2\n      pop\n      pop\n      jump\t// out\n\n    auxdata: 0xa2646970667358221220903a21391710e371ab019c91fb805e8963b8c18cd4902b15b67233517ced72b564736f6c634300081e0033\n}\n",
				"bytecode": {
					"linkReferences": {},
					"object": "6080604052348015600e575f5ffd5b506104478061001c5f395ff3fe608060405234801561000f575f5ffd5b5060043610610086575f3560e01c80639ed41ba1116100595780639ed41ba11461014a578063a589d2121461017a578063bcc68a1b146101aa578063df0ff104146101da57610086565b8063097c2cb21461008a5780631685fa98146100ba57806321a95296146100ea578063903b98421461011a575b5f5ffd5b6100a4600480360381019061009f91906102c3565b61020a565b6040516100b19190610310565b60405180910390f35b6100d460048036038101906100cf91906102c3565b610216565b6040516100e19190610310565b60405180910390f35b61010460048036038101906100ff91906102c3565b610223565b6040516101119190610310565b60405180910390f35b610134600480360381019061012f91906102c3565b610244565b6040516101419190610310565b60405180910390f35b610164600480360381019061015f91906102c3565b610250565b6040516101719190610310565b60405180910390f35b610194600480360381019061018f91906102c3565b61025c565b6040516101a19190610310565b60405180910390f35b6101c460048036038101906101bf9190610329565b610269565b6040516101d19190610310565b60405180910390f35b6101f460048036038101906101ef91906102c3565b610273565b6040516102019190610310565b60405180910390f35b5f818317905092915050565b5f8183901c905092915050565b5f5f6001836001901b6102369190610381565b905080841691505092915050565b5f818316905092915050565b5f818318905092915050565b5f8183901b905092915050565b5f81199050919050565b5f816001901b8361028491906103e1565b905092915050565b5f5ffd5b5f819050919050565b6102a281610290565b81146102ac575f5ffd5b50565b5f813590506102bd81610299565b92915050565b5f5f604083850312156102d9576102d861028c565b5b5f6102e6858286016102af565b92505060206102f7858286016102af565b9150509250929050565b61030a81610290565b82525050565b5f6020820190506103235f830184610301565b92915050565b5f6020828403121561033e5761033d61028c565b5b5f61034b848285016102af565b91505092915050565b7f4e487b71000000000000000000000000000000000000000000000000000000005f52601160045260245ffd5b5f61038b82610290565b915061039683610290565b92508282039050818111156103ae576103ad610354565b5b92915050565b7f4e487b71000000000000000000000000000000000000000000000000000000005f52601260045260245ffd5b5f6103eb82610290565b91506103f683610290565b925082610406576104056103b4565b5b82820690509291505056fea2646970667358221220903a21391710e371ab019c91fb805e8963b8c18cd4902b15b67233517ced72b564736f6c634300081e0033",
					"opcodes": "PUSH1 0x80 PUSH1 0x40 MSTORE CALLVALUE DUP1 ISZERO PUSH1 0xE JUMPI PUSH0 PUSH0 REVERT JUMPDEST POP PUSH2 0x447 DUP1 PUSH2 0x1C PUSH0 CODECOPY PUSH0 RETURN INVALID PUSH1 0x80 PUSH1 0x40 MSTORE CALLVALUE DUP1 ISZERO PUSH2 0xF JUMPI PUSH0 PUSH0 REVERT JUMPDEST POP PUSH1 0x4 CALLDATASIZE LT PUSH2 0x86 JUMPI PUSH0 CALLDATALOAD PUSH1 0xE0 SHR DUP1 PUSH4 0x9ED41BA1 GT PUSH2 0x59 JUMPI DUP1 PUSH4 0x9ED41BA1 EQ PUSH2 0x14A JUMPI DUP1 PUSH4 0xA589D212 EQ PUSH2 0x17A JUMPI DUP1 PUSH4 0xBCC68A1B EQ PUSH2 0x1AA JUMPI DUP1 PUSH4 0xDF0FF104 EQ PUSH2 0x1DA JUMPI PUSH2 0x86 JUMP JUMPDEST DUP1 PUSH4 0x97C2CB2 EQ PUSH2 0x8A JUMPI DUP1 PUSH4 0x1685FA98 EQ PUSH2 0xBA JUMPI DUP1 PUSH4 0x21A95296 EQ PUSH2 0xEA JUMPI DUP1 PUSH4 0x903B9842 EQ PUSH2 0x11A JUMPI JUMPDEST PUSH0 PUSH0 REVERT JUMPDEST PUSH2 0xA4 PUSH1 0x4 DUP1 CALLDATASIZE SUB DUP2 ADD SWAP1 PUSH2 0x9F SWAP2 SWAP1 PUSH2 0x2C3 JUMP JUMPDEST PUSH2 0x20A JUMP JUMPDEST PUSH1 0x40 MLOAD PUSH2 0xB1 SWAP2 SWAP1 PUSH2 0x310 JUMP JUMPDEST PUSH1 0x40 MLOAD DUP1 SWAP2 SUB SWAP1 RETURN JUMPDEST PUSH2 0xD4 PUSH1 0x4 DUP1 CALLDATASIZE SUB DUP2 ADD SWAP1 PUSH2 0xCF SWAP2 SWAP1 PUSH2 0x2C3 JUMP JUMPDEST PUSH2 0x216 JUMP JUMPDEST PUSH1 0x40 MLOAD PUSH2 0xE1 SWAP2 SWAP1 PUSH2 0x310 JUMP JUMPDEST PUSH1 0x40 MLOAD DUP1 SWAP2 SUB SWAP1 RETURN JUMPDEST PUSH2 0x104 PUSH1 0x4 DUP1 CALLDATASIZE SUB DUP2 ADD SWAP1 PUSH2 0xFF SWAP2 SWAP1 PUSH2 0x2C3 JUMP JUMPDEST PUSH2 0x223 JUMP JUMPDEST PUSH1 0x40 MLOAD PUSH2 0x111 SWAP2 SWAP1 PUSH2 0x310 JUMP JUMPDEST PUSH1 0x40 MLOAD DUP1 SWAP2 SUB SWAP1 RETURN JUMPDEST PUSH2 0x134 PUSH1 0x4 DUP1 CALLDATASIZE SUB DUP2 ADD SWAP1 PUSH2 0x12F SWAP2 SWAP1 PUSH2 0x2C3 JUMP JUMPDEST PUSH2 0x244 JUMP JUMPDEST PUSH1 0x40 MLOAD PUSH2 0x141 SWAP2 SWAP1 PUSH2 0x310 JUMP JUMPDEST PUSH1 0x40 MLOAD DUP1 SWAP2 SUB SWAP1 RETURN JUMPDEST PUSH2 0x164 PUSH1 0x4 DUP1 CALLDATASIZE SUB DUP2 ADD SWAP1 PUSH2 0x15F SWAP2 SWAP1 PUSH2 0x2C3 JUMP JUMPDEST PUSH2 0x250 JUMP JUMPDEST PUSH1 0x40 MLOAD PUSH2 0x171 SWAP2 SWAP1 PUSH2 0x310 JUMP JUMPDEST PUSH1 0x40 MLOAD DUP1 SWAP2 SUB SWAP1 RETURN JUMPDEST PUSH2 0x194 PUSH1 0x4 DUP1 CALLDATASIZE SUB DUP2 ADD SWAP1 PUSH2 0x18F SWAP2 SWAP1 PUSH2 0x2C3 JUMP JUMPDEST PUSH2 0x25C JUMP JUMPDEST PUSH1 0x40 MLOAD PUSH2 0x1A1 SWAP2 SWAP1 PUSH2 0x310 JUMP JUMPDEST PUSH1 0x40 MLOAD DUP1 SWAP2 SUB SWAP1 RETURN JUMPDEST PUSH2 0x1C4 PUSH1 0x4 DUP1 CALLDATASIZE SUB DUP2 ADD SWAP1 PUSH2 0x1BF SWAP2 SWAP1 PUSH2 0x329 JUMP JUMPDEST PUSH2 0x269 JUMP JUMPDEST PUSH1 0x40 MLOAD PUSH2 0x1D1 SWAP2 SWAP1 PUSH2 0x310 JUMP JUMPDEST PUSH1 0x40 MLOAD DUP1 SWAP2 SUB SWAP1 RETURN JUMPDEST PUSH2 0x1F4 PUSH1 0x4 DUP1 CALLDATASIZE SUB DUP2 ADD SWAP1 PUSH2 0x1EF SWAP2 SWAP1 PUSH2 0x2C3 JUMP JUMPDEST PUSH2 0x273 JUMP JUMPDEST PUSH1 0x40 MLOAD PUSH2 0x201 SWAP2 SWAP1 PUSH2 0x310 JUMP JUMPDEST PUSH1 0x40 MLOAD DUP1 SWAP2 SUB SWAP1 RETURN JUMPDEST PUSH0 DUP2 DUP4 OR SWAP1 POP SWAP3 SWAP2 POP POP JUMP JUMPDEST PUSH0 DUP2 DUP4 SWAP1 SHR SWAP1 POP SWAP3 SWAP2 POP POP JUMP JUMPDEST PUSH0 PUSH0 PUSH1 0x1 DUP4 PUSH1 0x1 SWAP1 SHL PUSH2 0x236 SWAP2 SWAP1 PUSH2 0x381 JUMP JUMPDEST SWAP1 POP DUP1 DUP5 AND SWAP2 POP POP SWAP3 SWAP2 POP POP JUMP JUMPDEST PUSH0 DUP2 DUP4 AND SWAP1 POP SWAP3 SWAP2 POP POP JUMP JUMPDEST PUSH0 DUP2 DUP4 XOR SWAP1 POP SWAP3 SWAP2 POP POP JUMP JUMPDEST PUSH0 DUP2 DUP4 SWAP1 SHL SWAP1 POP SWAP3 SWAP2 POP POP JUMP JUMPDEST PUSH0 DUP2 NOT SWAP1 POP SWAP2 SWAP1 POP JUMP JUMPDEST PUSH0 DUP2 PUSH1 0x1 SWAP1 SHL DUP4 PUSH2 0x284 SWAP2 SWAP1 PUSH2 0x3E1 JUMP JUMPDEST SWAP1 POP SWAP3 SWAP2 POP POP JUMP JUMPDEST PUSH0 PUSH0 REVERT JUMPDEST PUSH0 DUP2 SWAP1 POP SWAP2 SWAP1 POP JUMP JUMPDEST PUSH2 0x2A2 DUP2 PUSH2 0x290 JUMP JUMPDEST DUP2 EQ PUSH2 0x2AC JUMPI PUSH0 PUSH0 REVERT JUMPDEST POP JUMP JUMPDEST PUSH0 DUP2 CALLDATALOAD SWAP1 POP PUSH2 0x2BD DUP2 PUSH2 0x299 JUMP JUMPDEST SWAP3 SWAP2 POP POP JUMP JUMPDEST PUSH0 PUSH0 PUSH1 0x40 DUP4 DUP6 SUB SLT ISZERO PUSH2 0x2D9 JUMPI PUSH2 0x2D8 PUSH2 0x28C JUMP JUMPDEST JUMPDEST PUSH0 PUSH2 0x2E6 DUP6 DUP3 DUP7 ADD PUSH2 0x2AF JUMP JUMPDEST SWAP3 POP POP PUSH1 0x20 PUSH2 0x2F7 DUP6 DUP3 DUP7 ADD PUSH2 0x2AF JUMP JUMPDEST SWAP2 POP POP SWAP3 POP SWAP3 SWAP1 POP JUMP JUMPDEST PUSH2 0x30A DUP2 PUSH2 0x290 JUMP JUMPDEST DUP3 MSTORE POP POP JUMP JUMPDEST PUSH0 PUSH1 0x20 DUP3 ADD SWAP1 POP PUSH2 0x323 PUSH0 DUP4 ADD DUP5 PUSH2 0x301 JUMP JUMPDEST SWAP3 SWAP2 POP POP JUMP JUMPDEST PUSH0 PUSH1 0x20 DUP3 DUP5 SUB SLT ISZERO PUSH2 0x33E JUMPI PUSH2 0x33D PUSH2 0x28C JUMP JUMPDEST JUMPDEST PUSH0 PUSH2 0x34B DUP5 DUP3 DUP6 ADD PUSH2 0x2AF JUMP JUMPDEST SWAP2 POP POP SWAP3 SWAP2 POP POP JUMP JUMPDEST PUSH32 0x4E487B7100000000000000000000000000000000000000000000000000000000 PUSH0 MSTORE PUSH1 0x11 PUSH1 0x4 MSTORE PUSH1 0x24 PUSH0 REVERT JUMPDEST PUSH0 PUSH2 0x38B DUP3 PUSH2 0x290 JUMP JUMPDEST SWAP2 POP PUSH2 0x396 DUP4 PUSH2 0x290 JUMP JUMPDEST SWAP3 POP DUP3 DUP3 SUB SWAP1 POP DUP2 DUP2 GT ISZERO PUSH2 0x3AE JUMPI PUSH2 0x3AD PUSH2 0x354 JUMP JUMPDEST JUMPDEST SWAP3 SWAP2 POP POP JUMP JUMPDEST PUSH32 0x4E487B7100000000000000000000000000000000000000000000000000000000 PUSH0 MSTORE PUSH1 0x12 PUSH1 0x4 MSTORE PUSH1 0x24 PUSH0 REVERT JUMPDEST PUSH0 PUSH2 0x3EB DUP3 PUSH2 0x290 JUMP JUMPDEST SWAP2 POP PUSH2 0x3F6 DUP4 PUSH2 0x290 JUMP JUMPDEST SWAP3 POP DUP3 PUSH2 0x406 JUMPI PUSH2 0x405 PUSH2 0x3B4 JUMP JUMPDEST JUMPDEST DUP3 DUP3 MOD SWAP1 POP SWAP3 SWAP2 POP POP JUMP INVALID LOG2 PUSH5 0x6970667358 0x22 SLT KECCAK256 SWAP1 GASPRICE 0x21 CODECOPY OR LT CALLF 0x71AB ADD SWAP13 SWAP2 EXTSTATICCALL DUP1 MCOPY DUP10 PUSH4 0xB8C18CD4 SWAP1 0x2B ISZERO 0xB6 PUSH19 0x33517CED72B564736F6C634300081E00330000 "
				},
				"gasEstimates": {
					"creation": {
						"codeDepositCost": "219000",
						"executionCost": "261",
						"totalCost": "219261"
					},
					"external": {
						"and(uint256,uint256)": "infinite",
						"getLastNBitUsingMod(uint256,uint256)": "infinite",
						"getLastNBits(uint256,uint256)": "infinite",
						"not(uint256)": "infinite",
						"or(uint256,uint256)": "infinite",
						"shiftLeft(uint256,uint256)": "infinite",
						"shiftRight(uint256,uint256)": "infinite",
						"xor(uint256,uint256)": "infinite"
					}
				},
				"methodIdentifiers": {
					"and(uint256,uint256)": "903b9842",
					"getLastNBitUsingMod(uint256,uint256)": "df0ff104",
					"getLastNBits(uint256,uint256)": "21a95296",
					"not(uint256)": "bcc68a1b",
					"or(uint256,uint256)": "097c2cb2",
					"shiftLeft(uint256,uint256)": "a589d212",
					"shiftRight(uint256,uint256)": "1685fa98",
					"xor(uint256,uint256)": "9ed41ba1"
				}
			},
			"storageLayout": {
				"storage": [],
				"types": null
			},
			"userdoc": {
				"kind": "user",
				"methods": {},
				"version": 1
			}
		}
	}
}